{
	"10_InsertionSort/InsertionSort.sol": {
		"InsertionSort": {
			"abi": [
				{
					"inputs": [],
					"name": "doWhileTest",
					"outputs": [
						{
							"internalType": "uint256",
							"name": "",
							"type": "uint256"
						}
					],
					"stateMutability": "pure",
					"type": "function"
				},
				{
					"inputs": [],
					"name": "fooLoopTest",
					"outputs": [
						{
							"internalType": "uint256",
							"name": "",
							"type": "uint256"
						}
					],
					"stateMutability": "pure",
					"type": "function"
				},
				{
					"inputs": [
						{
							"internalType": "uint256",
							"name": "_number",
							"type": "uint256"
						}
					],
					"name": "ifElseTest",
					"outputs": [
						{
							"internalType": "bool",
							"name": "",
							"type": "bool"
						}
					],
					"stateMutability": "pure",
					"type": "function"
				},
				{
					"inputs": [
						{
							"internalType": "uint256[]",
							"name": "arr",
							"type": "uint256[]"
						}
					],
					"name": "insertSort",
					"outputs": [
						{
							"internalType": "uint256[]",
							"name": "",
							"type": "uint256[]"
						}
					],
					"stateMutability": "pure",
					"type": "function"
				},
				{
					"inputs": [
						{
							"internalType": "uint256[]",
							"name": "arr",
							"type": "uint256[]"
						}
					],
					"name": "insertSort2",
					"outputs": [
						{
							"internalType": "uint256[]",
							"name": "",
							"type": "uint256[]"
						}
					],
					"stateMutability": "pure",
					"type": "function"
				},
				{
					"inputs": [
						{
							"internalType": "uint256",
							"name": "x",
							"type": "uint256"
						},
						{
							"internalType": "uint256",
							"name": "y",
							"type": "uint256"
						}
					],
					"name": "ternaryTest",
					"outputs": [
						{
							"internalType": "uint256",
							"name": "",
							"type": "uint256"
						}
					],
					"stateMutability": "pure",
					"type": "function"
				},
				{
					"inputs": [],
					"name": "whileTest",
					"outputs": [
						{
							"internalType": "uint256",
							"name": "",
							"type": "uint256"
						}
					],
					"stateMutability": "pure",
					"type": "function"
				}
			],
			"devdoc": {
				"kind": "dev",
				"methods": {},
				"version": 1
			},
			"evm": {
				"assembly": "    /* \"10_InsertionSort/InsertionSort.sol\":61:1937  contract InsertionSort{... */\n  mstore(0x40, 0x80)\n  callvalue\n  dup1\n  iszero\n  tag_1\n  jumpi\n  revert(0x00, 0x00)\ntag_1:\n  pop\n  dataSize(sub_0)\n  dup1\n  dataOffset(sub_0)\n  0x00\n  codecopy\n  0x00\n  return\nstop\n\nsub_0: assembly {\n        /* \"10_InsertionSort/InsertionSort.sol\":61:1937  contract InsertionSort{... */\n      mstore(0x40, 0x80)\n      callvalue\n      dup1\n      iszero\n      tag_1\n      jumpi\n      revert(0x00, 0x00)\n    tag_1:\n      pop\n      jumpi(tag_2, lt(calldatasize, 0x04))\n      shr(0xe0, calldataload(0x00))\n      dup1\n      0x5d14639d\n      gt\n      tag_10\n      jumpi\n      dup1\n      0x5d14639d\n      eq\n      tag_6\n      jumpi\n      dup1\n      0x7141fb00\n      eq\n      tag_7\n      jumpi\n      dup1\n      0xb23d97f2\n      eq\n      tag_8\n      jumpi\n      dup1\n      0xe5de1970\n      eq\n      tag_9\n      jumpi\n      jump(tag_2)\n    tag_10:\n      dup1\n      0x28766320\n      eq\n      tag_3\n      jumpi\n      dup1\n      0x2bbacaaa\n      eq\n      tag_4\n      jumpi\n      dup1\n      0x34e4dfdb\n      eq\n      tag_5\n      jumpi\n    tag_2:\n      revert(0x00, 0x00)\n        /* \"10_InsertionSort/InsertionSort.sol\":885:993  function ternaryTest(uint256 x, uint256 y) public pure returns(uint256){... */\n    tag_3:\n      tag_11\n      0x04\n      dup1\n      calldatasize\n      sub\n      dup2\n      add\n      swap1\n      tag_12\n      swap2\n      swap1\n      tag_13\n      jump\t// in\n    tag_12:\n      tag_14\n      jump\t// in\n    tag_11:\n      mload(0x40)\n      tag_15\n      swap2\n      swap1\n      tag_16\n      jump\t// in\n    tag_15:\n      mload(0x40)\n      dup1\n      swap2\n      sub\n      swap1\n      return\n        /* \"10_InsertionSort/InsertionSort.sol\":681:877  function doWhileTest() public pure returns(uint256){... */\n    tag_4:\n      tag_17\n      tag_18\n      jump\t// in\n    tag_17:\n      mload(0x40)\n      tag_19\n      swap2\n      swap1\n      tag_16\n      jump\t// in\n    tag_19:\n      mload(0x40)\n      dup1\n      swap2\n      sub\n      swap1\n      return\n        /* \"10_InsertionSort/InsertionSort.sol\":292:465  function fooLoopTest() public pure returns(uint256){... */\n    tag_5:\n      tag_20\n      tag_21\n      jump\t// in\n    tag_20:\n      mload(0x40)\n      tag_22\n      swap2\n      swap1\n      tag_16\n      jump\t// in\n    tag_22:\n      mload(0x40)\n      dup1\n      swap2\n      sub\n      swap1\n      return\n        /* \"10_InsertionSort/InsertionSort.sol\":475:671  function whileTest() public pure returns(uint256){... */\n    tag_6:\n      tag_23\n      tag_24\n      jump\t// in\n    tag_23:\n      mload(0x40)\n      tag_25\n      swap2\n      swap1\n      tag_16\n      jump\t// in\n    tag_25:\n      mload(0x40)\n      dup1\n      swap2\n      sub\n      swap1\n      return\n        /* \"10_InsertionSort/InsertionSort.sol\":108:284  function ifElseTest(uint256 _number) public pure returns(bool){... */\n    tag_7:\n      tag_26\n      0x04\n      dup1\n      calldatasize\n      sub\n      dup2\n      add\n      swap1\n      tag_27\n      swap2\n      swap1\n      tag_28\n      jump\t// in\n    tag_27:\n      tag_29\n      jump\t// in\n    tag_26:\n      mload(0x40)\n      tag_30\n      swap2\n      swap1\n      tag_31\n      jump\t// in\n    tag_30:\n      mload(0x40)\n      dup1\n      swap2\n      sub\n      swap1\n      return\n        /* \"10_InsertionSort/InsertionSort.sol\":1130:1516  function insertSort(uint[] memory arr) pure public returns( uint[] memory){... */\n    tag_8:\n      tag_32\n      0x04\n      dup1\n      calldatasize\n      sub\n      dup2\n      add\n      swap1\n      tag_33\n      swap2\n      swap1\n      tag_34\n      jump\t// in\n    tag_33:\n      tag_35\n      jump\t// in\n    tag_32:\n      mload(0x40)\n      tag_36\n      swap2\n      swap1\n      tag_37\n      jump\t// in\n    tag_36:\n      mload(0x40)\n      dup1\n      swap2\n      sub\n      swap1\n      return\n        /* \"10_InsertionSort/InsertionSort.sol\":1547:1930  function insertSort2(uint[] memory arr) pure public returns( uint[] memory){... */\n    tag_9:\n      tag_38\n      0x04\n      dup1\n      calldatasize\n      sub\n      dup2\n      add\n      swap1\n      tag_39\n      swap2\n      swap1\n      tag_34\n      jump\t// in\n    tag_39:\n      tag_40\n      jump\t// in\n    tag_38:\n      mload(0x40)\n      tag_41\n      swap2\n      swap1\n      tag_37\n      jump\t// in\n    tag_41:\n      mload(0x40)\n      dup1\n      swap2\n      sub\n      swap1\n      return\n        /* \"10_InsertionSort/InsertionSort.sol\":885:993  function ternaryTest(uint256 x, uint256 y) public pure returns(uint256){... */\n    tag_14:\n        /* \"10_InsertionSort/InsertionSort.sol\":948:955  uint256 */\n      0x00\n        /* \"10_InsertionSort/InsertionSort.sol\":977:978  y */\n      dup2\n        /* \"10_InsertionSort/InsertionSort.sol\":974:975  x */\n      dup4\n        /* \"10_InsertionSort/InsertionSort.sol\":974:978  x>=y */\n      lt\n      iszero\n        /* \"10_InsertionSort/InsertionSort.sol\":974:985  x>=y ? x: y */\n      tag_43\n      jumpi\n        /* \"10_InsertionSort/InsertionSort.sol\":984:985  y */\n      dup2\n        /* \"10_InsertionSort/InsertionSort.sol\":974:985  x>=y ? x: y */\n      jump(tag_44)\n    tag_43:\n        /* \"10_InsertionSort/InsertionSort.sol\":981:982  x */\n      dup3\n        /* \"10_InsertionSort/InsertionSort.sol\":974:985  x>=y ? x: y */\n    tag_44:\n        /* \"10_InsertionSort/InsertionSort.sol\":967:985  return x>=y ? x: y */\n      swap1\n      pop\n        /* \"10_InsertionSort/InsertionSort.sol\":885:993  function ternaryTest(uint256 x, uint256 y) public pure returns(uint256){... */\n      swap3\n      swap2\n      pop\n      pop\n      jump\t// out\n        /* \"10_InsertionSort/InsertionSort.sol\":681:877  function doWhileTest() public pure returns(uint256){... */\n    tag_18:\n        /* \"10_InsertionSort/InsertionSort.sol\":724:731  uint256 */\n      0x00\n        /* \"10_InsertionSort/InsertionSort.sol\":743:751  uint sum */\n      0x00\n        /* \"10_InsertionSort/InsertionSort.sol\":754:755  0 */\n      0x00\n        /* \"10_InsertionSort/InsertionSort.sol\":743:755  uint sum = 0 */\n      swap1\n      pop\n        /* \"10_InsertionSort/InsertionSort.sol\":766:772  uint i */\n      0x00\n        /* \"10_InsertionSort/InsertionSort.sol\":774:775  0 */\n      0x00\n        /* \"10_InsertionSort/InsertionSort.sol\":766:775  uint i =0 */\n      swap1\n      pop\n        /* \"10_InsertionSort/InsertionSort.sol\":786:849  while(i<10){... */\n    tag_46:\n        /* \"10_InsertionSort/InsertionSort.sol\":794:796  10 */\n      0x0a\n        /* \"10_InsertionSort/InsertionSort.sol\":792:793  i */\n      dup2\n        /* \"10_InsertionSort/InsertionSort.sol\":792:796  i<10 */\n      lt\n        /* \"10_InsertionSort/InsertionSort.sol\":786:849  while(i<10){... */\n      iszero\n      tag_47\n      jumpi\n        /* \"10_InsertionSort/InsertionSort.sol\":818:819  i */\n      dup1\n        /* \"10_InsertionSort/InsertionSort.sol\":812:819  sum +=i */\n      dup3\n      tag_48\n      swap2\n      swap1\n      tag_49\n      jump\t// in\n    tag_48:\n      swap2\n      pop\n        /* \"10_InsertionSort/InsertionSort.sol\":834:837  i++ */\n      dup1\n      dup1\n      tag_50\n      swap1\n      tag_51\n      jump\t// in\n    tag_50:\n      swap2\n      pop\n      pop\n        /* \"10_InsertionSort/InsertionSort.sol\":786:849  while(i<10){... */\n      jump(tag_46)\n    tag_47:\n        /* \"10_InsertionSort/InsertionSort.sol\":866:869  sum */\n      dup2\n        /* \"10_InsertionSort/InsertionSort.sol\":859:869  return sum */\n      swap3\n      pop\n      pop\n      pop\n        /* \"10_InsertionSort/InsertionSort.sol\":681:877  function doWhileTest() public pure returns(uint256){... */\n      swap1\n      jump\t// out\n        /* \"10_InsertionSort/InsertionSort.sol\":292:465  function fooLoopTest() public pure returns(uint256){... */\n    tag_21:\n        /* \"10_InsertionSort/InsertionSort.sol\":335:342  uint256 */\n      0x00\n        /* \"10_InsertionSort/InsertionSort.sol\":354:362  uint sum */\n      0x00\n        /* \"10_InsertionSort/InsertionSort.sol\":364:365  0 */\n      0x00\n        /* \"10_InsertionSort/InsertionSort.sol\":354:365  uint sum =0 */\n      swap1\n      pop\n        /* \"10_InsertionSort/InsertionSort.sol\":380:386  uint i */\n      0x00\n        /* \"10_InsertionSort/InsertionSort.sol\":389:390  0 */\n      0x00\n        /* \"10_InsertionSort/InsertionSort.sol\":380:390  uint i = 0 */\n      swap1\n      pop\n        /* \"10_InsertionSort/InsertionSort.sol\":376:437  for(uint i = 0; i< 10; i++){... */\n    tag_53:\n        /* \"10_InsertionSort/InsertionSort.sol\":395:397  10 */\n      0x0a\n        /* \"10_InsertionSort/InsertionSort.sol\":392:393  i */\n      dup2\n        /* \"10_InsertionSort/InsertionSort.sol\":392:397  i< 10 */\n      lt\n        /* \"10_InsertionSort/InsertionSort.sol\":376:437  for(uint i = 0; i< 10; i++){... */\n      iszero\n      tag_54\n      jumpi\n        /* \"10_InsertionSort/InsertionSort.sol\":424:425  i */\n      dup1\n        /* \"10_InsertionSort/InsertionSort.sol\":418:425  sum +=i */\n      dup3\n      tag_56\n      swap2\n      swap1\n      tag_49\n      jump\t// in\n    tag_56:\n      swap2\n      pop\n        /* \"10_InsertionSort/InsertionSort.sol\":399:402  i++ */\n      dup1\n      dup1\n      0x01\n      add\n      swap2\n      pop\n      pop\n        /* \"10_InsertionSort/InsertionSort.sol\":376:437  for(uint i = 0; i< 10; i++){... */\n      jump(tag_53)\n    tag_54:\n      pop\n        /* \"10_InsertionSort/InsertionSort.sol\":454:457  sum */\n      dup1\n        /* \"10_InsertionSort/InsertionSort.sol\":447:457  return sum */\n      swap2\n      pop\n      pop\n        /* \"10_InsertionSort/InsertionSort.sol\":292:465  function fooLoopTest() public pure returns(uint256){... */\n      swap1\n      jump\t// out\n        /* \"10_InsertionSort/InsertionSort.sol\":475:671  function whileTest() public pure returns(uint256){... */\n    tag_24:\n        /* \"10_InsertionSort/InsertionSort.sol\":516:523  uint256 */\n      0x00\n        /* \"10_InsertionSort/InsertionSort.sol\":535:543  uint sum */\n      0x00\n        /* \"10_InsertionSort/InsertionSort.sol\":545:546  0 */\n      0x00\n        /* \"10_InsertionSort/InsertionSort.sol\":535:546  uint sum =0 */\n      swap1\n      pop\n        /* \"10_InsertionSort/InsertionSort.sol\":557:563  uint i */\n      0x00\n        /* \"10_InsertionSort/InsertionSort.sol\":566:567  0 */\n      0x00\n        /* \"10_InsertionSort/InsertionSort.sol\":557:567  uint i = 0 */\n      swap1\n      pop\n        /* \"10_InsertionSort/InsertionSort.sol\":578:642  while(i< 10){... */\n    tag_58:\n        /* \"10_InsertionSort/InsertionSort.sol\":587:589  10 */\n      0x0a\n        /* \"10_InsertionSort/InsertionSort.sol\":584:585  i */\n      dup2\n        /* \"10_InsertionSort/InsertionSort.sol\":584:589  i< 10 */\n      lt\n        /* \"10_InsertionSort/InsertionSort.sol\":578:642  while(i< 10){... */\n      iszero\n      tag_59\n      jumpi\n        /* \"10_InsertionSort/InsertionSort.sol\":611:612  i */\n      dup1\n        /* \"10_InsertionSort/InsertionSort.sol\":605:612  sum +=i */\n      dup3\n      tag_60\n      swap2\n      swap1\n      tag_49\n      jump\t// in\n    tag_60:\n      swap2\n      pop\n        /* \"10_InsertionSort/InsertionSort.sol\":627:630  i++ */\n      dup1\n      dup1\n      tag_61\n      swap1\n      tag_51\n      jump\t// in\n    tag_61:\n      swap2\n      pop\n      pop\n        /* \"10_InsertionSort/InsertionSort.sol\":578:642  while(i< 10){... */\n      jump(tag_58)\n    tag_59:\n        /* \"10_InsertionSort/InsertionSort.sol\":659:662  sum */\n      dup2\n        /* \"10_InsertionSort/InsertionSort.sol\":652:663  return(sum) */\n      swap3\n      pop\n      pop\n      pop\n        /* \"10_InsertionSort/InsertionSort.sol\":475:671  function whileTest() public pure returns(uint256){... */\n      swap1\n      jump\t// out\n        /* \"10_InsertionSort/InsertionSort.sol\":108:284  function ifElseTest(uint256 _number) public pure returns(bool){... */\n    tag_29:\n        /* \"10_InsertionSort/InsertionSort.sol\":165:169  bool */\n      0x00\n        /* \"10_InsertionSort/InsertionSort.sol\":194:195  0 */\n      0x00\n        /* \"10_InsertionSort/InsertionSort.sol\":184:191  _number */\n      dup3\n        /* \"10_InsertionSort/InsertionSort.sol\":184:195  _number ==0 */\n      sub\n        /* \"10_InsertionSort/InsertionSort.sol\":181:277  if(_number ==0){... */\n      tag_63\n      jumpi\n        /* \"10_InsertionSort/InsertionSort.sol\":218:222  true */\n      0x01\n        /* \"10_InsertionSort/InsertionSort.sol\":211:222  return true */\n      swap1\n      pop\n      jump(tag_62)\n        /* \"10_InsertionSort/InsertionSort.sol\":181:277  if(_number ==0){... */\n    tag_63:\n        /* \"10_InsertionSort/InsertionSort.sol\":260:265  false */\n      0x00\n        /* \"10_InsertionSort/InsertionSort.sol\":253:265  return false */\n      swap1\n      pop\n        /* \"10_InsertionSort/InsertionSort.sol\":108:284  function ifElseTest(uint256 _number) public pure returns(bool){... */\n    tag_62:\n      swap2\n      swap1\n      pop\n      jump\t// out\n        /* \"10_InsertionSort/InsertionSort.sol\":1130:1516  function insertSort(uint[] memory arr) pure public returns( uint[] memory){... */\n    tag_35:\n        /* \"10_InsertionSort/InsertionSort.sol\":1190:1203  uint[] memory */\n      0x60\n        /* \"10_InsertionSort/InsertionSort.sol\":1220:1226  uint i */\n      0x00\n        /* \"10_InsertionSort/InsertionSort.sol\":1229:1230  1 */\n      0x01\n        /* \"10_InsertionSort/InsertionSort.sol\":1220:1230  uint i = 1 */\n      swap1\n      pop\n        /* \"10_InsertionSort/InsertionSort.sol\":1215:1488  for (uint i = 1; i < arr.length; i++) {... */\n    tag_66:\n        /* \"10_InsertionSort/InsertionSort.sol\":1236:1239  arr */\n      dup3\n        /* \"10_InsertionSort/InsertionSort.sol\":1236:1246  arr.length */\n      mload\n        /* \"10_InsertionSort/InsertionSort.sol\":1232:1233  i */\n      dup2\n        /* \"10_InsertionSort/InsertionSort.sol\":1232:1246  i < arr.length */\n      lt\n        /* \"10_InsertionSort/InsertionSort.sol\":1215:1488  for (uint i = 1; i < arr.length; i++) {... */\n      iszero\n      tag_67\n      jumpi\n        /* \"10_InsertionSort/InsertionSort.sol\":1268:1280  uint current */\n      0x00\n        /* \"10_InsertionSort/InsertionSort.sol\":1283:1286  arr */\n      dup4\n        /* \"10_InsertionSort/InsertionSort.sol\":1287:1288  i */\n      dup3\n        /* \"10_InsertionSort/InsertionSort.sol\":1283:1289  arr[i] */\n      dup2\n      mload\n      dup2\n      lt\n      tag_69\n      jumpi\n      tag_70\n      tag_71\n      jump\t// in\n    tag_70:\n    tag_69:\n      0x20\n      mul\n      0x20\n      add\n      add\n      mload\n        /* \"10_InsertionSort/InsertionSort.sol\":1268:1289  uint current = arr[i] */\n      swap1\n      pop\n        /* \"10_InsertionSort/InsertionSort.sol\":1304:1310  uint j */\n      0x00\n        /* \"10_InsertionSort/InsertionSort.sol\":1317:1318  1 */\n      0x01\n        /* \"10_InsertionSort/InsertionSort.sol\":1313:1314  i */\n      dup4\n        /* \"10_InsertionSort/InsertionSort.sol\":1313:1318  i - 1 */\n      tag_72\n      swap2\n      swap1\n      tag_73\n      jump\t// in\n    tag_72:\n        /* \"10_InsertionSort/InsertionSort.sol\":1304:1318  uint j = i - 1 */\n      swap1\n      pop\n        /* \"10_InsertionSort/InsertionSort.sol\":1335:1444  while (j >= 0 && arr[j] > current) {... */\n    tag_74:\n        /* \"10_InsertionSort/InsertionSort.sol\":1347:1348  0 */\n      0x00\n        /* \"10_InsertionSort/InsertionSort.sol\":1342:1343  j */\n      dup2\n        /* \"10_InsertionSort/InsertionSort.sol\":1342:1348  j >= 0 */\n      lt\n      iszero\n        /* \"10_InsertionSort/InsertionSort.sol\":1342:1368  j >= 0 && arr[j] > current */\n      dup1\n      iszero\n      tag_76\n      jumpi\n      pop\n        /* \"10_InsertionSort/InsertionSort.sol\":1361:1368  current */\n      dup2\n        /* \"10_InsertionSort/InsertionSort.sol\":1352:1355  arr */\n      dup6\n        /* \"10_InsertionSort/InsertionSort.sol\":1356:1357  j */\n      dup3\n        /* \"10_InsertionSort/InsertionSort.sol\":1352:1358  arr[j] */\n      dup2\n      mload\n      dup2\n      lt\n      tag_77\n      jumpi\n      tag_78\n      tag_71\n      jump\t// in\n    tag_78:\n    tag_77:\n      0x20\n      mul\n      0x20\n      add\n      add\n      mload\n        /* \"10_InsertionSort/InsertionSort.sol\":1352:1368  arr[j] > current */\n      gt\n        /* \"10_InsertionSort/InsertionSort.sol\":1342:1368  j >= 0 && arr[j] > current */\n    tag_76:\n        /* \"10_InsertionSort/InsertionSort.sol\":1335:1444  while (j >= 0 && arr[j] > current) {... */\n      iszero\n      tag_75\n      jumpi\n        /* \"10_InsertionSort/InsertionSort.sol\":1400:1403  arr */\n      dup5\n        /* \"10_InsertionSort/InsertionSort.sol\":1404:1405  j */\n      dup2\n        /* \"10_InsertionSort/InsertionSort.sol\":1400:1406  arr[j] */\n      dup2\n      mload\n      dup2\n      lt\n      tag_79\n      jumpi\n      tag_80\n      tag_71\n      jump\t// in\n    tag_80:\n    tag_79:\n      0x20\n      mul\n      0x20\n      add\n      add\n      mload\n        /* \"10_InsertionSort/InsertionSort.sol\":1389:1392  arr */\n      dup6\n        /* \"10_InsertionSort/InsertionSort.sol\":1395:1396  1 */\n      0x01\n        /* \"10_InsertionSort/InsertionSort.sol\":1393:1394  j */\n      dup4\n        /* \"10_InsertionSort/InsertionSort.sol\":1393:1396  j+1 */\n      tag_81\n      swap2\n      swap1\n      tag_49\n      jump\t// in\n    tag_81:\n        /* \"10_InsertionSort/InsertionSort.sol\":1389:1397  arr[j+1] */\n      dup2\n      mload\n      dup2\n      lt\n      tag_82\n      jumpi\n      tag_83\n      tag_71\n      jump\t// in\n    tag_83:\n    tag_82:\n      0x20\n      mul\n      0x20\n      add\n      add\n        /* \"10_InsertionSort/InsertionSort.sol\":1389:1406  arr[j+1] = arr[j] */\n      dup2\n      dup2\n      mstore\n      pop\n      pop\n        /* \"10_InsertionSort/InsertionSort.sol\":1425:1428  j-- */\n      dup1\n      dup1\n      tag_84\n      swap1\n      tag_85\n      jump\t// in\n    tag_84:\n      swap2\n      pop\n      pop\n        /* \"10_InsertionSort/InsertionSort.sol\":1335:1444  while (j >= 0 && arr[j] > current) {... */\n      jump(tag_74)\n    tag_75:\n        /* \"10_InsertionSort/InsertionSort.sol\":1469:1476  current */\n      dup2\n        /* \"10_InsertionSort/InsertionSort.sol\":1458:1461  arr */\n      dup6\n        /* \"10_InsertionSort/InsertionSort.sol\":1464:1465  1 */\n      0x01\n        /* \"10_InsertionSort/InsertionSort.sol\":1462:1463  j */\n      dup4\n        /* \"10_InsertionSort/InsertionSort.sol\":1462:1465  j+1 */\n      tag_86\n      swap2\n      swap1\n      tag_49\n      jump\t// in\n    tag_86:\n        /* \"10_InsertionSort/InsertionSort.sol\":1458:1466  arr[j+1] */\n      dup2\n      mload\n      dup2\n      lt\n      tag_87\n      jumpi\n      tag_88\n      tag_71\n      jump\t// in\n    tag_88:\n    tag_87:\n      0x20\n      mul\n      0x20\n      add\n      add\n        /* \"10_InsertionSort/InsertionSort.sol\":1458:1476  arr[j+1] = current */\n      dup2\n      dup2\n      mstore\n      pop\n      pop\n        /* \"10_InsertionSort/InsertionSort.sol\":1253:1488  {... */\n      pop\n      pop\n        /* \"10_InsertionSort/InsertionSort.sol\":1248:1251  i++ */\n      dup1\n      dup1\n      0x01\n      add\n      swap2\n      pop\n      pop\n        /* \"10_InsertionSort/InsertionSort.sol\":1215:1488  for (uint i = 1; i < arr.length; i++) {... */\n      jump(tag_66)\n    tag_67:\n      pop\n        /* \"10_InsertionSort/InsertionSort.sol\":1505:1508  arr */\n      dup2\n        /* \"10_InsertionSort/InsertionSort.sol\":1498:1508  return arr */\n      swap1\n      pop\n        /* \"10_InsertionSort/InsertionSort.sol\":1130:1516  function insertSort(uint[] memory arr) pure public returns( uint[] memory){... */\n      swap2\n      swap1\n      pop\n      jump\t// out\n        /* \"10_InsertionSort/InsertionSort.sol\":1547:1930  function insertSort2(uint[] memory arr) pure public returns( uint[] memory){... */\n    tag_40:\n        /* \"10_InsertionSort/InsertionSort.sol\":1608:1621  uint[] memory */\n      0x60\n        /* \"10_InsertionSort/InsertionSort.sol\":1638:1644  uint i */\n      0x00\n        /* \"10_InsertionSort/InsertionSort.sol\":1647:1648  1 */\n      0x01\n        /* \"10_InsertionSort/InsertionSort.sol\":1638:1648  uint i = 1 */\n      swap1\n      pop\n        /* \"10_InsertionSort/InsertionSort.sol\":1633:1902  for (uint i = 1; i < arr.length; i++) {... */\n    tag_90:\n        /* \"10_InsertionSort/InsertionSort.sol\":1654:1657  arr */\n      dup3\n        /* \"10_InsertionSort/InsertionSort.sol\":1654:1664  arr.length */\n      mload\n        /* \"10_InsertionSort/InsertionSort.sol\":1650:1651  i */\n      dup2\n        /* \"10_InsertionSort/InsertionSort.sol\":1650:1664  i < arr.length */\n      lt\n        /* \"10_InsertionSort/InsertionSort.sol\":1633:1902  for (uint i = 1; i < arr.length; i++) {... */\n      iszero\n      tag_91\n      jumpi\n        /* \"10_InsertionSort/InsertionSort.sol\":1686:1698  uint current */\n      0x00\n        /* \"10_InsertionSort/InsertionSort.sol\":1701:1704  arr */\n      dup4\n        /* \"10_InsertionSort/InsertionSort.sol\":1705:1706  i */\n      dup3\n        /* \"10_InsertionSort/InsertionSort.sol\":1701:1707  arr[i] */\n      dup2\n      mload\n      dup2\n      lt\n      tag_93\n      jumpi\n      tag_94\n      tag_71\n      jump\t// in\n    tag_94:\n    tag_93:\n      0x20\n      mul\n      0x20\n      add\n      add\n      mload\n        /* \"10_InsertionSort/InsertionSort.sol\":1686:1707  uint current = arr[i] */\n      swap1\n      pop\n        /* \"10_InsertionSort/InsertionSort.sol\":1722:1728  uint j */\n      0x00\n        /* \"10_InsertionSort/InsertionSort.sol\":1731:1732  i */\n      dup3\n        /* \"10_InsertionSort/InsertionSort.sol\":1722:1732  uint j = i */\n      swap1\n      pop\n        /* \"10_InsertionSort/InsertionSort.sol\":1749:1860  while (j > 0 && arr[j-1]  > current) {... */\n    tag_95:\n        /* \"10_InsertionSort/InsertionSort.sol\":1760:1761  0 */\n      0x00\n        /* \"10_InsertionSort/InsertionSort.sol\":1756:1757  j */\n      dup2\n        /* \"10_InsertionSort/InsertionSort.sol\":1756:1761  j > 0 */\n      gt\n        /* \"10_InsertionSort/InsertionSort.sol\":1756:1784  j > 0 && arr[j-1]  > current */\n      dup1\n      iszero\n      tag_97\n      jumpi\n      pop\n        /* \"10_InsertionSort/InsertionSort.sol\":1777:1784  current */\n      dup2\n        /* \"10_InsertionSort/InsertionSort.sol\":1765:1768  arr */\n      dup6\n        /* \"10_InsertionSort/InsertionSort.sol\":1771:1772  1 */\n      0x01\n        /* \"10_InsertionSort/InsertionSort.sol\":1769:1770  j */\n      dup4\n        /* \"10_InsertionSort/InsertionSort.sol\":1769:1772  j-1 */\n      tag_98\n      swap2\n      swap1\n      tag_73\n      jump\t// in\n    tag_98:\n        /* \"10_InsertionSort/InsertionSort.sol\":1765:1773  arr[j-1] */\n      dup2\n      mload\n      dup2\n      lt\n      tag_99\n      jumpi\n      tag_100\n      tag_71\n      jump\t// in\n    tag_100:\n    tag_99:\n      0x20\n      mul\n      0x20\n      add\n      add\n      mload\n        /* \"10_InsertionSort/InsertionSort.sol\":1765:1784  arr[j-1]  > current */\n      gt\n        /* \"10_InsertionSort/InsertionSort.sol\":1756:1784  j > 0 && arr[j-1]  > current */\n    tag_97:\n        /* \"10_InsertionSort/InsertionSort.sol\":1749:1860  while (j > 0 && arr[j-1]  > current) {... */\n      iszero\n      tag_96\n      jumpi\n        /* \"10_InsertionSort/InsertionSort.sol\":1814:1817  arr */\n      dup5\n        /* \"10_InsertionSort/InsertionSort.sol\":1820:1821  1 */\n      0x01\n        /* \"10_InsertionSort/InsertionSort.sol\":1818:1819  j */\n      dup3\n        /* \"10_InsertionSort/InsertionSort.sol\":1818:1821  j-1 */\n      tag_101\n      swap2\n      swap1\n      tag_73\n      jump\t// in\n    tag_101:\n        /* \"10_InsertionSort/InsertionSort.sol\":1814:1822  arr[j-1] */\n      dup2\n      mload\n      dup2\n      lt\n      tag_102\n      jumpi\n      tag_103\n      tag_71\n      jump\t// in\n    tag_103:\n    tag_102:\n      0x20\n      mul\n      0x20\n      add\n      add\n      mload\n        /* \"10_InsertionSort/InsertionSort.sol\":1805:1808  arr */\n      dup6\n        /* \"10_InsertionSort/InsertionSort.sol\":1809:1810  j */\n      dup3\n        /* \"10_InsertionSort/InsertionSort.sol\":1805:1811  arr[j] */\n      dup2\n      mload\n      dup2\n      lt\n      tag_104\n      jumpi\n      tag_105\n      tag_71\n      jump\t// in\n    tag_105:\n    tag_104:\n      0x20\n      mul\n      0x20\n      add\n      add\n        /* \"10_InsertionSort/InsertionSort.sol\":1805:1822  arr[j] = arr[j-1] */\n      dup2\n      dup2\n      mstore\n      pop\n      pop\n        /* \"10_InsertionSort/InsertionSort.sol\":1841:1844  j-- */\n      dup1\n      dup1\n      tag_106\n      swap1\n      tag_85\n      jump\t// in\n    tag_106:\n      swap2\n      pop\n      pop\n        /* \"10_InsertionSort/InsertionSort.sol\":1749:1860  while (j > 0 && arr[j-1]  > current) {... */\n      jump(tag_95)\n    tag_96:\n        /* \"10_InsertionSort/InsertionSort.sol\":1883:1890  current */\n      dup2\n        /* \"10_InsertionSort/InsertionSort.sol\":1874:1877  arr */\n      dup6\n        /* \"10_InsertionSort/InsertionSort.sol\":1878:1879  j */\n      dup3\n        /* \"10_InsertionSort/InsertionSort.sol\":1874:1880  arr[j] */\n      dup2\n      mload\n      dup2\n      lt\n      tag_107\n      jumpi\n      tag_108\n      tag_71\n      jump\t// in\n    tag_108:\n    tag_107:\n      0x20\n      mul\n      0x20\n      add\n      add\n        /* \"10_InsertionSort/InsertionSort.sol\":1874:1890  arr[j] = current */\n      dup2\n      dup2\n      mstore\n      pop\n      pop\n        /* \"10_InsertionSort/InsertionSort.sol\":1671:1902  {... */\n      pop\n      pop\n        /* \"10_InsertionSort/InsertionSort.sol\":1666:1669  i++ */\n      dup1\n      dup1\n      0x01\n      add\n      swap2\n      pop\n      pop\n        /* \"10_InsertionSort/InsertionSort.sol\":1633:1902  for (uint i = 1; i < arr.length; i++) {... */\n      jump(tag_90)\n    tag_91:\n      pop\n        /* \"10_InsertionSort/InsertionSort.sol\":1919:1922  arr */\n      dup2\n        /* \"10_InsertionSort/InsertionSort.sol\":1912:1922  return arr */\n      swap1\n      pop\n        /* \"10_InsertionSort/InsertionSort.sol\":1547:1930  function insertSort2(uint[] memory arr) pure public returns( uint[] memory){... */\n      swap2\n      swap1\n      pop\n      jump\t// out\n        /* \"#utility.yul\":7:82   */\n    tag_109:\n        /* \"#utility.yul\":40:46   */\n      0x00\n        /* \"#utility.yul\":73:75   */\n      0x40\n        /* \"#utility.yul\":67:76   */\n      mload\n        /* \"#utility.yul\":57:76   */\n      swap1\n      pop\n        /* \"#utility.yul\":7:82   */\n      swap1\n      jump\t// out\n        /* \"#utility.yul\":88:205   */\n    tag_110:\n        /* \"#utility.yul\":197:198   */\n      0x00\n        /* \"#utility.yul\":194:195   */\n      0x00\n        /* \"#utility.yul\":187:199   */\n      revert\n        /* \"#utility.yul\":211:328   */\n    tag_111:\n        /* \"#utility.yul\":320:321   */\n      0x00\n        /* \"#utility.yul\":317:318   */\n      0x00\n        /* \"#utility.yul\":310:322   */\n      revert\n        /* \"#utility.yul\":334:411   */\n    tag_112:\n        /* \"#utility.yul\":371:378   */\n      0x00\n        /* \"#utility.yul\":400:405   */\n      dup2\n        /* \"#utility.yul\":389:405   */\n      swap1\n      pop\n        /* \"#utility.yul\":334:411   */\n      swap2\n      swap1\n      pop\n      jump\t// out\n        /* \"#utility.yul\":417:539   */\n    tag_113:\n        /* \"#utility.yul\":490:514   */\n      tag_141\n        /* \"#utility.yul\":508:513   */\n      dup2\n        /* \"#utility.yul\":490:514   */\n      tag_112\n      jump\t// in\n    tag_141:\n        /* \"#utility.yul\":483:488   */\n      dup2\n        /* \"#utility.yul\":480:515   */\n      eq\n        /* \"#utility.yul\":470:533   */\n      tag_142\n      jumpi\n        /* \"#utility.yul\":529:530   */\n      0x00\n        /* \"#utility.yul\":526:527   */\n      0x00\n        /* \"#utility.yul\":519:531   */\n      revert\n        /* \"#utility.yul\":470:533   */\n    tag_142:\n        /* \"#utility.yul\":417:539   */\n      pop\n      jump\t// out\n        /* \"#utility.yul\":545:684   */\n    tag_114:\n        /* \"#utility.yul\":591:596   */\n      0x00\n        /* \"#utility.yul\":629:635   */\n      dup2\n        /* \"#utility.yul\":616:636   */\n      calldataload\n        /* \"#utility.yul\":607:636   */\n      swap1\n      pop\n        /* \"#utility.yul\":645:678   */\n      tag_144\n        /* \"#utility.yul\":672:677   */\n      dup2\n        /* \"#utility.yul\":645:678   */\n      tag_113\n      jump\t// in\n    tag_144:\n        /* \"#utility.yul\":545:684   */\n      swap3\n      swap2\n      pop\n      pop\n      jump\t// out\n        /* \"#utility.yul\":690:1164   */\n    tag_13:\n        /* \"#utility.yul\":758:764   */\n      0x00\n        /* \"#utility.yul\":766:772   */\n      0x00\n        /* \"#utility.yul\":815:817   */\n      0x40\n        /* \"#utility.yul\":803:812   */\n      dup4\n        /* \"#utility.yul\":794:801   */\n      dup6\n        /* \"#utility.yul\":790:813   */\n      sub\n        /* \"#utility.yul\":786:818   */\n      slt\n        /* \"#utility.yul\":783:902   */\n      iszero\n      tag_146\n      jumpi\n        /* \"#utility.yul\":821:900   */\n      tag_147\n      tag_110\n      jump\t// in\n    tag_147:\n        /* \"#utility.yul\":783:902   */\n    tag_146:\n        /* \"#utility.yul\":941:942   */\n      0x00\n        /* \"#utility.yul\":966:1019   */\n      tag_148\n        /* \"#utility.yul\":1011:1018   */\n      dup6\n        /* \"#utility.yul\":1002:1008   */\n      dup3\n        /* \"#utility.yul\":991:1000   */\n      dup7\n        /* \"#utility.yul\":987:1009   */\n      add\n        /* \"#utility.yul\":966:1019   */\n      tag_114\n      jump\t// in\n    tag_148:\n        /* \"#utility.yul\":956:1019   */\n      swap3\n      pop\n        /* \"#utility.yul\":912:1029   */\n      pop\n        /* \"#utility.yul\":1068:1070   */\n      0x20\n        /* \"#utility.yul\":1094:1147   */\n      tag_149\n        /* \"#utility.yul\":1139:1146   */\n      dup6\n        /* \"#utility.yul\":1130:1136   */\n      dup3\n        /* \"#utility.yul\":1119:1128   */\n      dup7\n        /* \"#utility.yul\":1115:1137   */\n      add\n        /* \"#utility.yul\":1094:1147   */\n      tag_114\n      jump\t// in\n    tag_149:\n        /* \"#utility.yul\":1084:1147   */\n      swap2\n      pop\n        /* \"#utility.yul\":1039:1157   */\n      pop\n        /* \"#utility.yul\":690:1164   */\n      swap3\n      pop\n      swap3\n      swap1\n      pop\n      jump\t// out\n        /* \"#utility.yul\":1170:1288   */\n    tag_115:\n        /* \"#utility.yul\":1257:1281   */\n      tag_151\n        /* \"#utility.yul\":1275:1280   */\n      dup2\n        /* \"#utility.yul\":1257:1281   */\n      tag_112\n      jump\t// in\n    tag_151:\n        /* \"#utility.yul\":1252:1255   */\n      dup3\n        /* \"#utility.yul\":1245:1282   */\n      mstore\n        /* \"#utility.yul\":1170:1288   */\n      pop\n      pop\n      jump\t// out\n        /* \"#utility.yul\":1294:1516   */\n    tag_16:\n        /* \"#utility.yul\":1387:1391   */\n      0x00\n        /* \"#utility.yul\":1425:1427   */\n      0x20\n        /* \"#utility.yul\":1414:1423   */\n      dup3\n        /* \"#utility.yul\":1410:1428   */\n      add\n        /* \"#utility.yul\":1402:1428   */\n      swap1\n      pop\n        /* \"#utility.yul\":1438:1509   */\n      tag_153\n        /* \"#utility.yul\":1506:1507   */\n      0x00\n        /* \"#utility.yul\":1495:1504   */\n      dup4\n        /* \"#utility.yul\":1491:1508   */\n      add\n        /* \"#utility.yul\":1482:1488   */\n      dup5\n        /* \"#utility.yul\":1438:1509   */\n      tag_115\n      jump\t// in\n    tag_153:\n        /* \"#utility.yul\":1294:1516   */\n      swap3\n      swap2\n      pop\n      pop\n      jump\t// out\n        /* \"#utility.yul\":1522:1851   */\n    tag_28:\n        /* \"#utility.yul\":1581:1587   */\n      0x00\n        /* \"#utility.yul\":1630:1632   */\n      0x20\n        /* \"#utility.yul\":1618:1627   */\n      dup3\n        /* \"#utility.yul\":1609:1616   */\n      dup5\n        /* \"#utility.yul\":1605:1628   */\n      sub\n        /* \"#utility.yul\":1601:1633   */\n      slt\n        /* \"#utility.yul\":1598:1717   */\n      iszero\n      tag_155\n      jumpi\n        /* \"#utility.yul\":1636:1715   */\n      tag_156\n      tag_110\n      jump\t// in\n    tag_156:\n        /* \"#utility.yul\":1598:1717   */\n    tag_155:\n        /* \"#utility.yul\":1756:1757   */\n      0x00\n        /* \"#utility.yul\":1781:1834   */\n      tag_157\n        /* \"#utility.yul\":1826:1833   */\n      dup5\n        /* \"#utility.yul\":1817:1823   */\n      dup3\n        /* \"#utility.yul\":1806:1815   */\n      dup6\n        /* \"#utility.yul\":1802:1824   */\n      add\n        /* \"#utility.yul\":1781:1834   */\n      tag_114\n      jump\t// in\n    tag_157:\n        /* \"#utility.yul\":1771:1834   */\n      swap2\n      pop\n        /* \"#utility.yul\":1727:1844   */\n      pop\n        /* \"#utility.yul\":1522:1851   */\n      swap3\n      swap2\n      pop\n      pop\n      jump\t// out\n        /* \"#utility.yul\":1857:1947   */\n    tag_116:\n        /* \"#utility.yul\":1891:1898   */\n      0x00\n        /* \"#utility.yul\":1934:1939   */\n      dup2\n        /* \"#utility.yul\":1927:1940   */\n      iszero\n        /* \"#utility.yul\":1920:1941   */\n      iszero\n        /* \"#utility.yul\":1909:1941   */\n      swap1\n      pop\n        /* \"#utility.yul\":1857:1947   */\n      swap2\n      swap1\n      pop\n      jump\t// out\n        /* \"#utility.yul\":1953:2062   */\n    tag_117:\n        /* \"#utility.yul\":2034:2055   */\n      tag_160\n        /* \"#utility.yul\":2049:2054   */\n      dup2\n        /* \"#utility.yul\":2034:2055   */\n      tag_116\n      jump\t// in\n    tag_160:\n        /* \"#utility.yul\":2029:2032   */\n      dup3\n        /* \"#utility.yul\":2022:2056   */\n      mstore\n        /* \"#utility.yul\":1953:2062   */\n      pop\n      pop\n      jump\t// out\n        /* \"#utility.yul\":2068:2278   */\n    tag_31:\n        /* \"#utility.yul\":2155:2159   */\n      0x00\n        /* \"#utility.yul\":2193:2195   */\n      0x20\n        /* \"#utility.yul\":2182:2191   */\n      dup3\n        /* \"#utility.yul\":2178:2196   */\n      add\n        /* \"#utility.yul\":2170:2196   */\n      swap1\n      pop\n        /* \"#utility.yul\":2206:2271   */\n      tag_162\n        /* \"#utility.yul\":2268:2269   */\n      0x00\n        /* \"#utility.yul\":2257:2266   */\n      dup4\n        /* \"#utility.yul\":2253:2270   */\n      add\n        /* \"#utility.yul\":2244:2250   */\n      dup5\n        /* \"#utility.yul\":2206:2271   */\n      tag_117\n      jump\t// in\n    tag_162:\n        /* \"#utility.yul\":2068:2278   */\n      swap3\n      swap2\n      pop\n      pop\n      jump\t// out\n        /* \"#utility.yul\":2284:2401   */\n    tag_118:\n        /* \"#utility.yul\":2393:2394   */\n      0x00\n        /* \"#utility.yul\":2390:2391   */\n      0x00\n        /* \"#utility.yul\":2383:2395   */\n      revert\n        /* \"#utility.yul\":2407:2509   */\n    tag_119:\n        /* \"#utility.yul\":2448:2454   */\n      0x00\n        /* \"#utility.yul\":2499:2501   */\n      0x1f\n        /* \"#utility.yul\":2495:2502   */\n      not\n        /* \"#utility.yul\":2490:2492   */\n      0x1f\n        /* \"#utility.yul\":2483:2488   */\n      dup4\n        /* \"#utility.yul\":2479:2493   */\n      add\n        /* \"#utility.yul\":2475:2503   */\n      and\n        /* \"#utility.yul\":2465:2503   */\n      swap1\n      pop\n        /* \"#utility.yul\":2407:2509   */\n      swap2\n      swap1\n      pop\n      jump\t// out\n        /* \"#utility.yul\":2515:2695   */\n    tag_120:\n        /* \"#utility.yul\":2563:2640   */\n      0x4e487b7100000000000000000000000000000000000000000000000000000000\n        /* \"#utility.yul\":2560:2561   */\n      0x00\n        /* \"#utility.yul\":2553:2641   */\n      mstore\n        /* \"#utility.yul\":2660:2664   */\n      0x41\n        /* \"#utility.yul\":2657:2658   */\n      0x04\n        /* \"#utility.yul\":2650:2665   */\n      mstore\n        /* \"#utility.yul\":2684:2688   */\n      0x24\n        /* \"#utility.yul\":2681:2682   */\n      0x00\n        /* \"#utility.yul\":2674:2689   */\n      revert\n        /* \"#utility.yul\":2701:2982   */\n    tag_121:\n        /* \"#utility.yul\":2784:2811   */\n      tag_167\n        /* \"#utility.yul\":2806:2810   */\n      dup3\n        /* \"#utility.yul\":2784:2811   */\n      tag_119\n      jump\t// in\n    tag_167:\n        /* \"#utility.yul\":2776:2782   */\n      dup2\n        /* \"#utility.yul\":2772:2812   */\n      add\n        /* \"#utility.yul\":2914:2920   */\n      dup2\n        /* \"#utility.yul\":2902:2912   */\n      dup2\n        /* \"#utility.yul\":2899:2921   */\n      lt\n        /* \"#utility.yul\":2878:2896   */\n      0xffffffffffffffff\n        /* \"#utility.yul\":2866:2876   */\n      dup3\n        /* \"#utility.yul\":2863:2897   */\n      gt\n        /* \"#utility.yul\":2860:2922   */\n      or\n        /* \"#utility.yul\":2857:2945   */\n      iszero\n      tag_168\n      jumpi\n        /* \"#utility.yul\":2925:2943   */\n      tag_169\n      tag_120\n      jump\t// in\n    tag_169:\n        /* \"#utility.yul\":2857:2945   */\n    tag_168:\n        /* \"#utility.yul\":2965:2975   */\n      dup1\n        /* \"#utility.yul\":2961:2963   */\n      0x40\n        /* \"#utility.yul\":2954:2976   */\n      mstore\n        /* \"#utility.yul\":2744:2982   */\n      pop\n        /* \"#utility.yul\":2701:2982   */\n      pop\n      pop\n      jump\t// out\n        /* \"#utility.yul\":2988:3117   */\n    tag_122:\n        /* \"#utility.yul\":3022:3028   */\n      0x00\n        /* \"#utility.yul\":3049:3069   */\n      tag_171\n      tag_109\n      jump\t// in\n    tag_171:\n        /* \"#utility.yul\":3039:3069   */\n      swap1\n      pop\n        /* \"#utility.yul\":3078:3111   */\n      tag_172\n        /* \"#utility.yul\":3106:3110   */\n      dup3\n        /* \"#utility.yul\":3098:3104   */\n      dup3\n        /* \"#utility.yul\":3078:3111   */\n      tag_121\n      jump\t// in\n    tag_172:\n        /* \"#utility.yul\":2988:3117   */\n      swap2\n      swap1\n      pop\n      jump\t// out\n        /* \"#utility.yul\":3123:3434   */\n    tag_123:\n        /* \"#utility.yul\":3200:3204   */\n      0x00\n        /* \"#utility.yul\":3290:3308   */\n      0xffffffffffffffff\n        /* \"#utility.yul\":3282:3288   */\n      dup3\n        /* \"#utility.yul\":3279:3309   */\n      gt\n        /* \"#utility.yul\":3276:3332   */\n      iszero\n      tag_174\n      jumpi\n        /* \"#utility.yul\":3312:3330   */\n      tag_175\n      tag_120\n      jump\t// in\n    tag_175:\n        /* \"#utility.yul\":3276:3332   */\n    tag_174:\n        /* \"#utility.yul\":3362:3366   */\n      0x20\n        /* \"#utility.yul\":3354:3360   */\n      dup3\n        /* \"#utility.yul\":3350:3367   */\n      mul\n        /* \"#utility.yul\":3342:3367   */\n      swap1\n      pop\n        /* \"#utility.yul\":3422:3426   */\n      0x20\n        /* \"#utility.yul\":3416:3420   */\n      dup2\n        /* \"#utility.yul\":3412:3427   */\n      add\n        /* \"#utility.yul\":3404:3427   */\n      swap1\n      pop\n        /* \"#utility.yul\":3123:3434   */\n      swap2\n      swap1\n      pop\n      jump\t// out\n        /* \"#utility.yul\":3440:3557   */\n    tag_124:\n        /* \"#utility.yul\":3549:3550   */\n      0x00\n        /* \"#utility.yul\":3546:3547   */\n      0x00\n        /* \"#utility.yul\":3539:3551   */\n      revert\n        /* \"#utility.yul\":3580:4290   */\n    tag_125:\n        /* \"#utility.yul\":3676:3681   */\n      0x00\n        /* \"#utility.yul\":3701:3782   */\n      tag_178\n        /* \"#utility.yul\":3717:3781   */\n      tag_179\n        /* \"#utility.yul\":3774:3780   */\n      dup5\n        /* \"#utility.yul\":3717:3781   */\n      tag_123\n      jump\t// in\n    tag_179:\n        /* \"#utility.yul\":3701:3782   */\n      tag_122\n      jump\t// in\n    tag_178:\n        /* \"#utility.yul\":3692:3782   */\n      swap1\n      pop\n        /* \"#utility.yul\":3802:3807   */\n      dup1\n        /* \"#utility.yul\":3831:3837   */\n      dup4\n        /* \"#utility.yul\":3824:3829   */\n      dup3\n        /* \"#utility.yul\":3817:3838   */\n      mstore\n        /* \"#utility.yul\":3865:3869   */\n      0x20\n        /* \"#utility.yul\":3858:3863   */\n      dup3\n        /* \"#utility.yul\":3854:3870   */\n      add\n        /* \"#utility.yul\":3847:3870   */\n      swap1\n      pop\n        /* \"#utility.yul\":3918:3922   */\n      0x20\n        /* \"#utility.yul\":3910:3916   */\n      dup5\n        /* \"#utility.yul\":3906:3923   */\n      mul\n        /* \"#utility.yul\":3898:3904   */\n      dup4\n        /* \"#utility.yul\":3894:3924   */\n      add\n        /* \"#utility.yul\":3947:3950   */\n      dup6\n        /* \"#utility.yul\":3939:3945   */\n      dup2\n        /* \"#utility.yul\":3936:3951   */\n      gt\n        /* \"#utility.yul\":3933:4055   */\n      iszero\n      tag_180\n      jumpi\n        /* \"#utility.yul\":3966:4045   */\n      tag_181\n      tag_124\n      jump\t// in\n    tag_181:\n        /* \"#utility.yul\":3933:4055   */\n    tag_180:\n        /* \"#utility.yul\":4081:4087   */\n      dup4\n        /* \"#utility.yul\":4064:4284   */\n    tag_182:\n        /* \"#utility.yul\":4098:4104   */\n      dup2\n        /* \"#utility.yul\":4093:4096   */\n      dup2\n        /* \"#utility.yul\":4090:4105   */\n      lt\n        /* \"#utility.yul\":4064:4284   */\n      iszero\n      tag_184\n      jumpi\n        /* \"#utility.yul\":4173:4176   */\n      dup1\n        /* \"#utility.yul\":4202:4239   */\n      tag_185\n        /* \"#utility.yul\":4235:4238   */\n      dup9\n        /* \"#utility.yul\":4223:4233   */\n      dup3\n        /* \"#utility.yul\":4202:4239   */\n      tag_114\n      jump\t// in\n    tag_185:\n        /* \"#utility.yul\":4197:4200   */\n      dup5\n        /* \"#utility.yul\":4190:4240   */\n      mstore\n        /* \"#utility.yul\":4269:4273   */\n      0x20\n        /* \"#utility.yul\":4264:4267   */\n      dup5\n        /* \"#utility.yul\":4260:4274   */\n      add\n        /* \"#utility.yul\":4253:4274   */\n      swap4\n      pop\n        /* \"#utility.yul\":4140:4284   */\n      pop\n        /* \"#utility.yul\":4124:4128   */\n      0x20\n        /* \"#utility.yul\":4119:4122   */\n      dup2\n        /* \"#utility.yul\":4115:4129   */\n      add\n        /* \"#utility.yul\":4108:4129   */\n      swap1\n      pop\n        /* \"#utility.yul\":4064:4284   */\n      jump(tag_182)\n    tag_184:\n        /* \"#utility.yul\":4068:4089   */\n      pop\n        /* \"#utility.yul\":3682:4290   */\n      pop\n      pop\n        /* \"#utility.yul\":3580:4290   */\n      swap4\n      swap3\n      pop\n      pop\n      pop\n      jump\t// out\n        /* \"#utility.yul\":4313:4683   */\n    tag_126:\n        /* \"#utility.yul\":4384:4389   */\n      0x00\n        /* \"#utility.yul\":4433:4436   */\n      dup3\n        /* \"#utility.yul\":4426:4430   */\n      0x1f\n        /* \"#utility.yul\":4418:4424   */\n      dup4\n        /* \"#utility.yul\":4414:4431   */\n      add\n        /* \"#utility.yul\":4410:4437   */\n      slt\n        /* \"#utility.yul\":4400:4522   */\n      tag_187\n      jumpi\n        /* \"#utility.yul\":4441:4520   */\n      tag_188\n      tag_118\n      jump\t// in\n    tag_188:\n        /* \"#utility.yul\":4400:4522   */\n    tag_187:\n        /* \"#utility.yul\":4558:4564   */\n      dup2\n        /* \"#utility.yul\":4545:4565   */\n      calldataload\n        /* \"#utility.yul\":4583:4677   */\n      tag_189\n        /* \"#utility.yul\":4673:4676   */\n      dup5\n        /* \"#utility.yul\":4665:4671   */\n      dup3\n        /* \"#utility.yul\":4658:4662   */\n      0x20\n        /* \"#utility.yul\":4650:4656   */\n      dup7\n        /* \"#utility.yul\":4646:4663   */\n      add\n        /* \"#utility.yul\":4583:4677   */\n      tag_125\n      jump\t// in\n    tag_189:\n        /* \"#utility.yul\":4574:4677   */\n      swap2\n      pop\n        /* \"#utility.yul\":4390:4683   */\n      pop\n        /* \"#utility.yul\":4313:4683   */\n      swap3\n      swap2\n      pop\n      pop\n      jump\t// out\n        /* \"#utility.yul\":4689:5228   */\n    tag_34:\n        /* \"#utility.yul\":4773:4779   */\n      0x00\n        /* \"#utility.yul\":4822:4824   */\n      0x20\n        /* \"#utility.yul\":4810:4819   */\n      dup3\n        /* \"#utility.yul\":4801:4808   */\n      dup5\n        /* \"#utility.yul\":4797:4820   */\n      sub\n        /* \"#utility.yul\":4793:4825   */\n      slt\n        /* \"#utility.yul\":4790:4909   */\n      iszero\n      tag_191\n      jumpi\n        /* \"#utility.yul\":4828:4907   */\n      tag_192\n      tag_110\n      jump\t// in\n    tag_192:\n        /* \"#utility.yul\":4790:4909   */\n    tag_191:\n        /* \"#utility.yul\":4976:4977   */\n      0x00\n        /* \"#utility.yul\":4965:4974   */\n      dup3\n        /* \"#utility.yul\":4961:4978   */\n      add\n        /* \"#utility.yul\":4948:4979   */\n      calldataload\n        /* \"#utility.yul\":5006:5024   */\n      0xffffffffffffffff\n        /* \"#utility.yul\":4998:5004   */\n      dup2\n        /* \"#utility.yul\":4995:5025   */\n      gt\n        /* \"#utility.yul\":4992:5109   */\n      iszero\n      tag_193\n      jumpi\n        /* \"#utility.yul\":5028:5107   */\n      tag_194\n      tag_111\n      jump\t// in\n    tag_194:\n        /* \"#utility.yul\":4992:5109   */\n    tag_193:\n        /* \"#utility.yul\":5133:5211   */\n      tag_195\n        /* \"#utility.yul\":5203:5210   */\n      dup5\n        /* \"#utility.yul\":5194:5200   */\n      dup3\n        /* \"#utility.yul\":5183:5192   */\n      dup6\n        /* \"#utility.yul\":5179:5201   */\n      add\n        /* \"#utility.yul\":5133:5211   */\n      tag_126\n      jump\t// in\n    tag_195:\n        /* \"#utility.yul\":5123:5211   */\n      swap2\n      pop\n        /* \"#utility.yul\":4919:5221   */\n      pop\n        /* \"#utility.yul\":4689:5228   */\n      swap3\n      swap2\n      pop\n      pop\n      jump\t// out\n        /* \"#utility.yul\":5234:5348   */\n    tag_127:\n        /* \"#utility.yul\":5301:5307   */\n      0x00\n        /* \"#utility.yul\":5335:5340   */\n      dup2\n        /* \"#utility.yul\":5329:5341   */\n      mload\n        /* \"#utility.yul\":5319:5341   */\n      swap1\n      pop\n        /* \"#utility.yul\":5234:5348   */\n      swap2\n      swap1\n      pop\n      jump\t// out\n        /* \"#utility.yul\":5354:5538   */\n    tag_128:\n        /* \"#utility.yul\":5453:5464   */\n      0x00\n        /* \"#utility.yul\":5487:5493   */\n      dup3\n        /* \"#utility.yul\":5482:5485   */\n      dup3\n        /* \"#utility.yul\":5475:5494   */\n      mstore\n        /* \"#utility.yul\":5527:5531   */\n      0x20\n        /* \"#utility.yul\":5522:5525   */\n      dup3\n        /* \"#utility.yul\":5518:5532   */\n      add\n        /* \"#utility.yul\":5503:5532   */\n      swap1\n      pop\n        /* \"#utility.yul\":5354:5538   */\n      swap3\n      swap2\n      pop\n      pop\n      jump\t// out\n        /* \"#utility.yul\":5544:5676   */\n    tag_129:\n        /* \"#utility.yul\":5611:5615   */\n      0x00\n        /* \"#utility.yul\":5634:5637   */\n      dup2\n        /* \"#utility.yul\":5626:5637   */\n      swap1\n      pop\n        /* \"#utility.yul\":5664:5668   */\n      0x20\n        /* \"#utility.yul\":5659:5662   */\n      dup3\n        /* \"#utility.yul\":5655:5669   */\n      add\n        /* \"#utility.yul\":5647:5669   */\n      swap1\n      pop\n        /* \"#utility.yul\":5544:5676   */\n      swap2\n      swap1\n      pop\n      jump\t// out\n        /* \"#utility.yul\":5682:5790   */\n    tag_130:\n        /* \"#utility.yul\":5759:5783   */\n      tag_200\n        /* \"#utility.yul\":5777:5782   */\n      dup2\n        /* \"#utility.yul\":5759:5783   */\n      tag_112\n      jump\t// in\n    tag_200:\n        /* \"#utility.yul\":5754:5757   */\n      dup3\n        /* \"#utility.yul\":5747:5784   */\n      mstore\n        /* \"#utility.yul\":5682:5790   */\n      pop\n      pop\n      jump\t// out\n        /* \"#utility.yul\":5796:5975   */\n    tag_131:\n        /* \"#utility.yul\":5865:5875   */\n      0x00\n        /* \"#utility.yul\":5886:5932   */\n      tag_202\n        /* \"#utility.yul\":5928:5931   */\n      dup4\n        /* \"#utility.yul\":5920:5926   */\n      dup4\n        /* \"#utility.yul\":5886:5932   */\n      tag_130\n      jump\t// in\n    tag_202:\n        /* \"#utility.yul\":5964:5968   */\n      0x20\n        /* \"#utility.yul\":5959:5962   */\n      dup4\n        /* \"#utility.yul\":5955:5969   */\n      add\n        /* \"#utility.yul\":5941:5969   */\n      swap1\n      pop\n        /* \"#utility.yul\":5796:5975   */\n      swap3\n      swap2\n      pop\n      pop\n      jump\t// out\n        /* \"#utility.yul\":5981:6094   */\n    tag_132:\n        /* \"#utility.yul\":6051:6055   */\n      0x00\n        /* \"#utility.yul\":6083:6087   */\n      0x20\n        /* \"#utility.yul\":6078:6081   */\n      dup3\n        /* \"#utility.yul\":6074:6088   */\n      add\n        /* \"#utility.yul\":6066:6088   */\n      swap1\n      pop\n        /* \"#utility.yul\":5981:6094   */\n      swap2\n      swap1\n      pop\n      jump\t// out\n        /* \"#utility.yul\":6130:6862   */\n    tag_133:\n        /* \"#utility.yul\":6249:6252   */\n      0x00\n        /* \"#utility.yul\":6278:6332   */\n      tag_205\n        /* \"#utility.yul\":6326:6331   */\n      dup3\n        /* \"#utility.yul\":6278:6332   */\n      tag_127\n      jump\t// in\n    tag_205:\n        /* \"#utility.yul\":6348:6434   */\n      tag_206\n        /* \"#utility.yul\":6427:6433   */\n      dup2\n        /* \"#utility.yul\":6422:6425   */\n      dup6\n        /* \"#utility.yul\":6348:6434   */\n      tag_128\n      jump\t// in\n    tag_206:\n        /* \"#utility.yul\":6341:6434   */\n      swap4\n      pop\n        /* \"#utility.yul\":6458:6514   */\n      tag_207\n        /* \"#utility.yul\":6508:6513   */\n      dup4\n        /* \"#utility.yul\":6458:6514   */\n      tag_129\n      jump\t// in\n    tag_207:\n        /* \"#utility.yul\":6537:6544   */\n      dup1\n        /* \"#utility.yul\":6568:6569   */\n      0x00\n        /* \"#utility.yul\":6553:6837   */\n    tag_208:\n        /* \"#utility.yul\":6578:6584   */\n      dup4\n        /* \"#utility.yul\":6575:6576   */\n      dup2\n        /* \"#utility.yul\":6572:6585   */\n      lt\n        /* \"#utility.yul\":6553:6837   */\n      iszero\n      tag_210\n      jumpi\n        /* \"#utility.yul\":6654:6660   */\n      dup2\n        /* \"#utility.yul\":6648:6661   */\n      mload\n        /* \"#utility.yul\":6681:6744   */\n      tag_211\n        /* \"#utility.yul\":6740:6743   */\n      dup9\n        /* \"#utility.yul\":6725:6738   */\n      dup3\n        /* \"#utility.yul\":6681:6744   */\n      tag_131\n      jump\t// in\n    tag_211:\n        /* \"#utility.yul\":6674:6744   */\n      swap8\n      pop\n        /* \"#utility.yul\":6767:6827   */\n      tag_212\n        /* \"#utility.yul\":6820:6826   */\n      dup4\n        /* \"#utility.yul\":6767:6827   */\n      tag_132\n      jump\t// in\n    tag_212:\n        /* \"#utility.yul\":6757:6827   */\n      swap3\n      pop\n        /* \"#utility.yul\":6613:6837   */\n      pop\n        /* \"#utility.yul\":6600:6601   */\n      0x01\n        /* \"#utility.yul\":6597:6598   */\n      dup2\n        /* \"#utility.yul\":6593:6602   */\n      add\n        /* \"#utility.yul\":6588:6602   */\n      swap1\n      pop\n        /* \"#utility.yul\":6553:6837   */\n      jump(tag_208)\n    tag_210:\n        /* \"#utility.yul\":6557:6571   */\n      pop\n        /* \"#utility.yul\":6853:6856   */\n      dup6\n        /* \"#utility.yul\":6846:6856   */\n      swap4\n      pop\n        /* \"#utility.yul\":6254:6862   */\n      pop\n      pop\n      pop\n        /* \"#utility.yul\":6130:6862   */\n      swap3\n      swap2\n      pop\n      pop\n      jump\t// out\n        /* \"#utility.yul\":6868:7241   */\n    tag_37:\n        /* \"#utility.yul\":7011:7015   */\n      0x00\n        /* \"#utility.yul\":7049:7051   */\n      0x20\n        /* \"#utility.yul\":7038:7047   */\n      dup3\n        /* \"#utility.yul\":7034:7052   */\n      add\n        /* \"#utility.yul\":7026:7052   */\n      swap1\n      pop\n        /* \"#utility.yul\":7098:7107   */\n      dup2\n        /* \"#utility.yul\":7092:7096   */\n      dup2\n        /* \"#utility.yul\":7088:7108   */\n      sub\n        /* \"#utility.yul\":7084:7085   */\n      0x00\n        /* \"#utility.yul\":7073:7082   */\n      dup4\n        /* \"#utility.yul\":7069:7086   */\n      add\n        /* \"#utility.yul\":7062:7109   */\n      mstore\n        /* \"#utility.yul\":7126:7234   */\n      tag_214\n        /* \"#utility.yul\":7229:7233   */\n      dup2\n        /* \"#utility.yul\":7220:7226   */\n      dup5\n        /* \"#utility.yul\":7126:7234   */\n      tag_133\n      jump\t// in\n    tag_214:\n        /* \"#utility.yul\":7118:7234   */\n      swap1\n      pop\n        /* \"#utility.yul\":6868:7241   */\n      swap3\n      swap2\n      pop\n      pop\n      jump\t// out\n        /* \"#utility.yul\":7247:7427   */\n    tag_134:\n        /* \"#utility.yul\":7295:7372   */\n      0x4e487b7100000000000000000000000000000000000000000000000000000000\n        /* \"#utility.yul\":7292:7293   */\n      0x00\n        /* \"#utility.yul\":7285:7373   */\n      mstore\n        /* \"#utility.yul\":7392:7396   */\n      0x11\n        /* \"#utility.yul\":7389:7390   */\n      0x04\n        /* \"#utility.yul\":7382:7397   */\n      mstore\n        /* \"#utility.yul\":7416:7420   */\n      0x24\n        /* \"#utility.yul\":7413:7414   */\n      0x00\n        /* \"#utility.yul\":7406:7421   */\n      revert\n        /* \"#utility.yul\":7433:7624   */\n    tag_49:\n        /* \"#utility.yul\":7473:7476   */\n      0x00\n        /* \"#utility.yul\":7492:7512   */\n      tag_217\n        /* \"#utility.yul\":7510:7511   */\n      dup3\n        /* \"#utility.yul\":7492:7512   */\n      tag_112\n      jump\t// in\n    tag_217:\n        /* \"#utility.yul\":7487:7512   */\n      swap2\n      pop\n        /* \"#utility.yul\":7526:7546   */\n      tag_218\n        /* \"#utility.yul\":7544:7545   */\n      dup4\n        /* \"#utility.yul\":7526:7546   */\n      tag_112\n      jump\t// in\n    tag_218:\n        /* \"#utility.yul\":7521:7546   */\n      swap3\n      pop\n        /* \"#utility.yul\":7569:7570   */\n      dup3\n        /* \"#utility.yul\":7566:7567   */\n      dup3\n        /* \"#utility.yul\":7562:7571   */\n      add\n        /* \"#utility.yul\":7555:7571   */\n      swap1\n      pop\n        /* \"#utility.yul\":7590:7593   */\n      dup1\n        /* \"#utility.yul\":7587:7588   */\n      dup3\n        /* \"#utility.yul\":7584:7594   */\n      gt\n        /* \"#utility.yul\":7581:7617   */\n      iszero\n      tag_219\n      jumpi\n        /* \"#utility.yul\":7597:7615   */\n      tag_220\n      tag_134\n      jump\t// in\n    tag_220:\n        /* \"#utility.yul\":7581:7617   */\n    tag_219:\n        /* \"#utility.yul\":7433:7624   */\n      swap3\n      swap2\n      pop\n      pop\n      jump\t// out\n        /* \"#utility.yul\":7630:7863   */\n    tag_51:\n        /* \"#utility.yul\":7669:7672   */\n      0x00\n        /* \"#utility.yul\":7692:7716   */\n      tag_222\n        /* \"#utility.yul\":7710:7715   */\n      dup3\n        /* \"#utility.yul\":7692:7716   */\n      tag_112\n      jump\t// in\n    tag_222:\n        /* \"#utility.yul\":7683:7716   */\n      swap2\n      pop\n        /* \"#utility.yul\":7738:7804   */\n      0xffffffffffffffffffffffffffffffffffffffffffffffffffffffffffffffff\n        /* \"#utility.yul\":7731:7736   */\n      dup3\n        /* \"#utility.yul\":7728:7805   */\n      sub\n        /* \"#utility.yul\":7725:7828   */\n      tag_223\n      jumpi\n        /* \"#utility.yul\":7808:7826   */\n      tag_224\n      tag_134\n      jump\t// in\n    tag_224:\n        /* \"#utility.yul\":7725:7828   */\n    tag_223:\n        /* \"#utility.yul\":7855:7856   */\n      0x01\n        /* \"#utility.yul\":7848:7853   */\n      dup3\n        /* \"#utility.yul\":7844:7857   */\n      add\n        /* \"#utility.yul\":7837:7857   */\n      swap1\n      pop\n        /* \"#utility.yul\":7630:7863   */\n      swap2\n      swap1\n      pop\n      jump\t// out\n        /* \"#utility.yul\":7869:8049   */\n    tag_71:\n        /* \"#utility.yul\":7917:7994   */\n      0x4e487b7100000000000000000000000000000000000000000000000000000000\n        /* \"#utility.yul\":7914:7915   */\n      0x00\n        /* \"#utility.yul\":7907:7995   */\n      mstore\n        /* \"#utility.yul\":8014:8018   */\n      0x32\n        /* \"#utility.yul\":8011:8012   */\n      0x04\n        /* \"#utility.yul\":8004:8019   */\n      mstore\n        /* \"#utility.yul\":8038:8042   */\n      0x24\n        /* \"#utility.yul\":8035:8036   */\n      0x00\n        /* \"#utility.yul\":8028:8043   */\n      revert\n        /* \"#utility.yul\":8055:8249   */\n    tag_73:\n        /* \"#utility.yul\":8095:8099   */\n      0x00\n        /* \"#utility.yul\":8115:8135   */\n      tag_227\n        /* \"#utility.yul\":8133:8134   */\n      dup3\n        /* \"#utility.yul\":8115:8135   */\n      tag_112\n      jump\t// in\n    tag_227:\n        /* \"#utility.yul\":8110:8135   */\n      swap2\n      pop\n        /* \"#utility.yul\":8149:8169   */\n      tag_228\n        /* \"#utility.yul\":8167:8168   */\n      dup4\n        /* \"#utility.yul\":8149:8169   */\n      tag_112\n      jump\t// in\n    tag_228:\n        /* \"#utility.yul\":8144:8169   */\n      swap3\n      pop\n        /* \"#utility.yul\":8193:8194   */\n      dup3\n        /* \"#utility.yul\":8190:8191   */\n      dup3\n        /* \"#utility.yul\":8186:8195   */\n      sub\n        /* \"#utility.yul\":8178:8195   */\n      swap1\n      pop\n        /* \"#utility.yul\":8217:8218   */\n      dup2\n        /* \"#utility.yul\":8211:8215   */\n      dup2\n        /* \"#utility.yul\":8208:8219   */\n      gt\n        /* \"#utility.yul\":8205:8242   */\n      iszero\n      tag_229\n      jumpi\n        /* \"#utility.yul\":8222:8240   */\n      tag_230\n      tag_134\n      jump\t// in\n    tag_230:\n        /* \"#utility.yul\":8205:8242   */\n    tag_229:\n        /* \"#utility.yul\":8055:8249   */\n      swap3\n      swap2\n      pop\n      pop\n      jump\t// out\n        /* \"#utility.yul\":8255:8426   */\n    tag_85:\n        /* \"#utility.yul\":8294:8297   */\n      0x00\n        /* \"#utility.yul\":8317:8341   */\n      tag_232\n        /* \"#utility.yul\":8335:8340   */\n      dup3\n        /* \"#utility.yul\":8317:8341   */\n      tag_112\n      jump\t// in\n    tag_232:\n        /* \"#utility.yul\":8308:8341   */\n      swap2\n      pop\n        /* \"#utility.yul\":8363:8367   */\n      0x00\n        /* \"#utility.yul\":8356:8361   */\n      dup3\n        /* \"#utility.yul\":8353:8368   */\n      sub\n        /* \"#utility.yul\":8350:8391   */\n      tag_233\n      jumpi\n        /* \"#utility.yul\":8371:8389   */\n      tag_234\n      tag_134\n      jump\t// in\n    tag_234:\n        /* \"#utility.yul\":8350:8391   */\n    tag_233:\n        /* \"#utility.yul\":8418:8419   */\n      0x01\n        /* \"#utility.yul\":8411:8416   */\n      dup3\n        /* \"#utility.yul\":8407:8420   */\n      sub\n        /* \"#utility.yul\":8400:8420   */\n      swap1\n      pop\n        /* \"#utility.yul\":8255:8426   */\n      swap2\n      swap1\n      pop\n      jump\t// out\n\n    auxdata: 0xa2646970667358221220ff67922f54ae9623e053ed43a13589cdb9e9db22eb50bdb6069f38f89e45c60964736f6c634300081e0033\n}\n",
				"bytecode": {
					"linkReferences": {},
					"object": "6080604052348015600e575f5ffd5b5061095d8061001c5f395ff3fe608060405234801561000f575f5ffd5b506004361061007b575f3560e01c80635d14639d116100595780635d14639d146100eb5780637141fb0014610109578063b23d97f214610139578063e5de1970146101695761007b565b8063287663201461007f5780632bbacaaa146100af57806334e4dfdb146100cd575b5f5ffd5b610099600480360381019061009491906104c7565b610199565b6040516100a69190610514565b60405180910390f35b6100b76101b2565b6040516100c49190610514565b60405180910390f35b6100d56101ee565b6040516100e29190610514565b60405180910390f35b6100f3610224565b6040516101009190610514565b60405180910390f35b610123600480360381019061011e919061052d565b610260565b6040516101309190610572565b60405180910390f35b610153600480360381019061014e91906106db565b61027a565b60405161016091906107d9565b60405180910390f35b610183600480360381019061017e91906106db565b610385565b60405161019091906107d9565b60405180910390f35b5f818310156101a857816101aa565b825b905092915050565b5f5f5f90505f5f90505b600a8110156101e65780826101d19190610826565b915080806101de90610859565b9150506101bc565b819250505090565b5f5f5f90505f5f90505b600a81101561021c57808261020d9190610826565b915080806001019150506101f8565b508091505090565b5f5f5f90505f5f90505b600a8110156102585780826102439190610826565b9150808061025090610859565b91505061022e565b819250505090565b5f5f82036102715760019050610275565b5f90505b919050565b60605f600190505b825181101561037c575f83828151811061029f5761029e6108a0565b5b602002602001015190505f6001836102b791906108cd565b90505b5f81101580156102e35750818582815181106102d9576102d86108a0565b5b6020026020010151115b15610341578481815181106102fb576102fa6108a0565b5b6020026020010151856001836103119190610826565b81518110610322576103216108a0565b5b602002602001018181525050808061033990610900565b9150506102ba565b81856001836103509190610826565b81518110610361576103606108a0565b5b60200260200101818152505050508080600101915050610282565b50819050919050565b60605f600190505b825181101561047a575f8382815181106103aa576103a96108a0565b5b602002602001015190505f8290505b5f811180156103ed575081856001836103d291906108cd565b815181106103e3576103e26108a0565b5b6020026020010151115b1561044b578460018261040091906108cd565b81518110610411576104106108a0565b5b602002602001015185828151811061042c5761042b6108a0565b5b602002602001018181525050808061044390610900565b9150506103b9565b8185828151811061045f5761045e6108a0565b5b6020026020010181815250505050808060010191505061038d565b50819050919050565b5f604051905090565b5f5ffd5b5f5ffd5b5f819050919050565b6104a681610494565b81146104b0575f5ffd5b50565b5f813590506104c18161049d565b92915050565b5f5f604083850312156104dd576104dc61048c565b5b5f6104ea858286016104b3565b92505060206104fb858286016104b3565b9150509250929050565b61050e81610494565b82525050565b5f6020820190506105275f830184610505565b92915050565b5f602082840312156105425761054161048c565b5b5f61054f848285016104b3565b91505092915050565b5f8115159050919050565b61056c81610558565b82525050565b5f6020820190506105855f830184610563565b92915050565b5f5ffd5b5f601f19601f8301169050919050565b7f4e487b71000000000000000000000000000000000000000000000000000000005f52604160045260245ffd5b6105d58261058f565b810181811067ffffffffffffffff821117156105f4576105f361059f565b5b80604052505050565b5f610606610483565b905061061282826105cc565b919050565b5f67ffffffffffffffff8211156106315761063061059f565b5b602082029050602081019050919050565b5f5ffd5b5f61065861065384610617565b6105fd565b9050808382526020820190506020840283018581111561067b5761067a610642565b5b835b818110156106a4578061069088826104b3565b84526020840193505060208101905061067d565b5050509392505050565b5f82601f8301126106c2576106c161058b565b5b81356106d2848260208601610646565b91505092915050565b5f602082840312156106f0576106ef61048c565b5b5f82013567ffffffffffffffff81111561070d5761070c610490565b5b610719848285016106ae565b91505092915050565b5f81519050919050565b5f82825260208201905092915050565b5f819050602082019050919050565b61075481610494565b82525050565b5f610765838361074b565b60208301905092915050565b5f602082019050919050565b5f61078782610722565b610791818561072c565b935061079c8361073c565b805f5b838110156107cc5781516107b3888261075a565b97506107be83610771565b92505060018101905061079f565b5085935050505092915050565b5f6020820190508181035f8301526107f1818461077d565b905092915050565b7f4e487b71000000000000000000000000000000000000000000000000000000005f52601160045260245ffd5b5f61083082610494565b915061083b83610494565b9250828201905080821115610853576108526107f9565b5b92915050565b5f61086382610494565b91507fffffffffffffffffffffffffffffffffffffffffffffffffffffffffffffffff8203610895576108946107f9565b5b600182019050919050565b7f4e487b71000000000000000000000000000000000000000000000000000000005f52603260045260245ffd5b5f6108d782610494565b91506108e283610494565b92508282039050818111156108fa576108f96107f9565b5b92915050565b5f61090a82610494565b91505f820361091c5761091b6107f9565b5b60018203905091905056fea2646970667358221220ff67922f54ae9623e053ed43a13589cdb9e9db22eb50bdb6069f38f89e45c60964736f6c634300081e0033",
					"opcodes": "PUSH1 0x80 PUSH1 0x40 MSTORE CALLVALUE DUP1 ISZERO PUSH1 0xE JUMPI PUSH0 PUSH0 REVERT JUMPDEST POP PUSH2 0x95D DUP1 PUSH2 0x1C PUSH0 CODECOPY PUSH0 RETURN INVALID PUSH1 0x80 PUSH1 0x40 MSTORE CALLVALUE DUP1 ISZERO PUSH2 0xF JUMPI PUSH0 PUSH0 REVERT JUMPDEST POP PUSH1 0x4 CALLDATASIZE LT PUSH2 0x7B JUMPI PUSH0 CALLDATALOAD PUSH1 0xE0 SHR DUP1 PUSH4 0x5D14639D GT PUSH2 0x59 JUMPI DUP1 PUSH4 0x5D14639D EQ PUSH2 0xEB JUMPI DUP1 PUSH4 0x7141FB00 EQ PUSH2 0x109 JUMPI DUP1 PUSH4 0xB23D97F2 EQ PUSH2 0x139 JUMPI DUP1 PUSH4 0xE5DE1970 EQ PUSH2 0x169 JUMPI PUSH2 0x7B JUMP JUMPDEST DUP1 PUSH4 0x28766320 EQ PUSH2 0x7F JUMPI DUP1 PUSH4 0x2BBACAAA EQ PUSH2 0xAF JUMPI DUP1 PUSH4 0x34E4DFDB EQ PUSH2 0xCD JUMPI JUMPDEST PUSH0 PUSH0 REVERT JUMPDEST PUSH2 0x99 PUSH1 0x4 DUP1 CALLDATASIZE SUB DUP2 ADD SWAP1 PUSH2 0x94 SWAP2 SWAP1 PUSH2 0x4C7 JUMP JUMPDEST PUSH2 0x199 JUMP JUMPDEST PUSH1 0x40 MLOAD PUSH2 0xA6 SWAP2 SWAP1 PUSH2 0x514 JUMP JUMPDEST PUSH1 0x40 MLOAD DUP1 SWAP2 SUB SWAP1 RETURN JUMPDEST PUSH2 0xB7 PUSH2 0x1B2 JUMP JUMPDEST PUSH1 0x40 MLOAD PUSH2 0xC4 SWAP2 SWAP1 PUSH2 0x514 JUMP JUMPDEST PUSH1 0x40 MLOAD DUP1 SWAP2 SUB SWAP1 RETURN JUMPDEST PUSH2 0xD5 PUSH2 0x1EE JUMP JUMPDEST PUSH1 0x40 MLOAD PUSH2 0xE2 SWAP2 SWAP1 PUSH2 0x514 JUMP JUMPDEST PUSH1 0x40 MLOAD DUP1 SWAP2 SUB SWAP1 RETURN JUMPDEST PUSH2 0xF3 PUSH2 0x224 JUMP JUMPDEST PUSH1 0x40 MLOAD PUSH2 0x100 SWAP2 SWAP1 PUSH2 0x514 JUMP JUMPDEST PUSH1 0x40 MLOAD DUP1 SWAP2 SUB SWAP1 RETURN JUMPDEST PUSH2 0x123 PUSH1 0x4 DUP1 CALLDATASIZE SUB DUP2 ADD SWAP1 PUSH2 0x11E SWAP2 SWAP1 PUSH2 0x52D JUMP JUMPDEST PUSH2 0x260 JUMP JUMPDEST PUSH1 0x40 MLOAD PUSH2 0x130 SWAP2 SWAP1 PUSH2 0x572 JUMP JUMPDEST PUSH1 0x40 MLOAD DUP1 SWAP2 SUB SWAP1 RETURN JUMPDEST PUSH2 0x153 PUSH1 0x4 DUP1 CALLDATASIZE SUB DUP2 ADD SWAP1 PUSH2 0x14E SWAP2 SWAP1 PUSH2 0x6DB JUMP JUMPDEST PUSH2 0x27A JUMP JUMPDEST PUSH1 0x40 MLOAD PUSH2 0x160 SWAP2 SWAP1 PUSH2 0x7D9 JUMP JUMPDEST PUSH1 0x40 MLOAD DUP1 SWAP2 SUB SWAP1 RETURN JUMPDEST PUSH2 0x183 PUSH1 0x4 DUP1 CALLDATASIZE SUB DUP2 ADD SWAP1 PUSH2 0x17E SWAP2 SWAP1 PUSH2 0x6DB JUMP JUMPDEST PUSH2 0x385 JUMP JUMPDEST PUSH1 0x40 MLOAD PUSH2 0x190 SWAP2 SWAP1 PUSH2 0x7D9 JUMP JUMPDEST PUSH1 0x40 MLOAD DUP1 SWAP2 SUB SWAP1 RETURN JUMPDEST PUSH0 DUP2 DUP4 LT ISZERO PUSH2 0x1A8 JUMPI DUP2 PUSH2 0x1AA JUMP JUMPDEST DUP3 JUMPDEST SWAP1 POP SWAP3 SWAP2 POP POP JUMP JUMPDEST PUSH0 PUSH0 PUSH0 SWAP1 POP PUSH0 PUSH0 SWAP1 POP JUMPDEST PUSH1 0xA DUP2 LT ISZERO PUSH2 0x1E6 JUMPI DUP1 DUP3 PUSH2 0x1D1 SWAP2 SWAP1 PUSH2 0x826 JUMP JUMPDEST SWAP2 POP DUP1 DUP1 PUSH2 0x1DE SWAP1 PUSH2 0x859 JUMP JUMPDEST SWAP2 POP POP PUSH2 0x1BC JUMP JUMPDEST DUP2 SWAP3 POP POP POP SWAP1 JUMP JUMPDEST PUSH0 PUSH0 PUSH0 SWAP1 POP PUSH0 PUSH0 SWAP1 POP JUMPDEST PUSH1 0xA DUP2 LT ISZERO PUSH2 0x21C JUMPI DUP1 DUP3 PUSH2 0x20D SWAP2 SWAP1 PUSH2 0x826 JUMP JUMPDEST SWAP2 POP DUP1 DUP1 PUSH1 0x1 ADD SWAP2 POP POP PUSH2 0x1F8 JUMP JUMPDEST POP DUP1 SWAP2 POP POP SWAP1 JUMP JUMPDEST PUSH0 PUSH0 PUSH0 SWAP1 POP PUSH0 PUSH0 SWAP1 POP JUMPDEST PUSH1 0xA DUP2 LT ISZERO PUSH2 0x258 JUMPI DUP1 DUP3 PUSH2 0x243 SWAP2 SWAP1 PUSH2 0x826 JUMP JUMPDEST SWAP2 POP DUP1 DUP1 PUSH2 0x250 SWAP1 PUSH2 0x859 JUMP JUMPDEST SWAP2 POP POP PUSH2 0x22E JUMP JUMPDEST DUP2 SWAP3 POP POP POP SWAP1 JUMP JUMPDEST PUSH0 PUSH0 DUP3 SUB PUSH2 0x271 JUMPI PUSH1 0x1 SWAP1 POP PUSH2 0x275 JUMP JUMPDEST PUSH0 SWAP1 POP JUMPDEST SWAP2 SWAP1 POP JUMP JUMPDEST PUSH1 0x60 PUSH0 PUSH1 0x1 SWAP1 POP JUMPDEST DUP3 MLOAD DUP2 LT ISZERO PUSH2 0x37C JUMPI PUSH0 DUP4 DUP3 DUP2 MLOAD DUP2 LT PUSH2 0x29F JUMPI PUSH2 0x29E PUSH2 0x8A0 JUMP JUMPDEST JUMPDEST PUSH1 0x20 MUL PUSH1 0x20 ADD ADD MLOAD SWAP1 POP PUSH0 PUSH1 0x1 DUP4 PUSH2 0x2B7 SWAP2 SWAP1 PUSH2 0x8CD JUMP JUMPDEST SWAP1 POP JUMPDEST PUSH0 DUP2 LT ISZERO DUP1 ISZERO PUSH2 0x2E3 JUMPI POP DUP2 DUP6 DUP3 DUP2 MLOAD DUP2 LT PUSH2 0x2D9 JUMPI PUSH2 0x2D8 PUSH2 0x8A0 JUMP JUMPDEST JUMPDEST PUSH1 0x20 MUL PUSH1 0x20 ADD ADD MLOAD GT JUMPDEST ISZERO PUSH2 0x341 JUMPI DUP5 DUP2 DUP2 MLOAD DUP2 LT PUSH2 0x2FB JUMPI PUSH2 0x2FA PUSH2 0x8A0 JUMP JUMPDEST JUMPDEST PUSH1 0x20 MUL PUSH1 0x20 ADD ADD MLOAD DUP6 PUSH1 0x1 DUP4 PUSH2 0x311 SWAP2 SWAP1 PUSH2 0x826 JUMP JUMPDEST DUP2 MLOAD DUP2 LT PUSH2 0x322 JUMPI PUSH2 0x321 PUSH2 0x8A0 JUMP JUMPDEST JUMPDEST PUSH1 0x20 MUL PUSH1 0x20 ADD ADD DUP2 DUP2 MSTORE POP POP DUP1 DUP1 PUSH2 0x339 SWAP1 PUSH2 0x900 JUMP JUMPDEST SWAP2 POP POP PUSH2 0x2BA JUMP JUMPDEST DUP2 DUP6 PUSH1 0x1 DUP4 PUSH2 0x350 SWAP2 SWAP1 PUSH2 0x826 JUMP JUMPDEST DUP2 MLOAD DUP2 LT PUSH2 0x361 JUMPI PUSH2 0x360 PUSH2 0x8A0 JUMP JUMPDEST JUMPDEST PUSH1 0x20 MUL PUSH1 0x20 ADD ADD DUP2 DUP2 MSTORE POP POP POP POP DUP1 DUP1 PUSH1 0x1 ADD SWAP2 POP POP PUSH2 0x282 JUMP JUMPDEST POP DUP2 SWAP1 POP SWAP2 SWAP1 POP JUMP JUMPDEST PUSH1 0x60 PUSH0 PUSH1 0x1 SWAP1 POP JUMPDEST DUP3 MLOAD DUP2 LT ISZERO PUSH2 0x47A JUMPI PUSH0 DUP4 DUP3 DUP2 MLOAD DUP2 LT PUSH2 0x3AA JUMPI PUSH2 0x3A9 PUSH2 0x8A0 JUMP JUMPDEST JUMPDEST PUSH1 0x20 MUL PUSH1 0x20 ADD ADD MLOAD SWAP1 POP PUSH0 DUP3 SWAP1 POP JUMPDEST PUSH0 DUP2 GT DUP1 ISZERO PUSH2 0x3ED JUMPI POP DUP2 DUP6 PUSH1 0x1 DUP4 PUSH2 0x3D2 SWAP2 SWAP1 PUSH2 0x8CD JUMP JUMPDEST DUP2 MLOAD DUP2 LT PUSH2 0x3E3 JUMPI PUSH2 0x3E2 PUSH2 0x8A0 JUMP JUMPDEST JUMPDEST PUSH1 0x20 MUL PUSH1 0x20 ADD ADD MLOAD GT JUMPDEST ISZERO PUSH2 0x44B JUMPI DUP5 PUSH1 0x1 DUP3 PUSH2 0x400 SWAP2 SWAP1 PUSH2 0x8CD JUMP JUMPDEST DUP2 MLOAD DUP2 LT PUSH2 0x411 JUMPI PUSH2 0x410 PUSH2 0x8A0 JUMP JUMPDEST JUMPDEST PUSH1 0x20 MUL PUSH1 0x20 ADD ADD MLOAD DUP6 DUP3 DUP2 MLOAD DUP2 LT PUSH2 0x42C JUMPI PUSH2 0x42B PUSH2 0x8A0 JUMP JUMPDEST JUMPDEST PUSH1 0x20 MUL PUSH1 0x20 ADD ADD DUP2 DUP2 MSTORE POP POP DUP1 DUP1 PUSH2 0x443 SWAP1 PUSH2 0x900 JUMP JUMPDEST SWAP2 POP POP PUSH2 0x3B9 JUMP JUMPDEST DUP2 DUP6 DUP3 DUP2 MLOAD DUP2 LT PUSH2 0x45F JUMPI PUSH2 0x45E PUSH2 0x8A0 JUMP JUMPDEST JUMPDEST PUSH1 0x20 MUL PUSH1 0x20 ADD ADD DUP2 DUP2 MSTORE POP POP POP POP DUP1 DUP1 PUSH1 0x1 ADD SWAP2 POP POP PUSH2 0x38D JUMP JUMPDEST POP DUP2 SWAP1 POP SWAP2 SWAP1 POP JUMP JUMPDEST PUSH0 PUSH1 0x40 MLOAD SWAP1 POP SWAP1 JUMP JUMPDEST PUSH0 PUSH0 REVERT JUMPDEST PUSH0 PUSH0 REVERT JUMPDEST PUSH0 DUP2 SWAP1 POP SWAP2 SWAP1 POP JUMP JUMPDEST PUSH2 0x4A6 DUP2 PUSH2 0x494 JUMP JUMPDEST DUP2 EQ PUSH2 0x4B0 JUMPI PUSH0 PUSH0 REVERT JUMPDEST POP JUMP JUMPDEST PUSH0 DUP2 CALLDATALOAD SWAP1 POP PUSH2 0x4C1 DUP2 PUSH2 0x49D JUMP JUMPDEST SWAP3 SWAP2 POP POP JUMP JUMPDEST PUSH0 PUSH0 PUSH1 0x40 DUP4 DUP6 SUB SLT ISZERO PUSH2 0x4DD JUMPI PUSH2 0x4DC PUSH2 0x48C JUMP JUMPDEST JUMPDEST PUSH0 PUSH2 0x4EA DUP6 DUP3 DUP7 ADD PUSH2 0x4B3 JUMP JUMPDEST SWAP3 POP POP PUSH1 0x20 PUSH2 0x4FB DUP6 DUP3 DUP7 ADD PUSH2 0x4B3 JUMP JUMPDEST SWAP2 POP POP SWAP3 POP SWAP3 SWAP1 POP JUMP JUMPDEST PUSH2 0x50E DUP2 PUSH2 0x494 JUMP JUMPDEST DUP3 MSTORE POP POP JUMP JUMPDEST PUSH0 PUSH1 0x20 DUP3 ADD SWAP1 POP PUSH2 0x527 PUSH0 DUP4 ADD DUP5 PUSH2 0x505 JUMP JUMPDEST SWAP3 SWAP2 POP POP JUMP JUMPDEST PUSH0 PUSH1 0x20 DUP3 DUP5 SUB SLT ISZERO PUSH2 0x542 JUMPI PUSH2 0x541 PUSH2 0x48C JUMP JUMPDEST JUMPDEST PUSH0 PUSH2 0x54F DUP5 DUP3 DUP6 ADD PUSH2 0x4B3 JUMP JUMPDEST SWAP2 POP POP SWAP3 SWAP2 POP POP JUMP JUMPDEST PUSH0 DUP2 ISZERO ISZERO SWAP1 POP SWAP2 SWAP1 POP JUMP JUMPDEST PUSH2 0x56C DUP2 PUSH2 0x558 JUMP JUMPDEST DUP3 MSTORE POP POP JUMP JUMPDEST PUSH0 PUSH1 0x20 DUP3 ADD SWAP1 POP PUSH2 0x585 PUSH0 DUP4 ADD DUP5 PUSH2 0x563 JUMP JUMPDEST SWAP3 SWAP2 POP POP JUMP JUMPDEST PUSH0 PUSH0 REVERT JUMPDEST PUSH0 PUSH1 0x1F NOT PUSH1 0x1F DUP4 ADD AND SWAP1 POP SWAP2 SWAP1 POP JUMP JUMPDEST PUSH32 0x4E487B7100000000000000000000000000000000000000000000000000000000 PUSH0 MSTORE PUSH1 0x41 PUSH1 0x4 MSTORE PUSH1 0x24 PUSH0 REVERT JUMPDEST PUSH2 0x5D5 DUP3 PUSH2 0x58F JUMP JUMPDEST DUP2 ADD DUP2 DUP2 LT PUSH8 0xFFFFFFFFFFFFFFFF DUP3 GT OR ISZERO PUSH2 0x5F4 JUMPI PUSH2 0x5F3 PUSH2 0x59F JUMP JUMPDEST JUMPDEST DUP1 PUSH1 0x40 MSTORE POP POP POP JUMP JUMPDEST PUSH0 PUSH2 0x606 PUSH2 0x483 JUMP JUMPDEST SWAP1 POP PUSH2 0x612 DUP3 DUP3 PUSH2 0x5CC JUMP JUMPDEST SWAP2 SWAP1 POP JUMP JUMPDEST PUSH0 PUSH8 0xFFFFFFFFFFFFFFFF DUP3 GT ISZERO PUSH2 0x631 JUMPI PUSH2 0x630 PUSH2 0x59F JUMP JUMPDEST JUMPDEST PUSH1 0x20 DUP3 MUL SWAP1 POP PUSH1 0x20 DUP2 ADD SWAP1 POP SWAP2 SWAP1 POP JUMP JUMPDEST PUSH0 PUSH0 REVERT JUMPDEST PUSH0 PUSH2 0x658 PUSH2 0x653 DUP5 PUSH2 0x617 JUMP JUMPDEST PUSH2 0x5FD JUMP JUMPDEST SWAP1 POP DUP1 DUP4 DUP3 MSTORE PUSH1 0x20 DUP3 ADD SWAP1 POP PUSH1 0x20 DUP5 MUL DUP4 ADD DUP6 DUP2 GT ISZERO PUSH2 0x67B JUMPI PUSH2 0x67A PUSH2 0x642 JUMP JUMPDEST JUMPDEST DUP4 JUMPDEST DUP2 DUP2 LT ISZERO PUSH2 0x6A4 JUMPI DUP1 PUSH2 0x690 DUP9 DUP3 PUSH2 0x4B3 JUMP JUMPDEST DUP5 MSTORE PUSH1 0x20 DUP5 ADD SWAP4 POP POP PUSH1 0x20 DUP2 ADD SWAP1 POP PUSH2 0x67D JUMP JUMPDEST POP POP POP SWAP4 SWAP3 POP POP POP JUMP JUMPDEST PUSH0 DUP3 PUSH1 0x1F DUP4 ADD SLT PUSH2 0x6C2 JUMPI PUSH2 0x6C1 PUSH2 0x58B JUMP JUMPDEST JUMPDEST DUP2 CALLDATALOAD PUSH2 0x6D2 DUP5 DUP3 PUSH1 0x20 DUP7 ADD PUSH2 0x646 JUMP JUMPDEST SWAP2 POP POP SWAP3 SWAP2 POP POP JUMP JUMPDEST PUSH0 PUSH1 0x20 DUP3 DUP5 SUB SLT ISZERO PUSH2 0x6F0 JUMPI PUSH2 0x6EF PUSH2 0x48C JUMP JUMPDEST JUMPDEST PUSH0 DUP3 ADD CALLDATALOAD PUSH8 0xFFFFFFFFFFFFFFFF DUP2 GT ISZERO PUSH2 0x70D JUMPI PUSH2 0x70C PUSH2 0x490 JUMP JUMPDEST JUMPDEST PUSH2 0x719 DUP5 DUP3 DUP6 ADD PUSH2 0x6AE JUMP JUMPDEST SWAP2 POP POP SWAP3 SWAP2 POP POP JUMP JUMPDEST PUSH0 DUP2 MLOAD SWAP1 POP SWAP2 SWAP1 POP JUMP JUMPDEST PUSH0 DUP3 DUP3 MSTORE PUSH1 0x20 DUP3 ADD SWAP1 POP SWAP3 SWAP2 POP POP JUMP JUMPDEST PUSH0 DUP2 SWAP1 POP PUSH1 0x20 DUP3 ADD SWAP1 POP SWAP2 SWAP1 POP JUMP JUMPDEST PUSH2 0x754 DUP2 PUSH2 0x494 JUMP JUMPDEST DUP3 MSTORE POP POP JUMP JUMPDEST PUSH0 PUSH2 0x765 DUP4 DUP4 PUSH2 0x74B JUMP JUMPDEST PUSH1 0x20 DUP4 ADD SWAP1 POP SWAP3 SWAP2 POP POP JUMP JUMPDEST PUSH0 PUSH1 0x20 DUP3 ADD SWAP1 POP SWAP2 SWAP1 POP JUMP JUMPDEST PUSH0 PUSH2 0x787 DUP3 PUSH2 0x722 JUMP JUMPDEST PUSH2 0x791 DUP2 DUP6 PUSH2 0x72C JUMP JUMPDEST SWAP4 POP PUSH2 0x79C DUP4 PUSH2 0x73C JUMP JUMPDEST DUP1 PUSH0 JUMPDEST DUP4 DUP2 LT ISZERO PUSH2 0x7CC JUMPI DUP2 MLOAD PUSH2 0x7B3 DUP9 DUP3 PUSH2 0x75A JUMP JUMPDEST SWAP8 POP PUSH2 0x7BE DUP4 PUSH2 0x771 JUMP JUMPDEST SWAP3 POP POP PUSH1 0x1 DUP2 ADD SWAP1 POP PUSH2 0x79F JUMP JUMPDEST POP DUP6 SWAP4 POP POP POP POP SWAP3 SWAP2 POP POP JUMP JUMPDEST PUSH0 PUSH1 0x20 DUP3 ADD SWAP1 POP DUP2 DUP2 SUB PUSH0 DUP4 ADD MSTORE PUSH2 0x7F1 DUP2 DUP5 PUSH2 0x77D JUMP JUMPDEST SWAP1 POP SWAP3 SWAP2 POP POP JUMP JUMPDEST PUSH32 0x4E487B7100000000000000000000000000000000000000000000000000000000 PUSH0 MSTORE PUSH1 0x11 PUSH1 0x4 MSTORE PUSH1 0x24 PUSH0 REVERT JUMPDEST PUSH0 PUSH2 0x830 DUP3 PUSH2 0x494 JUMP JUMPDEST SWAP2 POP PUSH2 0x83B DUP4 PUSH2 0x494 JUMP JUMPDEST SWAP3 POP DUP3 DUP3 ADD SWAP1 POP DUP1 DUP3 GT ISZERO PUSH2 0x853 JUMPI PUSH2 0x852 PUSH2 0x7F9 JUMP JUMPDEST JUMPDEST SWAP3 SWAP2 POP POP JUMP JUMPDEST PUSH0 PUSH2 0x863 DUP3 PUSH2 0x494 JUMP JUMPDEST SWAP2 POP PUSH32 0xFFFFFFFFFFFFFFFFFFFFFFFFFFFFFFFFFFFFFFFFFFFFFFFFFFFFFFFFFFFFFFFF DUP3 SUB PUSH2 0x895 JUMPI PUSH2 0x894 PUSH2 0x7F9 JUMP JUMPDEST JUMPDEST PUSH1 0x1 DUP3 ADD SWAP1 POP SWAP2 SWAP1 POP JUMP JUMPDEST PUSH32 0x4E487B7100000000000000000000000000000000000000000000000000000000 PUSH0 MSTORE PUSH1 0x32 PUSH1 0x4 MSTORE PUSH1 0x24 PUSH0 REVERT JUMPDEST PUSH0 PUSH2 0x8D7 DUP3 PUSH2 0x494 JUMP JUMPDEST SWAP2 POP PUSH2 0x8E2 DUP4 PUSH2 0x494 JUMP JUMPDEST SWAP3 POP DUP3 DUP3 SUB SWAP1 POP DUP2 DUP2 GT ISZERO PUSH2 0x8FA JUMPI PUSH2 0x8F9 PUSH2 0x7F9 JUMP JUMPDEST JUMPDEST SWAP3 SWAP2 POP POP JUMP JUMPDEST PUSH0 PUSH2 0x90A DUP3 PUSH2 0x494 JUMP JUMPDEST SWAP2 POP PUSH0 DUP3 SUB PUSH2 0x91C JUMPI PUSH2 0x91B PUSH2 0x7F9 JUMP JUMPDEST JUMPDEST PUSH1 0x1 DUP3 SUB SWAP1 POP SWAP2 SWAP1 POP JUMP INVALID LOG2 PUSH5 0x6970667358 0x22 SLT KECCAK256 SELFDESTRUCT PUSH8 0x922F54AE9623E053 0xED NUMBER LOG1 CALLDATALOAD DUP10 0xCD 0xB9 0xE9 0xDB 0x22 0xEB POP 0xBD 0xB6 MOD SWAP16 CODESIZE EXTCALL SWAP15 GASLIMIT 0xC6 MULMOD PUSH5 0x736F6C6343 STOP ADDMOD 0x1E STOP CALLER "
				},
				"gasEstimates": {
					"creation": {
						"codeDepositCost": "479400",
						"executionCost": "509",
						"totalCost": "479909"
					},
					"external": {
						"doWhileTest()": "infinite",
						"fooLoopTest()": "infinite",
						"ifElseTest(uint256)": "654",
						"insertSort(uint256[])": "infinite",
						"insertSort2(uint256[])": "infinite",
						"ternaryTest(uint256,uint256)": "infinite",
						"whileTest()": "infinite"
					}
				},
				"methodIdentifiers": {
					"doWhileTest()": "2bbacaaa",
					"fooLoopTest()": "34e4dfdb",
					"ifElseTest(uint256)": "7141fb00",
					"insertSort(uint256[])": "b23d97f2",
					"insertSort2(uint256[])": "e5de1970",
					"ternaryTest(uint256,uint256)": "28766320",
					"whileTest()": "5d14639d"
				}
			},
			"storageLayout": {
				"storage": [],
				"types": null
			},
			"userdoc": {
				"kind": "user",
				"methods": {},
				"version": 1
			}
		}
	}
}