{
	"05_DataStorage/DataStorage.sol": {
		"Variables": {
			"abi": [
				{
					"inputs": [],
					"name": "bar",
					"outputs": [
						{
							"internalType": "uint256",
							"name": "",
							"type": "uint256"
						}
					],
					"stateMutability": "pure",
					"type": "function"
				},
				{
					"inputs": [],
					"name": "foo",
					"outputs": [],
					"stateMutability": "nonpayable",
					"type": "function"
				},
				{
					"inputs": [],
					"name": "global",
					"outputs": [
						{
							"internalType": "address",
							"name": "",
							"type": "address"
						},
						{
							"internalType": "uint256",
							"name": "",
							"type": "uint256"
						},
						{
							"internalType": "bytes",
							"name": "",
							"type": "bytes"
						}
					],
					"stateMutability": "view",
					"type": "function"
				},
				{
					"inputs": [],
					"name": "x",
					"outputs": [
						{
							"internalType": "uint256",
							"name": "",
							"type": "uint256"
						}
					],
					"stateMutability": "view",
					"type": "function"
				},
				{
					"inputs": [],
					"name": "y",
					"outputs": [
						{
							"internalType": "uint256",
							"name": "",
							"type": "uint256"
						}
					],
					"stateMutability": "view",
					"type": "function"
				},
				{
					"inputs": [],
					"name": "z",
					"outputs": [
						{
							"internalType": "string",
							"name": "",
							"type": "string"
						}
					],
					"stateMutability": "view",
					"type": "function"
				}
			],
			"devdoc": {
				"kind": "dev",
				"methods": {},
				"version": 1
			},
			"evm": {
				"assembly": "    /* \"05_DataStorage/DataStorage.sol\":855:1479  contract Variables {... */\n  mstore(0x40, 0x80)\n    /* \"05_DataStorage/DataStorage.sol\":897:898  1 */\n  0x01\n    /* \"05_DataStorage/DataStorage.sol\":881:898  uint public x = 1 */\n  0x00\n  sstore\n    /* \"05_DataStorage/DataStorage.sol\":855:1479  contract Variables {... */\n  callvalue\n  dup1\n  iszero\n  tag_1\n  jumpi\n  revert(0x00, 0x00)\ntag_1:\n  pop\n  dataSize(sub_0)\n  dup1\n  dataOffset(sub_0)\n  0x00\n  codecopy\n  0x00\n  return\nstop\n\nsub_0: assembly {\n        /* \"05_DataStorage/DataStorage.sol\":855:1479  contract Variables {... */\n      mstore(0x40, 0x80)\n      callvalue\n      dup1\n      iszero\n      tag_1\n      jumpi\n      revert(0x00, 0x00)\n    tag_1:\n      pop\n      jumpi(tag_2, lt(calldatasize, 0x04))\n      shr(0xe0, calldataload(0x00))\n      dup1\n      0x0c55699c\n      eq\n      tag_3\n      jumpi\n      dup1\n      0xa05f9906\n      eq\n      tag_4\n      jumpi\n      dup1\n      0xa56dfe4a\n      eq\n      tag_5\n      jumpi\n      dup1\n      0xc2985578\n      eq\n      tag_6\n      jumpi\n      dup1\n      0xc5d7802e\n      eq\n      tag_7\n      jumpi\n      dup1\n      0xfebb0f7e\n      eq\n      tag_8\n      jumpi\n    tag_2:\n      revert(0x00, 0x00)\n        /* \"05_DataStorage/DataStorage.sol\":881:898  uint public x = 1 */\n    tag_3:\n      tag_9\n      tag_10\n      jump\t// in\n    tag_9:\n      mload(0x40)\n      tag_11\n      swap2\n      swap1\n      tag_12\n      jump\t// in\n    tag_11:\n      mload(0x40)\n      dup1\n      swap2\n      sub\n      swap1\n      return\n        /* \"05_DataStorage/DataStorage.sol\":1240:1474  function global() external view returns(address, uint ,bytes memory){... */\n    tag_4:\n      tag_13\n      tag_14\n      jump\t// in\n    tag_13:\n      mload(0x40)\n      tag_15\n      swap4\n      swap3\n      swap2\n      swap1\n      tag_16\n      jump\t// in\n    tag_15:\n      mload(0x40)\n      dup1\n      swap2\n      sub\n      swap1\n      return\n        /* \"05_DataStorage/DataStorage.sol\":905:918  uint public y */\n    tag_5:\n      tag_17\n      tag_18\n      jump\t// in\n    tag_17:\n      mload(0x40)\n      tag_19\n      swap2\n      swap1\n      tag_12\n      jump\t// in\n    tag_19:\n      mload(0x40)\n      dup1\n      swap2\n      sub\n      swap1\n      return\n        /* \"05_DataStorage/DataStorage.sol\":949:1082  function foo() external {... */\n    tag_6:\n      tag_20\n      tag_21\n      jump\t// in\n    tag_20:\n      stop\n        /* \"05_DataStorage/DataStorage.sol\":925:940  string public z */\n    tag_7:\n      tag_22\n      tag_23\n      jump\t// in\n    tag_22:\n      mload(0x40)\n      tag_24\n      swap2\n      swap1\n      tag_25\n      jump\t// in\n    tag_24:\n      mload(0x40)\n      dup1\n      swap2\n      sub\n      swap1\n      return\n        /* \"05_DataStorage/DataStorage.sol\":1090:1232  function bar() external pure returns(uint){... */\n    tag_8:\n      tag_26\n      tag_27\n      jump\t// in\n    tag_26:\n      mload(0x40)\n      tag_28\n      swap2\n      swap1\n      tag_12\n      jump\t// in\n    tag_28:\n      mload(0x40)\n      dup1\n      swap2\n      sub\n      swap1\n      return\n        /* \"05_DataStorage/DataStorage.sol\":881:898  uint public x = 1 */\n    tag_10:\n      sload(0x00)\n      dup2\n      jump\t// out\n        /* \"05_DataStorage/DataStorage.sol\":1240:1474  function global() external view returns(address, uint ,bytes memory){... */\n    tag_14:\n        /* \"05_DataStorage/DataStorage.sol\":1280:1287  address */\n      0x00\n        /* \"05_DataStorage/DataStorage.sol\":1289:1293  uint */\n      0x00\n        /* \"05_DataStorage/DataStorage.sol\":1295:1307  bytes memory */\n      0x60\n        /* \"05_DataStorage/DataStorage.sol\":1319:1333  address sender */\n      0x00\n        /* \"05_DataStorage/DataStorage.sol\":1336:1346  msg.sender */\n      caller\n        /* \"05_DataStorage/DataStorage.sol\":1319:1346  address sender = msg.sender */\n      swap1\n      pop\n        /* \"05_DataStorage/DataStorage.sol\":1357:1370  uint blockNum */\n      0x00\n        /* \"05_DataStorage/DataStorage.sol\":1373:1385  block.number */\n      number\n        /* \"05_DataStorage/DataStorage.sol\":1357:1385  uint blockNum = block.number */\n      swap1\n      pop\n        /* \"05_DataStorage/DataStorage.sol\":1396:1413  bytes memory data */\n      0x00\n        /* \"05_DataStorage/DataStorage.sol\":1416:1424  msg.data */\n      0x00\n      calldatasize\n        /* \"05_DataStorage/DataStorage.sol\":1396:1424  bytes memory data = msg.data */\n      dup1\n      dup1\n      0x1f\n      add\n      0x20\n      dup1\n      swap2\n      div\n      mul\n      0x20\n      add\n      mload(0x40)\n      swap1\n      dup2\n      add\n      0x40\n      mstore\n      dup1\n      swap4\n      swap3\n      swap2\n      swap1\n      dup2\n      dup2\n      mstore\n      0x20\n      add\n      dup4\n      dup4\n      dup1\n      dup3\n      dup5\n      calldatacopy\n      0x00\n      dup2\n      dup5\n      add\n      mstore\n      not(0x1f)\n      0x1f\n      dup3\n      add\n      and\n      swap1\n      pop\n      dup1\n      dup4\n      add\n      swap3\n      pop\n      pop\n      pop\n      pop\n      pop\n      pop\n      pop\n      swap1\n      pop\n        /* \"05_DataStorage/DataStorage.sol\":1443:1449  sender */\n      dup3\n        /* \"05_DataStorage/DataStorage.sol\":1451:1459  blockNum */\n      dup3\n        /* \"05_DataStorage/DataStorage.sol\":1461:1465  data */\n      dup3\n        /* \"05_DataStorage/DataStorage.sol\":1435:1466  return (sender, blockNum, data) */\n      swap6\n      pop\n      swap6\n      pop\n      swap6\n      pop\n      pop\n      pop\n      pop\n        /* \"05_DataStorage/DataStorage.sol\":1240:1474  function global() external view returns(address, uint ,bytes memory){... */\n      swap1\n      swap2\n      swap3\n      jump\t// out\n        /* \"05_DataStorage/DataStorage.sol\":905:918  uint public y */\n    tag_18:\n      sload(0x01)\n      dup2\n      jump\t// out\n        /* \"05_DataStorage/DataStorage.sol\":949:1082  function foo() external {... */\n    tag_21:\n        /* \"05_DataStorage/DataStorage.sol\":1040:1041  5 */\n      0x05\n        /* \"05_DataStorage/DataStorage.sol\":1038:1039  x */\n      0x00\n        /* \"05_DataStorage/DataStorage.sol\":1038:1041  x=5 */\n      dup2\n      swap1\n      sstore\n      pop\n        /* \"05_DataStorage/DataStorage.sol\":1054:1055  2 */\n      0x02\n        /* \"05_DataStorage/DataStorage.sol\":1052:1053  y */\n      0x01\n        /* \"05_DataStorage/DataStorage.sol\":1052:1055  y=2 */\n      dup2\n      swap1\n      sstore\n      pop\n        /* \"05_DataStorage/DataStorage.sol\":1066:1074  z=\"0xAA\" */\n      mload(0x40)\n      dup1\n      0x40\n      add\n      0x40\n      mstore\n      dup1\n      0x04\n      dup2\n      mstore\n      0x20\n      add\n      0x3078414100000000000000000000000000000000000000000000000000000000\n      dup2\n      mstore\n      pop\n        /* \"05_DataStorage/DataStorage.sol\":1066:1067  z */\n      0x02\n        /* \"05_DataStorage/DataStorage.sol\":1066:1074  z=\"0xAA\" */\n      swap1\n      dup2\n      tag_31\n      swap2\n      swap1\n      tag_32\n      jump\t// in\n    tag_31:\n      pop\n        /* \"05_DataStorage/DataStorage.sol\":949:1082  function foo() external {... */\n      jump\t// out\n        /* \"05_DataStorage/DataStorage.sol\":925:940  string public z */\n    tag_23:\n      0x02\n      dup1\n      sload\n      tag_33\n      swap1\n      tag_34\n      jump\t// in\n    tag_33:\n      dup1\n      0x1f\n      add\n      0x20\n      dup1\n      swap2\n      div\n      mul\n      0x20\n      add\n      mload(0x40)\n      swap1\n      dup2\n      add\n      0x40\n      mstore\n      dup1\n      swap3\n      swap2\n      swap1\n      dup2\n      dup2\n      mstore\n      0x20\n      add\n      dup3\n      dup1\n      sload\n      tag_35\n      swap1\n      tag_34\n      jump\t// in\n    tag_35:\n      dup1\n      iszero\n      tag_36\n      jumpi\n      dup1\n      0x1f\n      lt\n      tag_37\n      jumpi\n      0x0100\n      dup1\n      dup4\n      sload\n      div\n      mul\n      dup4\n      mstore\n      swap2\n      0x20\n      add\n      swap2\n      jump(tag_36)\n    tag_37:\n      dup3\n      add\n      swap2\n      swap1\n      0x00\n      mstore\n      keccak256(0x00, 0x20)\n      swap1\n    tag_38:\n      dup2\n      sload\n      dup2\n      mstore\n      swap1\n      0x01\n      add\n      swap1\n      0x20\n      add\n      dup1\n      dup4\n      gt\n      tag_38\n      jumpi\n      dup3\n      swap1\n      sub\n      0x1f\n      and\n      dup3\n      add\n      swap2\n    tag_36:\n      pop\n      pop\n      pop\n      pop\n      pop\n      dup2\n      jump\t// out\n        /* \"05_DataStorage/DataStorage.sol\":1090:1232  function bar() external pure returns(uint){... */\n    tag_27:\n        /* \"05_DataStorage/DataStorage.sol\":1127:1131  uint */\n      0x00\n        /* \"05_DataStorage/DataStorage.sol\":1143:1150  uint xx */\n      0x00\n        /* \"05_DataStorage/DataStorage.sol\":1153:1154  1 */\n      0x01\n        /* \"05_DataStorage/DataStorage.sol\":1143:1154  uint xx = 1 */\n      swap1\n      pop\n        /* \"05_DataStorage/DataStorage.sol\":1165:1172  uint yy */\n      0x00\n        /* \"05_DataStorage/DataStorage.sol\":1175:1176  3 */\n      0x03\n        /* \"05_DataStorage/DataStorage.sol\":1165:1176  uint yy = 3 */\n      swap1\n      pop\n        /* \"05_DataStorage/DataStorage.sol\":1187:1194  uint zz */\n      0x00\n        /* \"05_DataStorage/DataStorage.sol\":1202:1204  yy */\n      dup2\n        /* \"05_DataStorage/DataStorage.sol\":1197:1199  xx */\n      dup4\n        /* \"05_DataStorage/DataStorage.sol\":1197:1204  xx + yy */\n      tag_40\n      swap2\n      swap1\n      tag_41\n      jump\t// in\n    tag_40:\n        /* \"05_DataStorage/DataStorage.sol\":1187:1204  uint zz = xx + yy */\n      swap1\n      pop\n        /* \"05_DataStorage/DataStorage.sol\":1222:1224  zz */\n      dup1\n        /* \"05_DataStorage/DataStorage.sol\":1215:1224  return zz */\n      swap4\n      pop\n      pop\n      pop\n      pop\n        /* \"05_DataStorage/DataStorage.sol\":1090:1232  function bar() external pure returns(uint){... */\n      swap1\n      jump\t// out\n        /* \"#utility.yul\":7:84   */\n    tag_42:\n        /* \"#utility.yul\":44:51   */\n      0x00\n        /* \"#utility.yul\":73:78   */\n      dup2\n        /* \"#utility.yul\":62:78   */\n      swap1\n      pop\n        /* \"#utility.yul\":7:84   */\n      swap2\n      swap1\n      pop\n      jump\t// out\n        /* \"#utility.yul\":90:208   */\n    tag_43:\n        /* \"#utility.yul\":177:201   */\n      tag_76\n        /* \"#utility.yul\":195:200   */\n      dup2\n        /* \"#utility.yul\":177:201   */\n      tag_42\n      jump\t// in\n    tag_76:\n        /* \"#utility.yul\":172:175   */\n      dup3\n        /* \"#utility.yul\":165:202   */\n      mstore\n        /* \"#utility.yul\":90:208   */\n      pop\n      pop\n      jump\t// out\n        /* \"#utility.yul\":214:436   */\n    tag_12:\n        /* \"#utility.yul\":307:311   */\n      0x00\n        /* \"#utility.yul\":345:347   */\n      0x20\n        /* \"#utility.yul\":334:343   */\n      dup3\n        /* \"#utility.yul\":330:348   */\n      add\n        /* \"#utility.yul\":322:348   */\n      swap1\n      pop\n        /* \"#utility.yul\":358:429   */\n      tag_78\n        /* \"#utility.yul\":426:427   */\n      0x00\n        /* \"#utility.yul\":415:424   */\n      dup4\n        /* \"#utility.yul\":411:428   */\n      add\n        /* \"#utility.yul\":402:408   */\n      dup5\n        /* \"#utility.yul\":358:429   */\n      tag_43\n      jump\t// in\n    tag_78:\n        /* \"#utility.yul\":214:436   */\n      swap3\n      swap2\n      pop\n      pop\n      jump\t// out\n        /* \"#utility.yul\":442:568   */\n    tag_44:\n        /* \"#utility.yul\":479:486   */\n      0x00\n        /* \"#utility.yul\":519:561   */\n      0xffffffffffffffffffffffffffffffffffffffff\n        /* \"#utility.yul\":512:517   */\n      dup3\n        /* \"#utility.yul\":508:562   */\n      and\n        /* \"#utility.yul\":497:562   */\n      swap1\n      pop\n        /* \"#utility.yul\":442:568   */\n      swap2\n      swap1\n      pop\n      jump\t// out\n        /* \"#utility.yul\":574:670   */\n    tag_45:\n        /* \"#utility.yul\":611:618   */\n      0x00\n        /* \"#utility.yul\":640:664   */\n      tag_81\n        /* \"#utility.yul\":658:663   */\n      dup3\n        /* \"#utility.yul\":640:664   */\n      tag_44\n      jump\t// in\n    tag_81:\n        /* \"#utility.yul\":629:664   */\n      swap1\n      pop\n        /* \"#utility.yul\":574:670   */\n      swap2\n      swap1\n      pop\n      jump\t// out\n        /* \"#utility.yul\":676:794   */\n    tag_46:\n        /* \"#utility.yul\":763:787   */\n      tag_83\n        /* \"#utility.yul\":781:786   */\n      dup2\n        /* \"#utility.yul\":763:787   */\n      tag_45\n      jump\t// in\n    tag_83:\n        /* \"#utility.yul\":758:761   */\n      dup3\n        /* \"#utility.yul\":751:788   */\n      mstore\n        /* \"#utility.yul\":676:794   */\n      pop\n      pop\n      jump\t// out\n        /* \"#utility.yul\":800:898   */\n    tag_47:\n        /* \"#utility.yul\":851:857   */\n      0x00\n        /* \"#utility.yul\":885:890   */\n      dup2\n        /* \"#utility.yul\":879:891   */\n      mload\n        /* \"#utility.yul\":869:891   */\n      swap1\n      pop\n        /* \"#utility.yul\":800:898   */\n      swap2\n      swap1\n      pop\n      jump\t// out\n        /* \"#utility.yul\":904:1072   */\n    tag_48:\n        /* \"#utility.yul\":987:998   */\n      0x00\n        /* \"#utility.yul\":1021:1027   */\n      dup3\n        /* \"#utility.yul\":1016:1019   */\n      dup3\n        /* \"#utility.yul\":1009:1028   */\n      mstore\n        /* \"#utility.yul\":1061:1065   */\n      0x20\n        /* \"#utility.yul\":1056:1059   */\n      dup3\n        /* \"#utility.yul\":1052:1066   */\n      add\n        /* \"#utility.yul\":1037:1066   */\n      swap1\n      pop\n        /* \"#utility.yul\":904:1072   */\n      swap3\n      swap2\n      pop\n      pop\n      jump\t// out\n        /* \"#utility.yul\":1078:1217   */\n    tag_49:\n        /* \"#utility.yul\":1167:1173   */\n      dup3\n        /* \"#utility.yul\":1162:1165   */\n      dup2\n        /* \"#utility.yul\":1157:1160   */\n      dup4\n        /* \"#utility.yul\":1151:1174   */\n      mcopy\n        /* \"#utility.yul\":1208:1209   */\n      0x00\n        /* \"#utility.yul\":1199:1205   */\n      dup4\n        /* \"#utility.yul\":1194:1197   */\n      dup4\n        /* \"#utility.yul\":1190:1206   */\n      add\n        /* \"#utility.yul\":1183:1210   */\n      mstore\n        /* \"#utility.yul\":1078:1217   */\n      pop\n      pop\n      pop\n      jump\t// out\n        /* \"#utility.yul\":1223:1325   */\n    tag_50:\n        /* \"#utility.yul\":1264:1270   */\n      0x00\n        /* \"#utility.yul\":1315:1317   */\n      0x1f\n        /* \"#utility.yul\":1311:1318   */\n      not\n        /* \"#utility.yul\":1306:1308   */\n      0x1f\n        /* \"#utility.yul\":1299:1304   */\n      dup4\n        /* \"#utility.yul\":1295:1309   */\n      add\n        /* \"#utility.yul\":1291:1319   */\n      and\n        /* \"#utility.yul\":1281:1319   */\n      swap1\n      pop\n        /* \"#utility.yul\":1223:1325   */\n      swap2\n      swap1\n      pop\n      jump\t// out\n        /* \"#utility.yul\":1331:1704   */\n    tag_51:\n        /* \"#utility.yul\":1417:1420   */\n      0x00\n        /* \"#utility.yul\":1445:1483   */\n      tag_89\n        /* \"#utility.yul\":1477:1482   */\n      dup3\n        /* \"#utility.yul\":1445:1483   */\n      tag_47\n      jump\t// in\n    tag_89:\n        /* \"#utility.yul\":1499:1569   */\n      tag_90\n        /* \"#utility.yul\":1562:1568   */\n      dup2\n        /* \"#utility.yul\":1557:1560   */\n      dup6\n        /* \"#utility.yul\":1499:1569   */\n      tag_48\n      jump\t// in\n    tag_90:\n        /* \"#utility.yul\":1492:1569   */\n      swap4\n      pop\n        /* \"#utility.yul\":1578:1643   */\n      tag_91\n        /* \"#utility.yul\":1636:1642   */\n      dup2\n        /* \"#utility.yul\":1631:1634   */\n      dup6\n        /* \"#utility.yul\":1624:1628   */\n      0x20\n        /* \"#utility.yul\":1617:1622   */\n      dup7\n        /* \"#utility.yul\":1613:1629   */\n      add\n        /* \"#utility.yul\":1578:1643   */\n      tag_49\n      jump\t// in\n    tag_91:\n        /* \"#utility.yul\":1668:1697   */\n      tag_92\n        /* \"#utility.yul\":1690:1696   */\n      dup2\n        /* \"#utility.yul\":1668:1697   */\n      tag_50\n      jump\t// in\n    tag_92:\n        /* \"#utility.yul\":1663:1666   */\n      dup5\n        /* \"#utility.yul\":1659:1698   */\n      add\n        /* \"#utility.yul\":1652:1698   */\n      swap2\n      pop\n        /* \"#utility.yul\":1421:1704   */\n      pop\n        /* \"#utility.yul\":1331:1704   */\n      swap3\n      swap2\n      pop\n      pop\n      jump\t// out\n        /* \"#utility.yul\":1710:2239   */\n    tag_16:\n        /* \"#utility.yul\":1877:1881   */\n      0x00\n        /* \"#utility.yul\":1915:1917   */\n      0x60\n        /* \"#utility.yul\":1904:1913   */\n      dup3\n        /* \"#utility.yul\":1900:1918   */\n      add\n        /* \"#utility.yul\":1892:1918   */\n      swap1\n      pop\n        /* \"#utility.yul\":1928:1999   */\n      tag_94\n        /* \"#utility.yul\":1996:1997   */\n      0x00\n        /* \"#utility.yul\":1985:1994   */\n      dup4\n        /* \"#utility.yul\":1981:1998   */\n      add\n        /* \"#utility.yul\":1972:1978   */\n      dup7\n        /* \"#utility.yul\":1928:1999   */\n      tag_46\n      jump\t// in\n    tag_94:\n        /* \"#utility.yul\":2009:2081   */\n      tag_95\n        /* \"#utility.yul\":2077:2079   */\n      0x20\n        /* \"#utility.yul\":2066:2075   */\n      dup4\n        /* \"#utility.yul\":2062:2080   */\n      add\n        /* \"#utility.yul\":2053:2059   */\n      dup6\n        /* \"#utility.yul\":2009:2081   */\n      tag_43\n      jump\t// in\n    tag_95:\n        /* \"#utility.yul\":2128:2137   */\n      dup2\n        /* \"#utility.yul\":2122:2126   */\n      dup2\n        /* \"#utility.yul\":2118:2138   */\n      sub\n        /* \"#utility.yul\":2113:2115   */\n      0x40\n        /* \"#utility.yul\":2102:2111   */\n      dup4\n        /* \"#utility.yul\":2098:2116   */\n      add\n        /* \"#utility.yul\":2091:2139   */\n      mstore\n        /* \"#utility.yul\":2156:2232   */\n      tag_96\n        /* \"#utility.yul\":2227:2231   */\n      dup2\n        /* \"#utility.yul\":2218:2224   */\n      dup5\n        /* \"#utility.yul\":2156:2232   */\n      tag_51\n      jump\t// in\n    tag_96:\n        /* \"#utility.yul\":2148:2232   */\n      swap1\n      pop\n        /* \"#utility.yul\":1710:2239   */\n      swap5\n      swap4\n      pop\n      pop\n      pop\n      pop\n      jump\t// out\n        /* \"#utility.yul\":2245:2344   */\n    tag_52:\n        /* \"#utility.yul\":2297:2303   */\n      0x00\n        /* \"#utility.yul\":2331:2336   */\n      dup2\n        /* \"#utility.yul\":2325:2337   */\n      mload\n        /* \"#utility.yul\":2315:2337   */\n      swap1\n      pop\n        /* \"#utility.yul\":2245:2344   */\n      swap2\n      swap1\n      pop\n      jump\t// out\n        /* \"#utility.yul\":2350:2519   */\n    tag_53:\n        /* \"#utility.yul\":2434:2445   */\n      0x00\n        /* \"#utility.yul\":2468:2474   */\n      dup3\n        /* \"#utility.yul\":2463:2466   */\n      dup3\n        /* \"#utility.yul\":2456:2475   */\n      mstore\n        /* \"#utility.yul\":2508:2512   */\n      0x20\n        /* \"#utility.yul\":2503:2506   */\n      dup3\n        /* \"#utility.yul\":2499:2513   */\n      add\n        /* \"#utility.yul\":2484:2513   */\n      swap1\n      pop\n        /* \"#utility.yul\":2350:2519   */\n      swap3\n      swap2\n      pop\n      pop\n      jump\t// out\n        /* \"#utility.yul\":2525:2902   */\n    tag_54:\n        /* \"#utility.yul\":2613:2616   */\n      0x00\n        /* \"#utility.yul\":2641:2680   */\n      tag_100\n        /* \"#utility.yul\":2674:2679   */\n      dup3\n        /* \"#utility.yul\":2641:2680   */\n      tag_52\n      jump\t// in\n    tag_100:\n        /* \"#utility.yul\":2696:2767   */\n      tag_101\n        /* \"#utility.yul\":2760:2766   */\n      dup2\n        /* \"#utility.yul\":2755:2758   */\n      dup6\n        /* \"#utility.yul\":2696:2767   */\n      tag_53\n      jump\t// in\n    tag_101:\n        /* \"#utility.yul\":2689:2767   */\n      swap4\n      pop\n        /* \"#utility.yul\":2776:2841   */\n      tag_102\n        /* \"#utility.yul\":2834:2840   */\n      dup2\n        /* \"#utility.yul\":2829:2832   */\n      dup6\n        /* \"#utility.yul\":2822:2826   */\n      0x20\n        /* \"#utility.yul\":2815:2820   */\n      dup7\n        /* \"#utility.yul\":2811:2827   */\n      add\n        /* \"#utility.yul\":2776:2841   */\n      tag_49\n      jump\t// in\n    tag_102:\n        /* \"#utility.yul\":2866:2895   */\n      tag_103\n        /* \"#utility.yul\":2888:2894   */\n      dup2\n        /* \"#utility.yul\":2866:2895   */\n      tag_50\n      jump\t// in\n    tag_103:\n        /* \"#utility.yul\":2861:2864   */\n      dup5\n        /* \"#utility.yul\":2857:2896   */\n      add\n        /* \"#utility.yul\":2850:2896   */\n      swap2\n      pop\n        /* \"#utility.yul\":2617:2902   */\n      pop\n        /* \"#utility.yul\":2525:2902   */\n      swap3\n      swap2\n      pop\n      pop\n      jump\t// out\n        /* \"#utility.yul\":2908:3221   */\n    tag_25:\n        /* \"#utility.yul\":3021:3025   */\n      0x00\n        /* \"#utility.yul\":3059:3061   */\n      0x20\n        /* \"#utility.yul\":3048:3057   */\n      dup3\n        /* \"#utility.yul\":3044:3062   */\n      add\n        /* \"#utility.yul\":3036:3062   */\n      swap1\n      pop\n        /* \"#utility.yul\":3108:3117   */\n      dup2\n        /* \"#utility.yul\":3102:3106   */\n      dup2\n        /* \"#utility.yul\":3098:3118   */\n      sub\n        /* \"#utility.yul\":3094:3095   */\n      0x00\n        /* \"#utility.yul\":3083:3092   */\n      dup4\n        /* \"#utility.yul\":3079:3096   */\n      add\n        /* \"#utility.yul\":3072:3119   */\n      mstore\n        /* \"#utility.yul\":3136:3214   */\n      tag_105\n        /* \"#utility.yul\":3209:3213   */\n      dup2\n        /* \"#utility.yul\":3200:3206   */\n      dup5\n        /* \"#utility.yul\":3136:3214   */\n      tag_54\n      jump\t// in\n    tag_105:\n        /* \"#utility.yul\":3128:3214   */\n      swap1\n      pop\n        /* \"#utility.yul\":2908:3221   */\n      swap3\n      swap2\n      pop\n      pop\n      jump\t// out\n        /* \"#utility.yul\":3227:3407   */\n    tag_55:\n        /* \"#utility.yul\":3275:3352   */\n      0x4e487b7100000000000000000000000000000000000000000000000000000000\n        /* \"#utility.yul\":3272:3273   */\n      0x00\n        /* \"#utility.yul\":3265:3353   */\n      mstore\n        /* \"#utility.yul\":3372:3376   */\n      0x41\n        /* \"#utility.yul\":3369:3370   */\n      0x04\n        /* \"#utility.yul\":3362:3377   */\n      mstore\n        /* \"#utility.yul\":3396:3400   */\n      0x24\n        /* \"#utility.yul\":3393:3394   */\n      0x00\n        /* \"#utility.yul\":3386:3401   */\n      revert\n        /* \"#utility.yul\":3413:3593   */\n    tag_56:\n        /* \"#utility.yul\":3461:3538   */\n      0x4e487b7100000000000000000000000000000000000000000000000000000000\n        /* \"#utility.yul\":3458:3459   */\n      0x00\n        /* \"#utility.yul\":3451:3539   */\n      mstore\n        /* \"#utility.yul\":3558:3562   */\n      0x22\n        /* \"#utility.yul\":3555:3556   */\n      0x04\n        /* \"#utility.yul\":3548:3563   */\n      mstore\n        /* \"#utility.yul\":3582:3586   */\n      0x24\n        /* \"#utility.yul\":3579:3580   */\n      0x00\n        /* \"#utility.yul\":3572:3587   */\n      revert\n        /* \"#utility.yul\":3599:3919   */\n    tag_34:\n        /* \"#utility.yul\":3643:3649   */\n      0x00\n        /* \"#utility.yul\":3680:3681   */\n      0x02\n        /* \"#utility.yul\":3674:3678   */\n      dup3\n        /* \"#utility.yul\":3670:3682   */\n      div\n        /* \"#utility.yul\":3660:3682   */\n      swap1\n      pop\n        /* \"#utility.yul\":3727:3728   */\n      0x01\n        /* \"#utility.yul\":3721:3725   */\n      dup3\n        /* \"#utility.yul\":3717:3729   */\n      and\n        /* \"#utility.yul\":3748:3766   */\n      dup1\n        /* \"#utility.yul\":3738:3819   */\n      tag_109\n      jumpi\n        /* \"#utility.yul\":3804:3808   */\n      0x7f\n        /* \"#utility.yul\":3796:3802   */\n      dup3\n        /* \"#utility.yul\":3792:3809   */\n      and\n        /* \"#utility.yul\":3782:3809   */\n      swap2\n      pop\n        /* \"#utility.yul\":3738:3819   */\n    tag_109:\n        /* \"#utility.yul\":3866:3868   */\n      0x20\n        /* \"#utility.yul\":3858:3864   */\n      dup3\n        /* \"#utility.yul\":3855:3869   */\n      lt\n        /* \"#utility.yul\":3835:3853   */\n      dup2\n        /* \"#utility.yul\":3832:3870   */\n      sub\n        /* \"#utility.yul\":3829:3913   */\n      tag_110\n      jumpi\n        /* \"#utility.yul\":3885:3903   */\n      tag_111\n      tag_56\n      jump\t// in\n    tag_111:\n        /* \"#utility.yul\":3829:3913   */\n    tag_110:\n        /* \"#utility.yul\":3650:3919   */\n      pop\n        /* \"#utility.yul\":3599:3919   */\n      swap2\n      swap1\n      pop\n      jump\t// out\n        /* \"#utility.yul\":3925:4066   */\n    tag_57:\n        /* \"#utility.yul\":3974:3978   */\n      0x00\n        /* \"#utility.yul\":3997:4000   */\n      dup2\n        /* \"#utility.yul\":3989:4000   */\n      swap1\n      pop\n        /* \"#utility.yul\":4020:4023   */\n      dup2\n        /* \"#utility.yul\":4017:4018   */\n      0x00\n        /* \"#utility.yul\":4010:4024   */\n      mstore\n        /* \"#utility.yul\":4054:4058   */\n      0x20\n        /* \"#utility.yul\":4051:4052   */\n      0x00\n        /* \"#utility.yul\":4041:4059   */\n      keccak256\n        /* \"#utility.yul\":4033:4059   */\n      swap1\n      pop\n        /* \"#utility.yul\":3925:4066   */\n      swap2\n      swap1\n      pop\n      jump\t// out\n        /* \"#utility.yul\":4072:4165   */\n    tag_58:\n        /* \"#utility.yul\":4109:4115   */\n      0x00\n        /* \"#utility.yul\":4156:4158   */\n      0x20\n        /* \"#utility.yul\":4151:4153   */\n      0x1f\n        /* \"#utility.yul\":4144:4149   */\n      dup4\n        /* \"#utility.yul\":4140:4154   */\n      add\n        /* \"#utility.yul\":4136:4159   */\n      div\n        /* \"#utility.yul\":4126:4159   */\n      swap1\n      pop\n        /* \"#utility.yul\":4072:4165   */\n      swap2\n      swap1\n      pop\n      jump\t// out\n        /* \"#utility.yul\":4171:4278   */\n    tag_59:\n        /* \"#utility.yul\":4215:4223   */\n      0x00\n        /* \"#utility.yul\":4265:4270   */\n      dup3\n        /* \"#utility.yul\":4259:4263   */\n      dup3\n        /* \"#utility.yul\":4255:4271   */\n      shl\n        /* \"#utility.yul\":4234:4271   */\n      swap1\n      pop\n        /* \"#utility.yul\":4171:4278   */\n      swap3\n      swap2\n      pop\n      pop\n      jump\t// out\n        /* \"#utility.yul\":4284:4677   */\n    tag_60:\n        /* \"#utility.yul\":4353:4359   */\n      0x00\n        /* \"#utility.yul\":4403:4404   */\n      0x08\n        /* \"#utility.yul\":4391:4401   */\n      dup4\n        /* \"#utility.yul\":4387:4405   */\n      mul\n        /* \"#utility.yul\":4426:4523   */\n      tag_116\n        /* \"#utility.yul\":4456:4522   */\n      0xffffffffffffffffffffffffffffffffffffffffffffffffffffffffffffffff\n        /* \"#utility.yul\":4445:4454   */\n      dup3\n        /* \"#utility.yul\":4426:4523   */\n      tag_59\n      jump\t// in\n    tag_116:\n        /* \"#utility.yul\":4544:4583   */\n      tag_117\n        /* \"#utility.yul\":4574:4582   */\n      dup7\n        /* \"#utility.yul\":4563:4572   */\n      dup4\n        /* \"#utility.yul\":4544:4583   */\n      tag_59\n      jump\t// in\n    tag_117:\n        /* \"#utility.yul\":4532:4583   */\n      swap6\n      pop\n        /* \"#utility.yul\":4616:4620   */\n      dup1\n        /* \"#utility.yul\":4612:4621   */\n      not\n        /* \"#utility.yul\":4605:4610   */\n      dup5\n        /* \"#utility.yul\":4601:4622   */\n      and\n        /* \"#utility.yul\":4592:4622   */\n      swap4\n      pop\n        /* \"#utility.yul\":4665:4669   */\n      dup1\n        /* \"#utility.yul\":4655:4663   */\n      dup7\n        /* \"#utility.yul\":4651:4670   */\n      and\n        /* \"#utility.yul\":4644:4649   */\n      dup5\n        /* \"#utility.yul\":4641:4671   */\n      or\n        /* \"#utility.yul\":4631:4671   */\n      swap3\n      pop\n        /* \"#utility.yul\":4360:4677   */\n      pop\n      pop\n        /* \"#utility.yul\":4284:4677   */\n      swap4\n      swap3\n      pop\n      pop\n      pop\n      jump\t// out\n        /* \"#utility.yul\":4683:4743   */\n    tag_61:\n        /* \"#utility.yul\":4711:4714   */\n      0x00\n        /* \"#utility.yul\":4732:4737   */\n      dup2\n        /* \"#utility.yul\":4725:4737   */\n      swap1\n      pop\n        /* \"#utility.yul\":4683:4743   */\n      swap2\n      swap1\n      pop\n      jump\t// out\n        /* \"#utility.yul\":4749:4891   */\n    tag_62:\n        /* \"#utility.yul\":4799:4808   */\n      0x00\n        /* \"#utility.yul\":4832:4885   */\n      tag_120\n        /* \"#utility.yul\":4850:4884   */\n      tag_121\n        /* \"#utility.yul\":4859:4883   */\n      tag_122\n        /* \"#utility.yul\":4877:4882   */\n      dup5\n        /* \"#utility.yul\":4859:4883   */\n      tag_42\n      jump\t// in\n    tag_122:\n        /* \"#utility.yul\":4850:4884   */\n      tag_61\n      jump\t// in\n    tag_121:\n        /* \"#utility.yul\":4832:4885   */\n      tag_42\n      jump\t// in\n    tag_120:\n        /* \"#utility.yul\":4819:4885   */\n      swap1\n      pop\n        /* \"#utility.yul\":4749:4891   */\n      swap2\n      swap1\n      pop\n      jump\t// out\n        /* \"#utility.yul\":4897:4972   */\n    tag_63:\n        /* \"#utility.yul\":4940:4943   */\n      0x00\n        /* \"#utility.yul\":4961:4966   */\n      dup2\n        /* \"#utility.yul\":4954:4966   */\n      swap1\n      pop\n        /* \"#utility.yul\":4897:4972   */\n      swap2\n      swap1\n      pop\n      jump\t// out\n        /* \"#utility.yul\":4978:5247   */\n    tag_64:\n        /* \"#utility.yul\":5088:5127   */\n      tag_125\n        /* \"#utility.yul\":5119:5126   */\n      dup4\n        /* \"#utility.yul\":5088:5127   */\n      tag_62\n      jump\t// in\n    tag_125:\n        /* \"#utility.yul\":5149:5240   */\n      tag_126\n        /* \"#utility.yul\":5198:5239   */\n      tag_127\n        /* \"#utility.yul\":5222:5238   */\n      dup3\n        /* \"#utility.yul\":5198:5239   */\n      tag_63\n      jump\t// in\n    tag_127:\n        /* \"#utility.yul\":5190:5196   */\n      dup5\n        /* \"#utility.yul\":5183:5187   */\n      dup5\n        /* \"#utility.yul\":5177:5188   */\n      sload\n        /* \"#utility.yul\":5149:5240   */\n      tag_60\n      jump\t// in\n    tag_126:\n        /* \"#utility.yul\":5143:5147   */\n      dup3\n        /* \"#utility.yul\":5136:5241   */\n      sstore\n        /* \"#utility.yul\":5054:5247   */\n      pop\n        /* \"#utility.yul\":4978:5247   */\n      pop\n      pop\n      pop\n      jump\t// out\n        /* \"#utility.yul\":5253:5326   */\n    tag_65:\n        /* \"#utility.yul\":5298:5301   */\n      0x00\n        /* \"#utility.yul\":5319:5320   */\n      0x00\n        /* \"#utility.yul\":5312:5320   */\n      swap1\n      pop\n        /* \"#utility.yul\":5253:5326   */\n      swap1\n      jump\t// out\n        /* \"#utility.yul\":5332:5521   */\n    tag_66:\n        /* \"#utility.yul\":5409:5441   */\n      tag_130\n      tag_65\n      jump\t// in\n    tag_130:\n        /* \"#utility.yul\":5450:5515   */\n      tag_131\n        /* \"#utility.yul\":5508:5514   */\n      dup2\n        /* \"#utility.yul\":5500:5506   */\n      dup5\n        /* \"#utility.yul\":5494:5498   */\n      dup5\n        /* \"#utility.yul\":5450:5515   */\n      tag_64\n      jump\t// in\n    tag_131:\n        /* \"#utility.yul\":5385:5521   */\n      pop\n        /* \"#utility.yul\":5332:5521   */\n      pop\n      pop\n      jump\t// out\n        /* \"#utility.yul\":5527:5713   */\n    tag_67:\n        /* \"#utility.yul\":5587:5707   */\n    tag_133:\n        /* \"#utility.yul\":5604:5607   */\n      dup2\n        /* \"#utility.yul\":5597:5602   */\n      dup2\n        /* \"#utility.yul\":5594:5608   */\n      lt\n        /* \"#utility.yul\":5587:5707   */\n      iszero\n      tag_135\n      jumpi\n        /* \"#utility.yul\":5658:5697   */\n      tag_136\n        /* \"#utility.yul\":5695:5696   */\n      0x00\n        /* \"#utility.yul\":5688:5693   */\n      dup3\n        /* \"#utility.yul\":5658:5697   */\n      tag_66\n      jump\t// in\n    tag_136:\n        /* \"#utility.yul\":5631:5632   */\n      0x01\n        /* \"#utility.yul\":5624:5629   */\n      dup2\n        /* \"#utility.yul\":5620:5633   */\n      add\n        /* \"#utility.yul\":5611:5633   */\n      swap1\n      pop\n        /* \"#utility.yul\":5587:5707   */\n      jump(tag_133)\n    tag_135:\n        /* \"#utility.yul\":5527:5713   */\n      pop\n      pop\n      jump\t// out\n        /* \"#utility.yul\":5719:6262   */\n    tag_68:\n        /* \"#utility.yul\":5820:5822   */\n      0x1f\n        /* \"#utility.yul\":5815:5818   */\n      dup3\n        /* \"#utility.yul\":5812:5823   */\n      gt\n        /* \"#utility.yul\":5809:6255   */\n      iszero\n      tag_138\n      jumpi\n        /* \"#utility.yul\":5854:5892   */\n      tag_139\n        /* \"#utility.yul\":5886:5891   */\n      dup2\n        /* \"#utility.yul\":5854:5892   */\n      tag_57\n      jump\t// in\n    tag_139:\n        /* \"#utility.yul\":5938:5967   */\n      tag_140\n        /* \"#utility.yul\":5956:5966   */\n      dup5\n        /* \"#utility.yul\":5938:5967   */\n      tag_58\n      jump\t// in\n    tag_140:\n        /* \"#utility.yul\":5928:5936   */\n      dup2\n        /* \"#utility.yul\":5924:5968   */\n      add\n        /* \"#utility.yul\":6121:6123   */\n      0x20\n        /* \"#utility.yul\":6109:6119   */\n      dup6\n        /* \"#utility.yul\":6106:6124   */\n      lt\n        /* \"#utility.yul\":6103:6152   */\n      iszero\n      tag_141\n      jumpi\n        /* \"#utility.yul\":6142:6150   */\n      dup2\n        /* \"#utility.yul\":6127:6150   */\n      swap1\n      pop\n        /* \"#utility.yul\":6103:6152   */\n    tag_141:\n        /* \"#utility.yul\":6165:6245   */\n      tag_142\n        /* \"#utility.yul\":6221:6243   */\n      tag_143\n        /* \"#utility.yul\":6239:6242   */\n      dup6\n        /* \"#utility.yul\":6221:6243   */\n      tag_58\n      jump\t// in\n    tag_143:\n        /* \"#utility.yul\":6211:6219   */\n      dup4\n        /* \"#utility.yul\":6207:6244   */\n      add\n        /* \"#utility.yul\":6194:6205   */\n      dup3\n        /* \"#utility.yul\":6165:6245   */\n      tag_67\n      jump\t// in\n    tag_142:\n        /* \"#utility.yul\":5824:6255   */\n      pop\n      pop\n        /* \"#utility.yul\":5809:6255   */\n    tag_138:\n        /* \"#utility.yul\":5719:6262   */\n      pop\n      pop\n      pop\n      jump\t// out\n        /* \"#utility.yul\":6268:6385   */\n    tag_69:\n        /* \"#utility.yul\":6322:6330   */\n      0x00\n        /* \"#utility.yul\":6372:6377   */\n      dup3\n        /* \"#utility.yul\":6366:6370   */\n      dup3\n        /* \"#utility.yul\":6362:6378   */\n      shr\n        /* \"#utility.yul\":6341:6378   */\n      swap1\n      pop\n        /* \"#utility.yul\":6268:6385   */\n      swap3\n      swap2\n      pop\n      pop\n      jump\t// out\n        /* \"#utility.yul\":6391:6560   */\n    tag_70:\n        /* \"#utility.yul\":6435:6441   */\n      0x00\n        /* \"#utility.yul\":6468:6519   */\n      tag_146\n        /* \"#utility.yul\":6516:6517   */\n      0x00\n        /* \"#utility.yul\":6512:6518   */\n      not\n        /* \"#utility.yul\":6504:6509   */\n      dup5\n        /* \"#utility.yul\":6501:6502   */\n      0x08\n        /* \"#utility.yul\":6497:6510   */\n      mul\n        /* \"#utility.yul\":6468:6519   */\n      tag_69\n      jump\t// in\n    tag_146:\n        /* \"#utility.yul\":6464:6520   */\n      not\n        /* \"#utility.yul\":6549:6553   */\n      dup1\n        /* \"#utility.yul\":6543:6547   */\n      dup4\n        /* \"#utility.yul\":6539:6554   */\n      and\n        /* \"#utility.yul\":6529:6554   */\n      swap2\n      pop\n        /* \"#utility.yul\":6442:6560   */\n      pop\n        /* \"#utility.yul\":6391:6560   */\n      swap3\n      swap2\n      pop\n      pop\n      jump\t// out\n        /* \"#utility.yul\":6565:6860   */\n    tag_71:\n        /* \"#utility.yul\":6641:6645   */\n      0x00\n        /* \"#utility.yul\":6787:6816   */\n      tag_148\n        /* \"#utility.yul\":6812:6815   */\n      dup4\n        /* \"#utility.yul\":6806:6810   */\n      dup4\n        /* \"#utility.yul\":6787:6816   */\n      tag_70\n      jump\t// in\n    tag_148:\n        /* \"#utility.yul\":6779:6816   */\n      swap2\n      pop\n        /* \"#utility.yul\":6849:6852   */\n      dup3\n        /* \"#utility.yul\":6846:6847   */\n      0x02\n        /* \"#utility.yul\":6842:6853   */\n      mul\n        /* \"#utility.yul\":6836:6840   */\n      dup3\n        /* \"#utility.yul\":6833:6854   */\n      or\n        /* \"#utility.yul\":6825:6854   */\n      swap1\n      pop\n        /* \"#utility.yul\":6565:6860   */\n      swap3\n      swap2\n      pop\n      pop\n      jump\t// out\n        /* \"#utility.yul\":6865:8260   */\n    tag_32:\n        /* \"#utility.yul\":6982:7019   */\n      tag_150\n        /* \"#utility.yul\":7015:7018   */\n      dup3\n        /* \"#utility.yul\":6982:7019   */\n      tag_52\n      jump\t// in\n    tag_150:\n        /* \"#utility.yul\":7084:7102   */\n      0xffffffffffffffff\n        /* \"#utility.yul\":7076:7082   */\n      dup2\n        /* \"#utility.yul\":7073:7103   */\n      gt\n        /* \"#utility.yul\":7070:7126   */\n      iszero\n      tag_151\n      jumpi\n        /* \"#utility.yul\":7106:7124   */\n      tag_152\n      tag_55\n      jump\t// in\n    tag_152:\n        /* \"#utility.yul\":7070:7126   */\n    tag_151:\n        /* \"#utility.yul\":7150:7188   */\n      tag_153\n        /* \"#utility.yul\":7182:7186   */\n      dup3\n        /* \"#utility.yul\":7176:7187   */\n      sload\n        /* \"#utility.yul\":7150:7188   */\n      tag_34\n      jump\t// in\n    tag_153:\n        /* \"#utility.yul\":7235:7302   */\n      tag_154\n        /* \"#utility.yul\":7295:7301   */\n      dup3\n        /* \"#utility.yul\":7287:7293   */\n      dup3\n        /* \"#utility.yul\":7281:7285   */\n      dup6\n        /* \"#utility.yul\":7235:7302   */\n      tag_68\n      jump\t// in\n    tag_154:\n        /* \"#utility.yul\":7329:7330   */\n      0x00\n        /* \"#utility.yul\":7353:7357   */\n      0x20\n        /* \"#utility.yul\":7340:7357   */\n      swap1\n      pop\n        /* \"#utility.yul\":7385:7387   */\n      0x1f\n        /* \"#utility.yul\":7377:7383   */\n      dup4\n        /* \"#utility.yul\":7374:7388   */\n      gt\n        /* \"#utility.yul\":7402:7403   */\n      0x01\n        /* \"#utility.yul\":7397:8015   */\n      dup2\n      eq\n      tag_156\n      jumpi\n        /* \"#utility.yul\":8059:8060   */\n      0x00\n        /* \"#utility.yul\":8076:8082   */\n      dup5\n        /* \"#utility.yul\":8073:8150   */\n      iszero\n      tag_157\n      jumpi\n        /* \"#utility.yul\":8125:8134   */\n      dup3\n        /* \"#utility.yul\":8120:8123   */\n      dup8\n        /* \"#utility.yul\":8116:8135   */\n      add\n        /* \"#utility.yul\":8110:8136   */\n      mload\n        /* \"#utility.yul\":8101:8136   */\n      swap1\n      pop\n        /* \"#utility.yul\":8073:8150   */\n    tag_157:\n        /* \"#utility.yul\":8176:8243   */\n      tag_158\n        /* \"#utility.yul\":8236:8242   */\n      dup6\n        /* \"#utility.yul\":8229:8234   */\n      dup3\n        /* \"#utility.yul\":8176:8243   */\n      tag_71\n      jump\t// in\n    tag_158:\n        /* \"#utility.yul\":8170:8174   */\n      dup7\n        /* \"#utility.yul\":8163:8244   */\n      sstore\n        /* \"#utility.yul\":8032:8254   */\n      pop\n        /* \"#utility.yul\":7367:8254   */\n      jump(tag_155)\n        /* \"#utility.yul\":7397:8015   */\n    tag_156:\n        /* \"#utility.yul\":7449:7453   */\n      0x1f\n        /* \"#utility.yul\":7445:7454   */\n      not\n        /* \"#utility.yul\":7437:7443   */\n      dup5\n        /* \"#utility.yul\":7433:7455   */\n      and\n        /* \"#utility.yul\":7483:7520   */\n      tag_159\n        /* \"#utility.yul\":7515:7519   */\n      dup7\n        /* \"#utility.yul\":7483:7520   */\n      tag_57\n      jump\t// in\n    tag_159:\n        /* \"#utility.yul\":7542:7543   */\n      0x00\n        /* \"#utility.yul\":7556:7764   */\n    tag_160:\n        /* \"#utility.yul\":7570:7577   */\n      dup3\n        /* \"#utility.yul\":7567:7568   */\n      dup2\n        /* \"#utility.yul\":7564:7578   */\n      lt\n        /* \"#utility.yul\":7556:7764   */\n      iszero\n      tag_162\n      jumpi\n        /* \"#utility.yul\":7649:7658   */\n      dup5\n        /* \"#utility.yul\":7644:7647   */\n      dup10\n        /* \"#utility.yul\":7640:7659   */\n      add\n        /* \"#utility.yul\":7634:7660   */\n      mload\n        /* \"#utility.yul\":7626:7632   */\n      dup3\n        /* \"#utility.yul\":7619:7661   */\n      sstore\n        /* \"#utility.yul\":7700:7701   */\n      0x01\n        /* \"#utility.yul\":7692:7698   */\n      dup3\n        /* \"#utility.yul\":7688:7702   */\n      add\n        /* \"#utility.yul\":7678:7702   */\n      swap2\n      pop\n        /* \"#utility.yul\":7747:7749   */\n      0x20\n        /* \"#utility.yul\":7736:7745   */\n      dup6\n        /* \"#utility.yul\":7732:7750   */\n      add\n        /* \"#utility.yul\":7719:7750   */\n      swap5\n      pop\n        /* \"#utility.yul\":7593:7597   */\n      0x20\n        /* \"#utility.yul\":7590:7591   */\n      dup2\n        /* \"#utility.yul\":7586:7598   */\n      add\n        /* \"#utility.yul\":7581:7598   */\n      swap1\n      pop\n        /* \"#utility.yul\":7556:7764   */\n      jump(tag_160)\n    tag_162:\n        /* \"#utility.yul\":7792:7798   */\n      dup7\n        /* \"#utility.yul\":7783:7790   */\n      dup4\n        /* \"#utility.yul\":7780:7799   */\n      lt\n        /* \"#utility.yul\":7777:7956   */\n      iszero\n      tag_163\n      jumpi\n        /* \"#utility.yul\":7850:7859   */\n      dup5\n        /* \"#utility.yul\":7845:7848   */\n      dup10\n        /* \"#utility.yul\":7841:7860   */\n      add\n        /* \"#utility.yul\":7835:7861   */\n      mload\n        /* \"#utility.yul\":7893:7941   */\n      tag_164\n        /* \"#utility.yul\":7935:7939   */\n      0x1f\n        /* \"#utility.yul\":7927:7933   */\n      dup10\n        /* \"#utility.yul\":7923:7940   */\n      and\n        /* \"#utility.yul\":7912:7921   */\n      dup3\n        /* \"#utility.yul\":7893:7941   */\n      tag_70\n      jump\t// in\n    tag_164:\n        /* \"#utility.yul\":7885:7891   */\n      dup4\n        /* \"#utility.yul\":7878:7942   */\n      sstore\n        /* \"#utility.yul\":7800:7956   */\n      pop\n        /* \"#utility.yul\":7777:7956   */\n    tag_163:\n        /* \"#utility.yul\":8002:8003   */\n      0x01\n        /* \"#utility.yul\":7998:7999   */\n      0x02\n        /* \"#utility.yul\":7990:7996   */\n      dup9\n        /* \"#utility.yul\":7986:8000   */\n      mul\n        /* \"#utility.yul\":7982:8004   */\n      add\n        /* \"#utility.yul\":7976:7980   */\n      dup9\n        /* \"#utility.yul\":7969:8005   */\n      sstore\n        /* \"#utility.yul\":7404:8015   */\n      pop\n      pop\n      pop\n        /* \"#utility.yul\":7367:8254   */\n    tag_155:\n      pop\n        /* \"#utility.yul\":6957:8260   */\n      pop\n      pop\n      pop\n        /* \"#utility.yul\":6865:8260   */\n      pop\n      pop\n      jump\t// out\n        /* \"#utility.yul\":8266:8446   */\n    tag_72:\n        /* \"#utility.yul\":8314:8391   */\n      0x4e487b7100000000000000000000000000000000000000000000000000000000\n        /* \"#utility.yul\":8311:8312   */\n      0x00\n        /* \"#utility.yul\":8304:8392   */\n      mstore\n        /* \"#utility.yul\":8411:8415   */\n      0x11\n        /* \"#utility.yul\":8408:8409   */\n      0x04\n        /* \"#utility.yul\":8401:8416   */\n      mstore\n        /* \"#utility.yul\":8435:8439   */\n      0x24\n        /* \"#utility.yul\":8432:8433   */\n      0x00\n        /* \"#utility.yul\":8425:8440   */\n      revert\n        /* \"#utility.yul\":8452:8643   */\n    tag_41:\n        /* \"#utility.yul\":8492:8495   */\n      0x00\n        /* \"#utility.yul\":8511:8531   */\n      tag_167\n        /* \"#utility.yul\":8529:8530   */\n      dup3\n        /* \"#utility.yul\":8511:8531   */\n      tag_42\n      jump\t// in\n    tag_167:\n        /* \"#utility.yul\":8506:8531   */\n      swap2\n      pop\n        /* \"#utility.yul\":8545:8565   */\n      tag_168\n        /* \"#utility.yul\":8563:8564   */\n      dup4\n        /* \"#utility.yul\":8545:8565   */\n      tag_42\n      jump\t// in\n    tag_168:\n        /* \"#utility.yul\":8540:8565   */\n      swap3\n      pop\n        /* \"#utility.yul\":8588:8589   */\n      dup3\n        /* \"#utility.yul\":8585:8586   */\n      dup3\n        /* \"#utility.yul\":8581:8590   */\n      add\n        /* \"#utility.yul\":8574:8590   */\n      swap1\n      pop\n        /* \"#utility.yul\":8609:8612   */\n      dup1\n        /* \"#utility.yul\":8606:8607   */\n      dup3\n        /* \"#utility.yul\":8603:8613   */\n      gt\n        /* \"#utility.yul\":8600:8636   */\n      iszero\n      tag_169\n      jumpi\n        /* \"#utility.yul\":8616:8634   */\n      tag_170\n      tag_72\n      jump\t// in\n    tag_170:\n        /* \"#utility.yul\":8600:8636   */\n    tag_169:\n        /* \"#utility.yul\":8452:8643   */\n      swap3\n      swap2\n      pop\n      pop\n      jump\t// out\n\n    auxdata: 0xa2646970667358221220f42f8d07eefb2fb3c07f4f7f9ec23984c9163930e08329a97c70e906ed65fa8764736f6c634300081e0033\n}\n",
				"bytecode": {
					"linkReferences": {},
					"object": "608060405260015f553480156012575f5ffd5b50610797806100205f395ff3fe608060405234801561000f575f5ffd5b5060043610610060575f3560e01c80630c55699c14610064578063a05f990614610082578063a56dfe4a146100a2578063c2985578146100c0578063c5d7802e146100ca578063febb0f7e146100e8575b5f5ffd5b61006c610106565b6040516100799190610292565b60405180910390f35b61008a61010b565b6040516100999392919061035a565b60405180910390f35b6100aa61016f565b6040516100b79190610292565b60405180910390f35b6100c8610175565b005b6100d26101cb565b6040516100df91906103e8565b60405180910390f35b6100f0610257565b6040516100fd9190610292565b60405180910390f35b5f5481565b5f5f60605f3390505f4390505f5f368080601f0160208091040260200160405190810160405280939291908181526020018383808284375f81840152601f19601f820116905080830192505050505050509050828282955095509550505050909192565b60015481565b60055f8190555060026001819055506040518060400160405280600481526020017f3078414100000000000000000000000000000000000000000000000000000000815250600290816101c89190610632565b50565b600280546101d890610462565b80601f016020809104026020016040519081016040528092919081815260200182805461020490610462565b801561024f5780601f106102265761010080835404028352916020019161024f565b820191905f5260205f20905b81548152906001019060200180831161023257829003601f168201915b505050505081565b5f5f600190505f600390505f818361026f919061072e565b905080935050505090565b5f819050919050565b61028c8161027a565b82525050565b5f6020820190506102a55f830184610283565b92915050565b5f73ffffffffffffffffffffffffffffffffffffffff82169050919050565b5f6102d4826102ab565b9050919050565b6102e4816102ca565b82525050565b5f81519050919050565b5f82825260208201905092915050565b8281835e5f83830152505050565b5f601f19601f8301169050919050565b5f61032c826102ea565b61033681856102f4565b9350610346818560208601610304565b61034f81610312565b840191505092915050565b5f60608201905061036d5f8301866102db565b61037a6020830185610283565b818103604083015261038c8184610322565b9050949350505050565b5f81519050919050565b5f82825260208201905092915050565b5f6103ba82610396565b6103c481856103a0565b93506103d4818560208601610304565b6103dd81610312565b840191505092915050565b5f6020820190508181035f83015261040081846103b0565b905092915050565b7f4e487b71000000000000000000000000000000000000000000000000000000005f52604160045260245ffd5b7f4e487b71000000000000000000000000000000000000000000000000000000005f52602260045260245ffd5b5f600282049050600182168061047957607f821691505b60208210810361048c5761048b610435565b5b50919050565b5f819050815f5260205f209050919050565b5f6020601f8301049050919050565b5f82821b905092915050565b5f600883026104ee7fffffffffffffffffffffffffffffffffffffffffffffffffffffffffffffffff826104b3565b6104f886836104b3565b95508019841693508086168417925050509392505050565b5f819050919050565b5f61053361052e6105298461027a565b610510565b61027a565b9050919050565b5f819050919050565b61054c83610519565b6105606105588261053a565b8484546104bf565b825550505050565b5f5f905090565b610577610568565b610582818484610543565b505050565b5b818110156105a55761059a5f8261056f565b600181019050610588565b5050565b601f8211156105ea576105bb81610492565b6105c4846104a4565b810160208510156105d3578190505b6105e76105df856104a4565b830182610587565b50505b505050565b5f82821c905092915050565b5f61060a5f19846008026105ef565b1980831691505092915050565b5f61062283836105fb565b9150826002028217905092915050565b61063b82610396565b67ffffffffffffffff81111561065457610653610408565b5b61065e8254610462565b6106698282856105a9565b5f60209050601f83116001811461069a575f8415610688578287015190505b6106928582610617565b8655506106f9565b601f1984166106a886610492565b5f5b828110156106cf578489015182556001820191506020850194506020810190506106aa565b868310156106ec57848901516106e8601f8916826105fb565b8355505b6001600288020188555050505b505050505050565b7f4e487b71000000000000000000000000000000000000000000000000000000005f52601160045260245ffd5b5f6107388261027a565b91506107438361027a565b925082820190508082111561075b5761075a610701565b5b9291505056fea2646970667358221220f42f8d07eefb2fb3c07f4f7f9ec23984c9163930e08329a97c70e906ed65fa8764736f6c634300081e0033",
					"opcodes": "PUSH1 0x80 PUSH1 0x40 MSTORE PUSH1 0x1 PUSH0 SSTORE CALLVALUE DUP1 ISZERO PUSH1 0x12 JUMPI PUSH0 PUSH0 REVERT JUMPDEST POP PUSH2 0x797 DUP1 PUSH2 0x20 PUSH0 CODECOPY PUSH0 RETURN INVALID PUSH1 0x80 PUSH1 0x40 MSTORE CALLVALUE DUP1 ISZERO PUSH2 0xF JUMPI PUSH0 PUSH0 REVERT JUMPDEST POP PUSH1 0x4 CALLDATASIZE LT PUSH2 0x60 JUMPI PUSH0 CALLDATALOAD PUSH1 0xE0 SHR DUP1 PUSH4 0xC55699C EQ PUSH2 0x64 JUMPI DUP1 PUSH4 0xA05F9906 EQ PUSH2 0x82 JUMPI DUP1 PUSH4 0xA56DFE4A EQ PUSH2 0xA2 JUMPI DUP1 PUSH4 0xC2985578 EQ PUSH2 0xC0 JUMPI DUP1 PUSH4 0xC5D7802E EQ PUSH2 0xCA JUMPI DUP1 PUSH4 0xFEBB0F7E EQ PUSH2 0xE8 JUMPI JUMPDEST PUSH0 PUSH0 REVERT JUMPDEST PUSH2 0x6C PUSH2 0x106 JUMP JUMPDEST PUSH1 0x40 MLOAD PUSH2 0x79 SWAP2 SWAP1 PUSH2 0x292 JUMP JUMPDEST PUSH1 0x40 MLOAD DUP1 SWAP2 SUB SWAP1 RETURN JUMPDEST PUSH2 0x8A PUSH2 0x10B JUMP JUMPDEST PUSH1 0x40 MLOAD PUSH2 0x99 SWAP4 SWAP3 SWAP2 SWAP1 PUSH2 0x35A JUMP JUMPDEST PUSH1 0x40 MLOAD DUP1 SWAP2 SUB SWAP1 RETURN JUMPDEST PUSH2 0xAA PUSH2 0x16F JUMP JUMPDEST PUSH1 0x40 MLOAD PUSH2 0xB7 SWAP2 SWAP1 PUSH2 0x292 JUMP JUMPDEST PUSH1 0x40 MLOAD DUP1 SWAP2 SUB SWAP1 RETURN JUMPDEST PUSH2 0xC8 PUSH2 0x175 JUMP JUMPDEST STOP JUMPDEST PUSH2 0xD2 PUSH2 0x1CB JUMP JUMPDEST PUSH1 0x40 MLOAD PUSH2 0xDF SWAP2 SWAP1 PUSH2 0x3E8 JUMP JUMPDEST PUSH1 0x40 MLOAD DUP1 SWAP2 SUB SWAP1 RETURN JUMPDEST PUSH2 0xF0 PUSH2 0x257 JUMP JUMPDEST PUSH1 0x40 MLOAD PUSH2 0xFD SWAP2 SWAP1 PUSH2 0x292 JUMP JUMPDEST PUSH1 0x40 MLOAD DUP1 SWAP2 SUB SWAP1 RETURN JUMPDEST PUSH0 SLOAD DUP2 JUMP JUMPDEST PUSH0 PUSH0 PUSH1 0x60 PUSH0 CALLER SWAP1 POP PUSH0 NUMBER SWAP1 POP PUSH0 PUSH0 CALLDATASIZE DUP1 DUP1 PUSH1 0x1F ADD PUSH1 0x20 DUP1 SWAP2 DIV MUL PUSH1 0x20 ADD PUSH1 0x40 MLOAD SWAP1 DUP2 ADD PUSH1 0x40 MSTORE DUP1 SWAP4 SWAP3 SWAP2 SWAP1 DUP2 DUP2 MSTORE PUSH1 0x20 ADD DUP4 DUP4 DUP1 DUP3 DUP5 CALLDATACOPY PUSH0 DUP2 DUP5 ADD MSTORE PUSH1 0x1F NOT PUSH1 0x1F DUP3 ADD AND SWAP1 POP DUP1 DUP4 ADD SWAP3 POP POP POP POP POP POP POP SWAP1 POP DUP3 DUP3 DUP3 SWAP6 POP SWAP6 POP SWAP6 POP POP POP POP SWAP1 SWAP2 SWAP3 JUMP JUMPDEST PUSH1 0x1 SLOAD DUP2 JUMP JUMPDEST PUSH1 0x5 PUSH0 DUP2 SWAP1 SSTORE POP PUSH1 0x2 PUSH1 0x1 DUP2 SWAP1 SSTORE POP PUSH1 0x40 MLOAD DUP1 PUSH1 0x40 ADD PUSH1 0x40 MSTORE DUP1 PUSH1 0x4 DUP2 MSTORE PUSH1 0x20 ADD PUSH32 0x3078414100000000000000000000000000000000000000000000000000000000 DUP2 MSTORE POP PUSH1 0x2 SWAP1 DUP2 PUSH2 0x1C8 SWAP2 SWAP1 PUSH2 0x632 JUMP JUMPDEST POP JUMP JUMPDEST PUSH1 0x2 DUP1 SLOAD PUSH2 0x1D8 SWAP1 PUSH2 0x462 JUMP JUMPDEST DUP1 PUSH1 0x1F ADD PUSH1 0x20 DUP1 SWAP2 DIV MUL PUSH1 0x20 ADD PUSH1 0x40 MLOAD SWAP1 DUP2 ADD PUSH1 0x40 MSTORE DUP1 SWAP3 SWAP2 SWAP1 DUP2 DUP2 MSTORE PUSH1 0x20 ADD DUP3 DUP1 SLOAD PUSH2 0x204 SWAP1 PUSH2 0x462 JUMP JUMPDEST DUP1 ISZERO PUSH2 0x24F JUMPI DUP1 PUSH1 0x1F LT PUSH2 0x226 JUMPI PUSH2 0x100 DUP1 DUP4 SLOAD DIV MUL DUP4 MSTORE SWAP2 PUSH1 0x20 ADD SWAP2 PUSH2 0x24F JUMP JUMPDEST DUP3 ADD SWAP2 SWAP1 PUSH0 MSTORE PUSH1 0x20 PUSH0 KECCAK256 SWAP1 JUMPDEST DUP2 SLOAD DUP2 MSTORE SWAP1 PUSH1 0x1 ADD SWAP1 PUSH1 0x20 ADD DUP1 DUP4 GT PUSH2 0x232 JUMPI DUP3 SWAP1 SUB PUSH1 0x1F AND DUP3 ADD SWAP2 JUMPDEST POP POP POP POP POP DUP2 JUMP JUMPDEST PUSH0 PUSH0 PUSH1 0x1 SWAP1 POP PUSH0 PUSH1 0x3 SWAP1 POP PUSH0 DUP2 DUP4 PUSH2 0x26F SWAP2 SWAP1 PUSH2 0x72E JUMP JUMPDEST SWAP1 POP DUP1 SWAP4 POP POP POP POP SWAP1 JUMP JUMPDEST PUSH0 DUP2 SWAP1 POP SWAP2 SWAP1 POP JUMP JUMPDEST PUSH2 0x28C DUP2 PUSH2 0x27A JUMP JUMPDEST DUP3 MSTORE POP POP JUMP JUMPDEST PUSH0 PUSH1 0x20 DUP3 ADD SWAP1 POP PUSH2 0x2A5 PUSH0 DUP4 ADD DUP5 PUSH2 0x283 JUMP JUMPDEST SWAP3 SWAP2 POP POP JUMP JUMPDEST PUSH0 PUSH20 0xFFFFFFFFFFFFFFFFFFFFFFFFFFFFFFFFFFFFFFFF DUP3 AND SWAP1 POP SWAP2 SWAP1 POP JUMP JUMPDEST PUSH0 PUSH2 0x2D4 DUP3 PUSH2 0x2AB JUMP JUMPDEST SWAP1 POP SWAP2 SWAP1 POP JUMP JUMPDEST PUSH2 0x2E4 DUP2 PUSH2 0x2CA JUMP JUMPDEST DUP3 MSTORE POP POP JUMP JUMPDEST PUSH0 DUP2 MLOAD SWAP1 POP SWAP2 SWAP1 POP JUMP JUMPDEST PUSH0 DUP3 DUP3 MSTORE PUSH1 0x20 DUP3 ADD SWAP1 POP SWAP3 SWAP2 POP POP JUMP JUMPDEST DUP3 DUP2 DUP4 MCOPY PUSH0 DUP4 DUP4 ADD MSTORE POP POP POP JUMP JUMPDEST PUSH0 PUSH1 0x1F NOT PUSH1 0x1F DUP4 ADD AND SWAP1 POP SWAP2 SWAP1 POP JUMP JUMPDEST PUSH0 PUSH2 0x32C DUP3 PUSH2 0x2EA JUMP JUMPDEST PUSH2 0x336 DUP2 DUP6 PUSH2 0x2F4 JUMP JUMPDEST SWAP4 POP PUSH2 0x346 DUP2 DUP6 PUSH1 0x20 DUP7 ADD PUSH2 0x304 JUMP JUMPDEST PUSH2 0x34F DUP2 PUSH2 0x312 JUMP JUMPDEST DUP5 ADD SWAP2 POP POP SWAP3 SWAP2 POP POP JUMP JUMPDEST PUSH0 PUSH1 0x60 DUP3 ADD SWAP1 POP PUSH2 0x36D PUSH0 DUP4 ADD DUP7 PUSH2 0x2DB JUMP JUMPDEST PUSH2 0x37A PUSH1 0x20 DUP4 ADD DUP6 PUSH2 0x283 JUMP JUMPDEST DUP2 DUP2 SUB PUSH1 0x40 DUP4 ADD MSTORE PUSH2 0x38C DUP2 DUP5 PUSH2 0x322 JUMP JUMPDEST SWAP1 POP SWAP5 SWAP4 POP POP POP POP JUMP JUMPDEST PUSH0 DUP2 MLOAD SWAP1 POP SWAP2 SWAP1 POP JUMP JUMPDEST PUSH0 DUP3 DUP3 MSTORE PUSH1 0x20 DUP3 ADD SWAP1 POP SWAP3 SWAP2 POP POP JUMP JUMPDEST PUSH0 PUSH2 0x3BA DUP3 PUSH2 0x396 JUMP JUMPDEST PUSH2 0x3C4 DUP2 DUP6 PUSH2 0x3A0 JUMP JUMPDEST SWAP4 POP PUSH2 0x3D4 DUP2 DUP6 PUSH1 0x20 DUP7 ADD PUSH2 0x304 JUMP JUMPDEST PUSH2 0x3DD DUP2 PUSH2 0x312 JUMP JUMPDEST DUP5 ADD SWAP2 POP POP SWAP3 SWAP2 POP POP JUMP JUMPDEST PUSH0 PUSH1 0x20 DUP3 ADD SWAP1 POP DUP2 DUP2 SUB PUSH0 DUP4 ADD MSTORE PUSH2 0x400 DUP2 DUP5 PUSH2 0x3B0 JUMP JUMPDEST SWAP1 POP SWAP3 SWAP2 POP POP JUMP JUMPDEST PUSH32 0x4E487B7100000000000000000000000000000000000000000000000000000000 PUSH0 MSTORE PUSH1 0x41 PUSH1 0x4 MSTORE PUSH1 0x24 PUSH0 REVERT JUMPDEST PUSH32 0x4E487B7100000000000000000000000000000000000000000000000000000000 PUSH0 MSTORE PUSH1 0x22 PUSH1 0x4 MSTORE PUSH1 0x24 PUSH0 REVERT JUMPDEST PUSH0 PUSH1 0x2 DUP3 DIV SWAP1 POP PUSH1 0x1 DUP3 AND DUP1 PUSH2 0x479 JUMPI PUSH1 0x7F DUP3 AND SWAP2 POP JUMPDEST PUSH1 0x20 DUP3 LT DUP2 SUB PUSH2 0x48C JUMPI PUSH2 0x48B PUSH2 0x435 JUMP JUMPDEST JUMPDEST POP SWAP2 SWAP1 POP JUMP JUMPDEST PUSH0 DUP2 SWAP1 POP DUP2 PUSH0 MSTORE PUSH1 0x20 PUSH0 KECCAK256 SWAP1 POP SWAP2 SWAP1 POP JUMP JUMPDEST PUSH0 PUSH1 0x20 PUSH1 0x1F DUP4 ADD DIV SWAP1 POP SWAP2 SWAP1 POP JUMP JUMPDEST PUSH0 DUP3 DUP3 SHL SWAP1 POP SWAP3 SWAP2 POP POP JUMP JUMPDEST PUSH0 PUSH1 0x8 DUP4 MUL PUSH2 0x4EE PUSH32 0xFFFFFFFFFFFFFFFFFFFFFFFFFFFFFFFFFFFFFFFFFFFFFFFFFFFFFFFFFFFFFFFF DUP3 PUSH2 0x4B3 JUMP JUMPDEST PUSH2 0x4F8 DUP7 DUP4 PUSH2 0x4B3 JUMP JUMPDEST SWAP6 POP DUP1 NOT DUP5 AND SWAP4 POP DUP1 DUP7 AND DUP5 OR SWAP3 POP POP POP SWAP4 SWAP3 POP POP POP JUMP JUMPDEST PUSH0 DUP2 SWAP1 POP SWAP2 SWAP1 POP JUMP JUMPDEST PUSH0 PUSH2 0x533 PUSH2 0x52E PUSH2 0x529 DUP5 PUSH2 0x27A JUMP JUMPDEST PUSH2 0x510 JUMP JUMPDEST PUSH2 0x27A JUMP JUMPDEST SWAP1 POP SWAP2 SWAP1 POP JUMP JUMPDEST PUSH0 DUP2 SWAP1 POP SWAP2 SWAP1 POP JUMP JUMPDEST PUSH2 0x54C DUP4 PUSH2 0x519 JUMP JUMPDEST PUSH2 0x560 PUSH2 0x558 DUP3 PUSH2 0x53A JUMP JUMPDEST DUP5 DUP5 SLOAD PUSH2 0x4BF JUMP JUMPDEST DUP3 SSTORE POP POP POP POP JUMP JUMPDEST PUSH0 PUSH0 SWAP1 POP SWAP1 JUMP JUMPDEST PUSH2 0x577 PUSH2 0x568 JUMP JUMPDEST PUSH2 0x582 DUP2 DUP5 DUP5 PUSH2 0x543 JUMP JUMPDEST POP POP POP JUMP JUMPDEST JUMPDEST DUP2 DUP2 LT ISZERO PUSH2 0x5A5 JUMPI PUSH2 0x59A PUSH0 DUP3 PUSH2 0x56F JUMP JUMPDEST PUSH1 0x1 DUP2 ADD SWAP1 POP PUSH2 0x588 JUMP JUMPDEST POP POP JUMP JUMPDEST PUSH1 0x1F DUP3 GT ISZERO PUSH2 0x5EA JUMPI PUSH2 0x5BB DUP2 PUSH2 0x492 JUMP JUMPDEST PUSH2 0x5C4 DUP5 PUSH2 0x4A4 JUMP JUMPDEST DUP2 ADD PUSH1 0x20 DUP6 LT ISZERO PUSH2 0x5D3 JUMPI DUP2 SWAP1 POP JUMPDEST PUSH2 0x5E7 PUSH2 0x5DF DUP6 PUSH2 0x4A4 JUMP JUMPDEST DUP4 ADD DUP3 PUSH2 0x587 JUMP JUMPDEST POP POP JUMPDEST POP POP POP JUMP JUMPDEST PUSH0 DUP3 DUP3 SHR SWAP1 POP SWAP3 SWAP2 POP POP JUMP JUMPDEST PUSH0 PUSH2 0x60A PUSH0 NOT DUP5 PUSH1 0x8 MUL PUSH2 0x5EF JUMP JUMPDEST NOT DUP1 DUP4 AND SWAP2 POP POP SWAP3 SWAP2 POP POP JUMP JUMPDEST PUSH0 PUSH2 0x622 DUP4 DUP4 PUSH2 0x5FB JUMP JUMPDEST SWAP2 POP DUP3 PUSH1 0x2 MUL DUP3 OR SWAP1 POP SWAP3 SWAP2 POP POP JUMP JUMPDEST PUSH2 0x63B DUP3 PUSH2 0x396 JUMP JUMPDEST PUSH8 0xFFFFFFFFFFFFFFFF DUP2 GT ISZERO PUSH2 0x654 JUMPI PUSH2 0x653 PUSH2 0x408 JUMP JUMPDEST JUMPDEST PUSH2 0x65E DUP3 SLOAD PUSH2 0x462 JUMP JUMPDEST PUSH2 0x669 DUP3 DUP3 DUP6 PUSH2 0x5A9 JUMP JUMPDEST PUSH0 PUSH1 0x20 SWAP1 POP PUSH1 0x1F DUP4 GT PUSH1 0x1 DUP2 EQ PUSH2 0x69A JUMPI PUSH0 DUP5 ISZERO PUSH2 0x688 JUMPI DUP3 DUP8 ADD MLOAD SWAP1 POP JUMPDEST PUSH2 0x692 DUP6 DUP3 PUSH2 0x617 JUMP JUMPDEST DUP7 SSTORE POP PUSH2 0x6F9 JUMP JUMPDEST PUSH1 0x1F NOT DUP5 AND PUSH2 0x6A8 DUP7 PUSH2 0x492 JUMP JUMPDEST PUSH0 JUMPDEST DUP3 DUP2 LT ISZERO PUSH2 0x6CF JUMPI DUP5 DUP10 ADD MLOAD DUP3 SSTORE PUSH1 0x1 DUP3 ADD SWAP2 POP PUSH1 0x20 DUP6 ADD SWAP5 POP PUSH1 0x20 DUP2 ADD SWAP1 POP PUSH2 0x6AA JUMP JUMPDEST DUP7 DUP4 LT ISZERO PUSH2 0x6EC JUMPI DUP5 DUP10 ADD MLOAD PUSH2 0x6E8 PUSH1 0x1F DUP10 AND DUP3 PUSH2 0x5FB JUMP JUMPDEST DUP4 SSTORE POP JUMPDEST PUSH1 0x1 PUSH1 0x2 DUP9 MUL ADD DUP9 SSTORE POP POP POP JUMPDEST POP POP POP POP POP POP JUMP JUMPDEST PUSH32 0x4E487B7100000000000000000000000000000000000000000000000000000000 PUSH0 MSTORE PUSH1 0x11 PUSH1 0x4 MSTORE PUSH1 0x24 PUSH0 REVERT JUMPDEST PUSH0 PUSH2 0x738 DUP3 PUSH2 0x27A JUMP JUMPDEST SWAP2 POP PUSH2 0x743 DUP4 PUSH2 0x27A JUMP JUMPDEST SWAP3 POP DUP3 DUP3 ADD SWAP1 POP DUP1 DUP3 GT ISZERO PUSH2 0x75B JUMPI PUSH2 0x75A PUSH2 0x701 JUMP JUMPDEST JUMPDEST SWAP3 SWAP2 POP POP JUMP INVALID LOG2 PUSH5 0x6970667358 0x22 SLT KECCAK256 DELEGATECALL 0x2F DUP14 SMOD RETURNCONTRACT 0xFB 0x2F 0xB3 0xC0 PUSH32 0x4F7F9EC23984C9163930E08329A97C70E906ED65FA8764736F6C634300081E00 CALLER "
				},
				"gasEstimates": {
					"creation": {
						"codeDepositCost": "388600",
						"executionCost": "22527",
						"totalCost": "411127"
					},
					"external": {
						"bar()": "infinite",
						"foo()": "infinite",
						"global()": "infinite",
						"x()": "2402",
						"y()": "2447",
						"z()": "infinite"
					}
				},
				"methodIdentifiers": {
					"bar()": "febb0f7e",
					"foo()": "c2985578",
					"global()": "a05f9906",
					"x()": "0c55699c",
					"y()": "a56dfe4a",
					"z()": "c5d7802e"
				}
			},
			"storageLayout": {
				"storage": [
					{
						"astId": 78,
						"contract": "05_DataStorage/DataStorage.sol:Variables",
						"label": "x",
						"offset": 0,
						"slot": "0",
						"type": "t_uint256"
					},
					{
						"astId": 80,
						"contract": "05_DataStorage/DataStorage.sol:Variables",
						"label": "y",
						"offset": 0,
						"slot": "1",
						"type": "t_uint256"
					},
					{
						"astId": 82,
						"contract": "05_DataStorage/DataStorage.sol:Variables",
						"label": "z",
						"offset": 0,
						"slot": "2",
						"type": "t_string_storage"
					}
				],
				"types": {
					"t_string_storage": {
						"encoding": "bytes",
						"label": "string",
						"numberOfBytes": "32"
					},
					"t_uint256": {
						"encoding": "inplace",
						"label": "uint256",
						"numberOfBytes": "32"
					}
				}
			},
			"userdoc": {
				"kind": "user",
				"methods": {},
				"version": 1
			}
		}
	}
}