{
	"13_Inheritance/Inheritance.sol": {
		"Baba": {
			"abi": [
				{
					"anonymous": false,
					"inputs": [
						{
							"indexed": false,
							"internalType": "string",
							"name": "message",
							"type": "string"
						}
					],
					"name": "Log",
					"type": "event"
				},
				{
					"inputs": [],
					"name": "baba",
					"outputs": [],
					"stateMutability": "nonpayable",
					"type": "function"
				},
				{
					"inputs": [],
					"name": "hip",
					"outputs": [],
					"stateMutability": "nonpayable",
					"type": "function"
				},
				{
					"inputs": [],
					"name": "pop",
					"outputs": [],
					"stateMutability": "nonpayable",
					"type": "function"
				},
				{
					"inputs": [],
					"name": "yeye",
					"outputs": [],
					"stateMutability": "nonpayable",
					"type": "function"
				}
			],
			"devdoc": {
				"kind": "dev",
				"methods": {},
				"version": 1
			},
			"evm": {
				"assembly": "    /* \"13_Inheritance/Inheritance.sol\":352:633  contract Baba is Yeye{... */\n  mstore(0x40, 0x80)\n  callvalue\n  dup1\n  iszero\n  tag_1\n  jumpi\n  revert(0x00, 0x00)\ntag_1:\n  pop\n  dataSize(sub_0)\n  dup1\n  dataOffset(sub_0)\n  0x00\n  codecopy\n  0x00\n  return\nstop\n\nsub_0: assembly {\n        /* \"13_Inheritance/Inheritance.sol\":352:633  contract Baba is Yeye{... */\n      mstore(0x40, 0x80)\n      callvalue\n      dup1\n      iszero\n      tag_1\n      jumpi\n      revert(0x00, 0x00)\n    tag_1:\n      pop\n      jumpi(tag_2, lt(calldatasize, 0x04))\n      shr(0xe0, calldataload(0x00))\n      dup1\n      0x0ca21e9c\n      eq\n      tag_3\n      jumpi\n      dup1\n      0x370ea142\n      eq\n      tag_4\n      jumpi\n      dup1\n      0xa4ece52c\n      eq\n      tag_5\n      jumpi\n      dup1\n      0xfa030ef1\n      eq\n      tag_6\n      jumpi\n    tag_2:\n      revert(0x00, 0x00)\n        /* \"13_Inheritance/Inheritance.sol\":273:345  function yeye() public virtual{... */\n    tag_3:\n      tag_7\n      tag_8\n      jump\t// in\n    tag_7:\n      stop\n        /* \"13_Inheritance/Inheritance.sol\":382:461  function hip() public virtual override{... */\n    tag_4:\n      tag_9\n      tag_10\n      jump\t// in\n    tag_9:\n      stop\n        /* \"13_Inheritance/Inheritance.sol\":469:548  function pop() public virtual override{... */\n    tag_5:\n      tag_11\n      tag_12\n      jump\t// in\n    tag_11:\n      stop\n        /* \"13_Inheritance/Inheritance.sol\":556:628  function baba() public virtual{... */\n    tag_6:\n      tag_13\n      tag_14\n      jump\t// in\n    tag_13:\n      stop\n        /* \"13_Inheritance/Inheritance.sol\":273:345  function yeye() public virtual{... */\n    tag_8:\n        /* \"13_Inheritance/Inheritance.sol\":319:337  Log(\"Yeye yeye()\") */\n      0xcf34ef537ac33ee1ac626ca1587a0a7e8e51561e5514f8cb36afa1c5102b3bab\n      mload(0x40)\n      tag_16\n      swap1\n      tag_17\n      jump\t// in\n    tag_16:\n      mload(0x40)\n      dup1\n      swap2\n      sub\n      swap1\n      log1\n        /* \"13_Inheritance/Inheritance.sol\":273:345  function yeye() public virtual{... */\n      jump\t// out\n        /* \"13_Inheritance/Inheritance.sol\":382:461  function hip() public virtual override{... */\n    tag_10:\n        /* \"13_Inheritance/Inheritance.sol\":436:453  Log(\"Baba hip()\") */\n      0xcf34ef537ac33ee1ac626ca1587a0a7e8e51561e5514f8cb36afa1c5102b3bab\n      mload(0x40)\n      tag_19\n      swap1\n      tag_20\n      jump\t// in\n    tag_19:\n      mload(0x40)\n      dup1\n      swap2\n      sub\n      swap1\n      log1\n        /* \"13_Inheritance/Inheritance.sol\":382:461  function hip() public virtual override{... */\n      jump\t// out\n        /* \"13_Inheritance/Inheritance.sol\":469:548  function pop() public virtual override{... */\n    tag_12:\n        /* \"13_Inheritance/Inheritance.sol\":523:540  Log(\"Baba pop()\") */\n      0xcf34ef537ac33ee1ac626ca1587a0a7e8e51561e5514f8cb36afa1c5102b3bab\n      mload(0x40)\n      tag_22\n      swap1\n      tag_23\n      jump\t// in\n    tag_22:\n      mload(0x40)\n      dup1\n      swap2\n      sub\n      swap1\n      log1\n        /* \"13_Inheritance/Inheritance.sol\":469:548  function pop() public virtual override{... */\n      jump\t// out\n        /* \"13_Inheritance/Inheritance.sol\":556:628  function baba() public virtual{... */\n    tag_14:\n        /* \"13_Inheritance/Inheritance.sol\":602:620  Log(\"Baba baba()\") */\n      0xcf34ef537ac33ee1ac626ca1587a0a7e8e51561e5514f8cb36afa1c5102b3bab\n      mload(0x40)\n      tag_25\n      swap1\n      tag_26\n      jump\t// in\n    tag_25:\n      mload(0x40)\n      dup1\n      swap2\n      sub\n      swap1\n      log1\n        /* \"13_Inheritance/Inheritance.sol\":556:628  function baba() public virtual{... */\n      jump\t// out\n        /* \"#utility.yul\":7:176   */\n    tag_27:\n        /* \"#utility.yul\":91:102   */\n      0x00\n        /* \"#utility.yul\":125:131   */\n      dup3\n        /* \"#utility.yul\":120:123   */\n      dup3\n        /* \"#utility.yul\":113:132   */\n      mstore\n        /* \"#utility.yul\":165:169   */\n      0x20\n        /* \"#utility.yul\":160:163   */\n      dup3\n        /* \"#utility.yul\":156:170   */\n      add\n        /* \"#utility.yul\":141:170   */\n      swap1\n      pop\n        /* \"#utility.yul\":7:176   */\n      swap3\n      swap2\n      pop\n      pop\n      jump\t// out\n        /* \"#utility.yul\":182:343   */\n    tag_28:\n        /* \"#utility.yul\":322:335   */\n      0x5965796520796579652829000000000000000000000000000000000000000000\n        /* \"#utility.yul\":318:319   */\n      0x00\n        /* \"#utility.yul\":310:316   */\n      dup3\n        /* \"#utility.yul\":306:320   */\n      add\n        /* \"#utility.yul\":299:336   */\n      mstore\n        /* \"#utility.yul\":182:343   */\n      pop\n      jump\t// out\n        /* \"#utility.yul\":349:715   */\n    tag_29:\n        /* \"#utility.yul\":491:494   */\n      0x00\n        /* \"#utility.yul\":512:579   */\n      tag_40\n        /* \"#utility.yul\":576:578   */\n      0x0b\n        /* \"#utility.yul\":571:574   */\n      dup4\n        /* \"#utility.yul\":512:579   */\n      tag_27\n      jump\t// in\n    tag_40:\n        /* \"#utility.yul\":505:579   */\n      swap2\n      pop\n        /* \"#utility.yul\":588:681   */\n      tag_41\n        /* \"#utility.yul\":677:680   */\n      dup3\n        /* \"#utility.yul\":588:681   */\n      tag_28\n      jump\t// in\n    tag_41:\n        /* \"#utility.yul\":706:708   */\n      0x20\n        /* \"#utility.yul\":701:704   */\n      dup3\n        /* \"#utility.yul\":697:709   */\n      add\n        /* \"#utility.yul\":690:709   */\n      swap1\n      pop\n        /* \"#utility.yul\":349:715   */\n      swap2\n      swap1\n      pop\n      jump\t// out\n        /* \"#utility.yul\":721:1140   */\n    tag_17:\n        /* \"#utility.yul\":887:891   */\n      0x00\n        /* \"#utility.yul\":925:927   */\n      0x20\n        /* \"#utility.yul\":914:923   */\n      dup3\n        /* \"#utility.yul\":910:928   */\n      add\n        /* \"#utility.yul\":902:928   */\n      swap1\n      pop\n        /* \"#utility.yul\":974:983   */\n      dup2\n        /* \"#utility.yul\":968:972   */\n      dup2\n        /* \"#utility.yul\":964:984   */\n      sub\n        /* \"#utility.yul\":960:961   */\n      0x00\n        /* \"#utility.yul\":949:958   */\n      dup4\n        /* \"#utility.yul\":945:962   */\n      add\n        /* \"#utility.yul\":938:985   */\n      mstore\n        /* \"#utility.yul\":1002:1133   */\n      tag_43\n        /* \"#utility.yul\":1128:1132   */\n      dup2\n        /* \"#utility.yul\":1002:1133   */\n      tag_29\n      jump\t// in\n    tag_43:\n        /* \"#utility.yul\":994:1133   */\n      swap1\n      pop\n        /* \"#utility.yul\":721:1140   */\n      swap2\n      swap1\n      pop\n      jump\t// out\n        /* \"#utility.yul\":1146:1306   */\n    tag_30:\n        /* \"#utility.yul\":1286:1298   */\n      0x4261626120686970282900000000000000000000000000000000000000000000\n        /* \"#utility.yul\":1282:1283   */\n      0x00\n        /* \"#utility.yul\":1274:1280   */\n      dup3\n        /* \"#utility.yul\":1270:1284   */\n      add\n        /* \"#utility.yul\":1263:1299   */\n      mstore\n        /* \"#utility.yul\":1146:1306   */\n      pop\n      jump\t// out\n        /* \"#utility.yul\":1312:1678   */\n    tag_31:\n        /* \"#utility.yul\":1454:1457   */\n      0x00\n        /* \"#utility.yul\":1475:1542   */\n      tag_46\n        /* \"#utility.yul\":1539:1541   */\n      0x0a\n        /* \"#utility.yul\":1534:1537   */\n      dup4\n        /* \"#utility.yul\":1475:1542   */\n      tag_27\n      jump\t// in\n    tag_46:\n        /* \"#utility.yul\":1468:1542   */\n      swap2\n      pop\n        /* \"#utility.yul\":1551:1644   */\n      tag_47\n        /* \"#utility.yul\":1640:1643   */\n      dup3\n        /* \"#utility.yul\":1551:1644   */\n      tag_30\n      jump\t// in\n    tag_47:\n        /* \"#utility.yul\":1669:1671   */\n      0x20\n        /* \"#utility.yul\":1664:1667   */\n      dup3\n        /* \"#utility.yul\":1660:1672   */\n      add\n        /* \"#utility.yul\":1653:1672   */\n      swap1\n      pop\n        /* \"#utility.yul\":1312:1678   */\n      swap2\n      swap1\n      pop\n      jump\t// out\n        /* \"#utility.yul\":1684:2103   */\n    tag_20:\n        /* \"#utility.yul\":1850:1854   */\n      0x00\n        /* \"#utility.yul\":1888:1890   */\n      0x20\n        /* \"#utility.yul\":1877:1886   */\n      dup3\n        /* \"#utility.yul\":1873:1891   */\n      add\n        /* \"#utility.yul\":1865:1891   */\n      swap1\n      pop\n        /* \"#utility.yul\":1937:1946   */\n      dup2\n        /* \"#utility.yul\":1931:1935   */\n      dup2\n        /* \"#utility.yul\":1927:1947   */\n      sub\n        /* \"#utility.yul\":1923:1924   */\n      0x00\n        /* \"#utility.yul\":1912:1921   */\n      dup4\n        /* \"#utility.yul\":1908:1925   */\n      add\n        /* \"#utility.yul\":1901:1948   */\n      mstore\n        /* \"#utility.yul\":1965:2096   */\n      tag_49\n        /* \"#utility.yul\":2091:2095   */\n      dup2\n        /* \"#utility.yul\":1965:2096   */\n      tag_31\n      jump\t// in\n    tag_49:\n        /* \"#utility.yul\":1957:2096   */\n      swap1\n      pop\n        /* \"#utility.yul\":1684:2103   */\n      swap2\n      swap1\n      pop\n      jump\t// out\n        /* \"#utility.yul\":2109:2269   */\n    tag_32:\n        /* \"#utility.yul\":2249:2261   */\n      0x4261626120706f70282900000000000000000000000000000000000000000000\n        /* \"#utility.yul\":2245:2246   */\n      0x00\n        /* \"#utility.yul\":2237:2243   */\n      dup3\n        /* \"#utility.yul\":2233:2247   */\n      add\n        /* \"#utility.yul\":2226:2262   */\n      mstore\n        /* \"#utility.yul\":2109:2269   */\n      pop\n      jump\t// out\n        /* \"#utility.yul\":2275:2641   */\n    tag_33:\n        /* \"#utility.yul\":2417:2420   */\n      0x00\n        /* \"#utility.yul\":2438:2505   */\n      tag_52\n        /* \"#utility.yul\":2502:2504   */\n      0x0a\n        /* \"#utility.yul\":2497:2500   */\n      dup4\n        /* \"#utility.yul\":2438:2505   */\n      tag_27\n      jump\t// in\n    tag_52:\n        /* \"#utility.yul\":2431:2505   */\n      swap2\n      pop\n        /* \"#utility.yul\":2514:2607   */\n      tag_53\n        /* \"#utility.yul\":2603:2606   */\n      dup3\n        /* \"#utility.yul\":2514:2607   */\n      tag_32\n      jump\t// in\n    tag_53:\n        /* \"#utility.yul\":2632:2634   */\n      0x20\n        /* \"#utility.yul\":2627:2630   */\n      dup3\n        /* \"#utility.yul\":2623:2635   */\n      add\n        /* \"#utility.yul\":2616:2635   */\n      swap1\n      pop\n        /* \"#utility.yul\":2275:2641   */\n      swap2\n      swap1\n      pop\n      jump\t// out\n        /* \"#utility.yul\":2647:3066   */\n    tag_23:\n        /* \"#utility.yul\":2813:2817   */\n      0x00\n        /* \"#utility.yul\":2851:2853   */\n      0x20\n        /* \"#utility.yul\":2840:2849   */\n      dup3\n        /* \"#utility.yul\":2836:2854   */\n      add\n        /* \"#utility.yul\":2828:2854   */\n      swap1\n      pop\n        /* \"#utility.yul\":2900:2909   */\n      dup2\n        /* \"#utility.yul\":2894:2898   */\n      dup2\n        /* \"#utility.yul\":2890:2910   */\n      sub\n        /* \"#utility.yul\":2886:2887   */\n      0x00\n        /* \"#utility.yul\":2875:2884   */\n      dup4\n        /* \"#utility.yul\":2871:2888   */\n      add\n        /* \"#utility.yul\":2864:2911   */\n      mstore\n        /* \"#utility.yul\":2928:3059   */\n      tag_55\n        /* \"#utility.yul\":3054:3058   */\n      dup2\n        /* \"#utility.yul\":2928:3059   */\n      tag_33\n      jump\t// in\n    tag_55:\n        /* \"#utility.yul\":2920:3059   */\n      swap1\n      pop\n        /* \"#utility.yul\":2647:3066   */\n      swap2\n      swap1\n      pop\n      jump\t// out\n        /* \"#utility.yul\":3072:3233   */\n    tag_34:\n        /* \"#utility.yul\":3212:3225   */\n      0x4261626120626162612829000000000000000000000000000000000000000000\n        /* \"#utility.yul\":3208:3209   */\n      0x00\n        /* \"#utility.yul\":3200:3206   */\n      dup3\n        /* \"#utility.yul\":3196:3210   */\n      add\n        /* \"#utility.yul\":3189:3226   */\n      mstore\n        /* \"#utility.yul\":3072:3233   */\n      pop\n      jump\t// out\n        /* \"#utility.yul\":3239:3605   */\n    tag_35:\n        /* \"#utility.yul\":3381:3384   */\n      0x00\n        /* \"#utility.yul\":3402:3469   */\n      tag_58\n        /* \"#utility.yul\":3466:3468   */\n      0x0b\n        /* \"#utility.yul\":3461:3464   */\n      dup4\n        /* \"#utility.yul\":3402:3469   */\n      tag_27\n      jump\t// in\n    tag_58:\n        /* \"#utility.yul\":3395:3469   */\n      swap2\n      pop\n        /* \"#utility.yul\":3478:3571   */\n      tag_59\n        /* \"#utility.yul\":3567:3570   */\n      dup3\n        /* \"#utility.yul\":3478:3571   */\n      tag_34\n      jump\t// in\n    tag_59:\n        /* \"#utility.yul\":3596:3598   */\n      0x20\n        /* \"#utility.yul\":3591:3594   */\n      dup3\n        /* \"#utility.yul\":3587:3599   */\n      add\n        /* \"#utility.yul\":3580:3599   */\n      swap1\n      pop\n        /* \"#utility.yul\":3239:3605   */\n      swap2\n      swap1\n      pop\n      jump\t// out\n        /* \"#utility.yul\":3611:4030   */\n    tag_26:\n        /* \"#utility.yul\":3777:3781   */\n      0x00\n        /* \"#utility.yul\":3815:3817   */\n      0x20\n        /* \"#utility.yul\":3804:3813   */\n      dup3\n        /* \"#utility.yul\":3800:3818   */\n      add\n        /* \"#utility.yul\":3792:3818   */\n      swap1\n      pop\n        /* \"#utility.yul\":3864:3873   */\n      dup2\n        /* \"#utility.yul\":3858:3862   */\n      dup2\n        /* \"#utility.yul\":3854:3874   */\n      sub\n        /* \"#utility.yul\":3850:3851   */\n      0x00\n        /* \"#utility.yul\":3839:3848   */\n      dup4\n        /* \"#utility.yul\":3835:3852   */\n      add\n        /* \"#utility.yul\":3828:3875   */\n      mstore\n        /* \"#utility.yul\":3892:4023   */\n      tag_61\n        /* \"#utility.yul\":4018:4022   */\n      dup2\n        /* \"#utility.yul\":3892:4023   */\n      tag_35\n      jump\t// in\n    tag_61:\n        /* \"#utility.yul\":3884:4023   */\n      swap1\n      pop\n        /* \"#utility.yul\":3611:4030   */\n      swap2\n      swap1\n      pop\n      jump\t// out\n\n    auxdata: 0xa264697066735822122059c00730e4ac4dec371066a67fe1a78820d832e8686f63d3a64d67e138fcbb8d64736f6c634300081e0033\n}\n",
				"bytecode": {
					"linkReferences": {},
					"object": "6080604052348015600e575f5ffd5b506103388061001c5f395ff3fe608060405234801561000f575f5ffd5b506004361061004a575f3560e01c80630ca21e9c1461004e578063370ea14214610058578063a4ece52c14610062578063fa030ef11461006c575b5f5ffd5b610056610076565b005b6100606100ad565b005b61006a6100e4565b005b61007461011b565b005b7fcf34ef537ac33ee1ac626ca1587a0a7e8e51561e5514f8cb36afa1c5102b3bab6040516100a3906101ac565b60405180910390a1565b7fcf34ef537ac33ee1ac626ca1587a0a7e8e51561e5514f8cb36afa1c5102b3bab6040516100da90610214565b60405180910390a1565b7fcf34ef537ac33ee1ac626ca1587a0a7e8e51561e5514f8cb36afa1c5102b3bab6040516101119061027c565b60405180910390a1565b7fcf34ef537ac33ee1ac626ca1587a0a7e8e51561e5514f8cb36afa1c5102b3bab604051610148906102e4565b60405180910390a1565b5f82825260208201905092915050565b7f59657965207965796528290000000000000000000000000000000000000000005f82015250565b5f610196600b83610152565b91506101a182610162565b602082019050919050565b5f6020820190508181035f8301526101c38161018a565b9050919050565b7f42616261206869702829000000000000000000000000000000000000000000005f82015250565b5f6101fe600a83610152565b9150610209826101ca565b602082019050919050565b5f6020820190508181035f83015261022b816101f2565b9050919050565b7f4261626120706f702829000000000000000000000000000000000000000000005f82015250565b5f610266600a83610152565b915061027182610232565b602082019050919050565b5f6020820190508181035f8301526102938161025a565b9050919050565b7f42616261206261626128290000000000000000000000000000000000000000005f82015250565b5f6102ce600b83610152565b91506102d98261029a565b602082019050919050565b5f6020820190508181035f8301526102fb816102c2565b905091905056fea264697066735822122059c00730e4ac4dec371066a67fe1a78820d832e8686f63d3a64d67e138fcbb8d64736f6c634300081e0033",
					"opcodes": "PUSH1 0x80 PUSH1 0x40 MSTORE CALLVALUE DUP1 ISZERO PUSH1 0xE JUMPI PUSH0 PUSH0 REVERT JUMPDEST POP PUSH2 0x338 DUP1 PUSH2 0x1C PUSH0 CODECOPY PUSH0 RETURN INVALID PUSH1 0x80 PUSH1 0x40 MSTORE CALLVALUE DUP1 ISZERO PUSH2 0xF JUMPI PUSH0 PUSH0 REVERT JUMPDEST POP PUSH1 0x4 CALLDATASIZE LT PUSH2 0x4A JUMPI PUSH0 CALLDATALOAD PUSH1 0xE0 SHR DUP1 PUSH4 0xCA21E9C EQ PUSH2 0x4E JUMPI DUP1 PUSH4 0x370EA142 EQ PUSH2 0x58 JUMPI DUP1 PUSH4 0xA4ECE52C EQ PUSH2 0x62 JUMPI DUP1 PUSH4 0xFA030EF1 EQ PUSH2 0x6C JUMPI JUMPDEST PUSH0 PUSH0 REVERT JUMPDEST PUSH2 0x56 PUSH2 0x76 JUMP JUMPDEST STOP JUMPDEST PUSH2 0x60 PUSH2 0xAD JUMP JUMPDEST STOP JUMPDEST PUSH2 0x6A PUSH2 0xE4 JUMP JUMPDEST STOP JUMPDEST PUSH2 0x74 PUSH2 0x11B JUMP JUMPDEST STOP JUMPDEST PUSH32 0xCF34EF537AC33EE1AC626CA1587A0A7E8E51561E5514F8CB36AFA1C5102B3BAB PUSH1 0x40 MLOAD PUSH2 0xA3 SWAP1 PUSH2 0x1AC JUMP JUMPDEST PUSH1 0x40 MLOAD DUP1 SWAP2 SUB SWAP1 LOG1 JUMP JUMPDEST PUSH32 0xCF34EF537AC33EE1AC626CA1587A0A7E8E51561E5514F8CB36AFA1C5102B3BAB PUSH1 0x40 MLOAD PUSH2 0xDA SWAP1 PUSH2 0x214 JUMP JUMPDEST PUSH1 0x40 MLOAD DUP1 SWAP2 SUB SWAP1 LOG1 JUMP JUMPDEST PUSH32 0xCF34EF537AC33EE1AC626CA1587A0A7E8E51561E5514F8CB36AFA1C5102B3BAB PUSH1 0x40 MLOAD PUSH2 0x111 SWAP1 PUSH2 0x27C JUMP JUMPDEST PUSH1 0x40 MLOAD DUP1 SWAP2 SUB SWAP1 LOG1 JUMP JUMPDEST PUSH32 0xCF34EF537AC33EE1AC626CA1587A0A7E8E51561E5514F8CB36AFA1C5102B3BAB PUSH1 0x40 MLOAD PUSH2 0x148 SWAP1 PUSH2 0x2E4 JUMP JUMPDEST PUSH1 0x40 MLOAD DUP1 SWAP2 SUB SWAP1 LOG1 JUMP JUMPDEST PUSH0 DUP3 DUP3 MSTORE PUSH1 0x20 DUP3 ADD SWAP1 POP SWAP3 SWAP2 POP POP JUMP JUMPDEST PUSH32 0x5965796520796579652829000000000000000000000000000000000000000000 PUSH0 DUP3 ADD MSTORE POP JUMP JUMPDEST PUSH0 PUSH2 0x196 PUSH1 0xB DUP4 PUSH2 0x152 JUMP JUMPDEST SWAP2 POP PUSH2 0x1A1 DUP3 PUSH2 0x162 JUMP JUMPDEST PUSH1 0x20 DUP3 ADD SWAP1 POP SWAP2 SWAP1 POP JUMP JUMPDEST PUSH0 PUSH1 0x20 DUP3 ADD SWAP1 POP DUP2 DUP2 SUB PUSH0 DUP4 ADD MSTORE PUSH2 0x1C3 DUP2 PUSH2 0x18A JUMP JUMPDEST SWAP1 POP SWAP2 SWAP1 POP JUMP JUMPDEST PUSH32 0x4261626120686970282900000000000000000000000000000000000000000000 PUSH0 DUP3 ADD MSTORE POP JUMP JUMPDEST PUSH0 PUSH2 0x1FE PUSH1 0xA DUP4 PUSH2 0x152 JUMP JUMPDEST SWAP2 POP PUSH2 0x209 DUP3 PUSH2 0x1CA JUMP JUMPDEST PUSH1 0x20 DUP3 ADD SWAP1 POP SWAP2 SWAP1 POP JUMP JUMPDEST PUSH0 PUSH1 0x20 DUP3 ADD SWAP1 POP DUP2 DUP2 SUB PUSH0 DUP4 ADD MSTORE PUSH2 0x22B DUP2 PUSH2 0x1F2 JUMP JUMPDEST SWAP1 POP SWAP2 SWAP1 POP JUMP JUMPDEST PUSH32 0x4261626120706F70282900000000000000000000000000000000000000000000 PUSH0 DUP3 ADD MSTORE POP JUMP JUMPDEST PUSH0 PUSH2 0x266 PUSH1 0xA DUP4 PUSH2 0x152 JUMP JUMPDEST SWAP2 POP PUSH2 0x271 DUP3 PUSH2 0x232 JUMP JUMPDEST PUSH1 0x20 DUP3 ADD SWAP1 POP SWAP2 SWAP1 POP JUMP JUMPDEST PUSH0 PUSH1 0x20 DUP3 ADD SWAP1 POP DUP2 DUP2 SUB PUSH0 DUP4 ADD MSTORE PUSH2 0x293 DUP2 PUSH2 0x25A JUMP JUMPDEST SWAP1 POP SWAP2 SWAP1 POP JUMP JUMPDEST PUSH32 0x4261626120626162612829000000000000000000000000000000000000000000 PUSH0 DUP3 ADD MSTORE POP JUMP JUMPDEST PUSH0 PUSH2 0x2CE PUSH1 0xB DUP4 PUSH2 0x152 JUMP JUMPDEST SWAP2 POP PUSH2 0x2D9 DUP3 PUSH2 0x29A JUMP JUMPDEST PUSH1 0x20 DUP3 ADD SWAP1 POP SWAP2 SWAP1 POP JUMP JUMPDEST PUSH0 PUSH1 0x20 DUP3 ADD SWAP1 POP DUP2 DUP2 SUB PUSH0 DUP4 ADD MSTORE PUSH2 0x2FB DUP2 PUSH2 0x2C2 JUMP JUMPDEST SWAP1 POP SWAP2 SWAP1 POP JUMP INVALID LOG2 PUSH5 0x6970667358 0x22 SLT KECCAK256 MSIZE 0xC0 SMOD ADDRESS RETF 0xAC 0x4D EOFCREATE 0x37 LT PUSH7 0xA67FE1A78820D8 ORIGIN 0xE8 PUSH9 0x6F63D3A64D67E138FC 0xBB DUP14 PUSH5 0x736F6C6343 STOP ADDMOD 0x1E STOP CALLER "
				},
				"gasEstimates": {
					"creation": {
						"codeDepositCost": "164800",
						"executionCost": "206",
						"totalCost": "165006"
					},
					"external": {
						"baba()": "1984",
						"hip()": "1940",
						"pop()": "1962",
						"yeye()": "1918"
					}
				},
				"methodIdentifiers": {
					"baba()": "fa030ef1",
					"hip()": "370ea142",
					"pop()": "a4ece52c",
					"yeye()": "0ca21e9c"
				}
			},
			"storageLayout": {
				"storage": [],
				"types": null
			},
			"userdoc": {
				"kind": "user",
				"methods": {},
				"version": 1
			}
		}
	}
}