{
	"13_Inheritance/Inheritance.sol": {
		"Yeye": {
			"abi": [
				{
					"anonymous": false,
					"inputs": [
						{
							"indexed": false,
							"internalType": "string",
							"name": "message",
							"type": "string"
						}
					],
					"name": "Log",
					"type": "event"
				},
				{
					"inputs": [],
					"name": "hip",
					"outputs": [],
					"stateMutability": "nonpayable",
					"type": "function"
				},
				{
					"inputs": [],
					"name": "pop",
					"outputs": [],
					"stateMutability": "nonpayable",
					"type": "function"
				},
				{
					"inputs": [],
					"name": "yeye",
					"outputs": [],
					"stateMutability": "nonpayable",
					"type": "function"
				}
			],
			"devdoc": {
				"kind": "dev",
				"methods": {},
				"version": 1
			},
			"evm": {
				"assembly": "    /* \"13_Inheritance/Inheritance.sol\":61:348  contract Yeye{... */\n  mstore(0x40, 0x80)\n  callvalue\n  dup1\n  iszero\n  tag_1\n  jumpi\n  revert(0x00, 0x00)\ntag_1:\n  pop\n  dataSize(sub_0)\n  dup1\n  dataOffset(sub_0)\n  0x00\n  codecopy\n  0x00\n  return\nstop\n\nsub_0: assembly {\n        /* \"13_Inheritance/Inheritance.sol\":61:348  contract Yeye{... */\n      mstore(0x40, 0x80)\n      callvalue\n      dup1\n      iszero\n      tag_1\n      jumpi\n      revert(0x00, 0x00)\n    tag_1:\n      pop\n      jumpi(tag_2, lt(calldatasize, 0x04))\n      shr(0xe0, calldataload(0x00))\n      dup1\n      0x0ca21e9c\n      eq\n      tag_3\n      jumpi\n      dup1\n      0x370ea142\n      eq\n      tag_4\n      jumpi\n      dup1\n      0xa4ece52c\n      eq\n      tag_5\n      jumpi\n    tag_2:\n      revert(0x00, 0x00)\n        /* \"13_Inheritance/Inheritance.sol\":273:345  function yeye() public virtual{... */\n    tag_3:\n      tag_6\n      tag_7\n      jump\t// in\n    tag_6:\n      stop\n        /* \"13_Inheritance/Inheritance.sol\":117:187  function hip() public virtual{... */\n    tag_4:\n      tag_8\n      tag_9\n      jump\t// in\n    tag_8:\n      stop\n        /* \"13_Inheritance/Inheritance.sol\":195:265  function pop() public virtual{... */\n    tag_5:\n      tag_10\n      tag_11\n      jump\t// in\n    tag_10:\n      stop\n        /* \"13_Inheritance/Inheritance.sol\":273:345  function yeye() public virtual{... */\n    tag_7:\n        /* \"13_Inheritance/Inheritance.sol\":319:337  Log(\"Yeye yeye()\") */\n      0xcf34ef537ac33ee1ac626ca1587a0a7e8e51561e5514f8cb36afa1c5102b3bab\n      mload(0x40)\n      tag_13\n      swap1\n      tag_14\n      jump\t// in\n    tag_13:\n      mload(0x40)\n      dup1\n      swap2\n      sub\n      swap1\n      log1\n        /* \"13_Inheritance/Inheritance.sol\":273:345  function yeye() public virtual{... */\n      jump\t// out\n        /* \"13_Inheritance/Inheritance.sol\":117:187  function hip() public virtual{... */\n    tag_9:\n        /* \"13_Inheritance/Inheritance.sol\":162:179  Log(\"Yeye hip()\") */\n      0xcf34ef537ac33ee1ac626ca1587a0a7e8e51561e5514f8cb36afa1c5102b3bab\n      mload(0x40)\n      tag_16\n      swap1\n      tag_17\n      jump\t// in\n    tag_16:\n      mload(0x40)\n      dup1\n      swap2\n      sub\n      swap1\n      log1\n        /* \"13_Inheritance/Inheritance.sol\":117:187  function hip() public virtual{... */\n      jump\t// out\n        /* \"13_Inheritance/Inheritance.sol\":195:265  function pop() public virtual{... */\n    tag_11:\n        /* \"13_Inheritance/Inheritance.sol\":240:257  Log(\"Yeye pop()\") */\n      0xcf34ef537ac33ee1ac626ca1587a0a7e8e51561e5514f8cb36afa1c5102b3bab\n      mload(0x40)\n      tag_19\n      swap1\n      tag_20\n      jump\t// in\n    tag_19:\n      mload(0x40)\n      dup1\n      swap2\n      sub\n      swap1\n      log1\n        /* \"13_Inheritance/Inheritance.sol\":195:265  function pop() public virtual{... */\n      jump\t// out\n        /* \"#utility.yul\":7:176   */\n    tag_21:\n        /* \"#utility.yul\":91:102   */\n      0x00\n        /* \"#utility.yul\":125:131   */\n      dup3\n        /* \"#utility.yul\":120:123   */\n      dup3\n        /* \"#utility.yul\":113:132   */\n      mstore\n        /* \"#utility.yul\":165:169   */\n      0x20\n        /* \"#utility.yul\":160:163   */\n      dup3\n        /* \"#utility.yul\":156:170   */\n      add\n        /* \"#utility.yul\":141:170   */\n      swap1\n      pop\n        /* \"#utility.yul\":7:176   */\n      swap3\n      swap2\n      pop\n      pop\n      jump\t// out\n        /* \"#utility.yul\":182:343   */\n    tag_22:\n        /* \"#utility.yul\":322:335   */\n      0x5965796520796579652829000000000000000000000000000000000000000000\n        /* \"#utility.yul\":318:319   */\n      0x00\n        /* \"#utility.yul\":310:316   */\n      dup3\n        /* \"#utility.yul\":306:320   */\n      add\n        /* \"#utility.yul\":299:336   */\n      mstore\n        /* \"#utility.yul\":182:343   */\n      pop\n      jump\t// out\n        /* \"#utility.yul\":349:715   */\n    tag_23:\n        /* \"#utility.yul\":491:494   */\n      0x00\n        /* \"#utility.yul\":512:579   */\n      tag_32\n        /* \"#utility.yul\":576:578   */\n      0x0b\n        /* \"#utility.yul\":571:574   */\n      dup4\n        /* \"#utility.yul\":512:579   */\n      tag_21\n      jump\t// in\n    tag_32:\n        /* \"#utility.yul\":505:579   */\n      swap2\n      pop\n        /* \"#utility.yul\":588:681   */\n      tag_33\n        /* \"#utility.yul\":677:680   */\n      dup3\n        /* \"#utility.yul\":588:681   */\n      tag_22\n      jump\t// in\n    tag_33:\n        /* \"#utility.yul\":706:708   */\n      0x20\n        /* \"#utility.yul\":701:704   */\n      dup3\n        /* \"#utility.yul\":697:709   */\n      add\n        /* \"#utility.yul\":690:709   */\n      swap1\n      pop\n        /* \"#utility.yul\":349:715   */\n      swap2\n      swap1\n      pop\n      jump\t// out\n        /* \"#utility.yul\":721:1140   */\n    tag_14:\n        /* \"#utility.yul\":887:891   */\n      0x00\n        /* \"#utility.yul\":925:927   */\n      0x20\n        /* \"#utility.yul\":914:923   */\n      dup3\n        /* \"#utility.yul\":910:928   */\n      add\n        /* \"#utility.yul\":902:928   */\n      swap1\n      pop\n        /* \"#utility.yul\":974:983   */\n      dup2\n        /* \"#utility.yul\":968:972   */\n      dup2\n        /* \"#utility.yul\":964:984   */\n      sub\n        /* \"#utility.yul\":960:961   */\n      0x00\n        /* \"#utility.yul\":949:958   */\n      dup4\n        /* \"#utility.yul\":945:962   */\n      add\n        /* \"#utility.yul\":938:985   */\n      mstore\n        /* \"#utility.yul\":1002:1133   */\n      tag_35\n        /* \"#utility.yul\":1128:1132   */\n      dup2\n        /* \"#utility.yul\":1002:1133   */\n      tag_23\n      jump\t// in\n    tag_35:\n        /* \"#utility.yul\":994:1133   */\n      swap1\n      pop\n        /* \"#utility.yul\":721:1140   */\n      swap2\n      swap1\n      pop\n      jump\t// out\n        /* \"#utility.yul\":1146:1306   */\n    tag_24:\n        /* \"#utility.yul\":1286:1298   */\n      0x5965796520686970282900000000000000000000000000000000000000000000\n        /* \"#utility.yul\":1282:1283   */\n      0x00\n        /* \"#utility.yul\":1274:1280   */\n      dup3\n        /* \"#utility.yul\":1270:1284   */\n      add\n        /* \"#utility.yul\":1263:1299   */\n      mstore\n        /* \"#utility.yul\":1146:1306   */\n      pop\n      jump\t// out\n        /* \"#utility.yul\":1312:1678   */\n    tag_25:\n        /* \"#utility.yul\":1454:1457   */\n      0x00\n        /* \"#utility.yul\":1475:1542   */\n      tag_38\n        /* \"#utility.yul\":1539:1541   */\n      0x0a\n        /* \"#utility.yul\":1534:1537   */\n      dup4\n        /* \"#utility.yul\":1475:1542   */\n      tag_21\n      jump\t// in\n    tag_38:\n        /* \"#utility.yul\":1468:1542   */\n      swap2\n      pop\n        /* \"#utility.yul\":1551:1644   */\n      tag_39\n        /* \"#utility.yul\":1640:1643   */\n      dup3\n        /* \"#utility.yul\":1551:1644   */\n      tag_24\n      jump\t// in\n    tag_39:\n        /* \"#utility.yul\":1669:1671   */\n      0x20\n        /* \"#utility.yul\":1664:1667   */\n      dup3\n        /* \"#utility.yul\":1660:1672   */\n      add\n        /* \"#utility.yul\":1653:1672   */\n      swap1\n      pop\n        /* \"#utility.yul\":1312:1678   */\n      swap2\n      swap1\n      pop\n      jump\t// out\n        /* \"#utility.yul\":1684:2103   */\n    tag_17:\n        /* \"#utility.yul\":1850:1854   */\n      0x00\n        /* \"#utility.yul\":1888:1890   */\n      0x20\n        /* \"#utility.yul\":1877:1886   */\n      dup3\n        /* \"#utility.yul\":1873:1891   */\n      add\n        /* \"#utility.yul\":1865:1891   */\n      swap1\n      pop\n        /* \"#utility.yul\":1937:1946   */\n      dup2\n        /* \"#utility.yul\":1931:1935   */\n      dup2\n        /* \"#utility.yul\":1927:1947   */\n      sub\n        /* \"#utility.yul\":1923:1924   */\n      0x00\n        /* \"#utility.yul\":1912:1921   */\n      dup4\n        /* \"#utility.yul\":1908:1925   */\n      add\n        /* \"#utility.yul\":1901:1948   */\n      mstore\n        /* \"#utility.yul\":1965:2096   */\n      tag_41\n        /* \"#utility.yul\":2091:2095   */\n      dup2\n        /* \"#utility.yul\":1965:2096   */\n      tag_25\n      jump\t// in\n    tag_41:\n        /* \"#utility.yul\":1957:2096   */\n      swap1\n      pop\n        /* \"#utility.yul\":1684:2103   */\n      swap2\n      swap1\n      pop\n      jump\t// out\n        /* \"#utility.yul\":2109:2269   */\n    tag_26:\n        /* \"#utility.yul\":2249:2261   */\n      0x5965796520706f70282900000000000000000000000000000000000000000000\n        /* \"#utility.yul\":2245:2246   */\n      0x00\n        /* \"#utility.yul\":2237:2243   */\n      dup3\n        /* \"#utility.yul\":2233:2247   */\n      add\n        /* \"#utility.yul\":2226:2262   */\n      mstore\n        /* \"#utility.yul\":2109:2269   */\n      pop\n      jump\t// out\n        /* \"#utility.yul\":2275:2641   */\n    tag_27:\n        /* \"#utility.yul\":2417:2420   */\n      0x00\n        /* \"#utility.yul\":2438:2505   */\n      tag_44\n        /* \"#utility.yul\":2502:2504   */\n      0x0a\n        /* \"#utility.yul\":2497:2500   */\n      dup4\n        /* \"#utility.yul\":2438:2505   */\n      tag_21\n      jump\t// in\n    tag_44:\n        /* \"#utility.yul\":2431:2505   */\n      swap2\n      pop\n        /* \"#utility.yul\":2514:2607   */\n      tag_45\n        /* \"#utility.yul\":2603:2606   */\n      dup3\n        /* \"#utility.yul\":2514:2607   */\n      tag_26\n      jump\t// in\n    tag_45:\n        /* \"#utility.yul\":2632:2634   */\n      0x20\n        /* \"#utility.yul\":2627:2630   */\n      dup3\n        /* \"#utility.yul\":2623:2635   */\n      add\n        /* \"#utility.yul\":2616:2635   */\n      swap1\n      pop\n        /* \"#utility.yul\":2275:2641   */\n      swap2\n      swap1\n      pop\n      jump\t// out\n        /* \"#utility.yul\":2647:3066   */\n    tag_20:\n        /* \"#utility.yul\":2813:2817   */\n      0x00\n        /* \"#utility.yul\":2851:2853   */\n      0x20\n        /* \"#utility.yul\":2840:2849   */\n      dup3\n        /* \"#utility.yul\":2836:2854   */\n      add\n        /* \"#utility.yul\":2828:2854   */\n      swap1\n      pop\n        /* \"#utility.yul\":2900:2909   */\n      dup2\n        /* \"#utility.yul\":2894:2898   */\n      dup2\n        /* \"#utility.yul\":2890:2910   */\n      sub\n        /* \"#utility.yul\":2886:2887   */\n      0x00\n        /* \"#utility.yul\":2875:2884   */\n      dup4\n        /* \"#utility.yul\":2871:2888   */\n      add\n        /* \"#utility.yul\":2864:2911   */\n      mstore\n        /* \"#utility.yul\":2928:3059   */\n      tag_47\n        /* \"#utility.yul\":3054:3058   */\n      dup2\n        /* \"#utility.yul\":2928:3059   */\n      tag_27\n      jump\t// in\n    tag_47:\n        /* \"#utility.yul\":2920:3059   */\n      swap1\n      pop\n        /* \"#utility.yul\":2647:3066   */\n      swap2\n      swap1\n      pop\n      jump\t// out\n\n    auxdata: 0xa26469706673582212202afb1284f8a5e0759a8962fbfc0e1a8abf497720d0d3f4a9dc03dbea9c8703e864736f6c634300081e0033\n}\n",
				"bytecode": {
					"linkReferences": {},
					"object": "6080604052348015600e575f5ffd5b506102848061001c5f395ff3fe608060405234801561000f575f5ffd5b506004361061003f575f3560e01c80630ca21e9c14610043578063370ea1421461004d578063a4ece52c14610057575b5f5ffd5b61004b610061565b005b610055610098565b005b61005f6100cf565b005b7fcf34ef537ac33ee1ac626ca1587a0a7e8e51561e5514f8cb36afa1c5102b3bab60405161008e90610160565b60405180910390a1565b7fcf34ef537ac33ee1ac626ca1587a0a7e8e51561e5514f8cb36afa1c5102b3bab6040516100c5906101c8565b60405180910390a1565b7fcf34ef537ac33ee1ac626ca1587a0a7e8e51561e5514f8cb36afa1c5102b3bab6040516100fc90610230565b60405180910390a1565b5f82825260208201905092915050565b7f59657965207965796528290000000000000000000000000000000000000000005f82015250565b5f61014a600b83610106565b915061015582610116565b602082019050919050565b5f6020820190508181035f8301526101778161013e565b9050919050565b7f59657965206869702829000000000000000000000000000000000000000000005f82015250565b5f6101b2600a83610106565b91506101bd8261017e565b602082019050919050565b5f6020820190508181035f8301526101df816101a6565b9050919050565b7f5965796520706f702829000000000000000000000000000000000000000000005f82015250565b5f61021a600a83610106565b9150610225826101e6565b602082019050919050565b5f6020820190508181035f8301526102478161020e565b905091905056fea26469706673582212202afb1284f8a5e0759a8962fbfc0e1a8abf497720d0d3f4a9dc03dbea9c8703e864736f6c634300081e0033",
					"opcodes": "PUSH1 0x80 PUSH1 0x40 MSTORE CALLVALUE DUP1 ISZERO PUSH1 0xE JUMPI PUSH0 PUSH0 REVERT JUMPDEST POP PUSH2 0x284 DUP1 PUSH2 0x1C PUSH0 CODECOPY PUSH0 RETURN INVALID PUSH1 0x80 PUSH1 0x40 MSTORE CALLVALUE DUP1 ISZERO PUSH2 0xF JUMPI PUSH0 PUSH0 REVERT JUMPDEST POP PUSH1 0x4 CALLDATASIZE LT PUSH2 0x3F JUMPI PUSH0 CALLDATALOAD PUSH1 0xE0 SHR DUP1 PUSH4 0xCA21E9C EQ PUSH2 0x43 JUMPI DUP1 PUSH4 0x370EA142 EQ PUSH2 0x4D JUMPI DUP1 PUSH4 0xA4ECE52C EQ PUSH2 0x57 JUMPI JUMPDEST PUSH0 PUSH0 REVERT JUMPDEST PUSH2 0x4B PUSH2 0x61 JUMP JUMPDEST STOP JUMPDEST PUSH2 0x55 PUSH2 0x98 JUMP JUMPDEST STOP JUMPDEST PUSH2 0x5F PUSH2 0xCF JUMP JUMPDEST STOP JUMPDEST PUSH32 0xCF34EF537AC33EE1AC626CA1587A0A7E8E51561E5514F8CB36AFA1C5102B3BAB PUSH1 0x40 MLOAD PUSH2 0x8E SWAP1 PUSH2 0x160 JUMP JUMPDEST PUSH1 0x40 MLOAD DUP1 SWAP2 SUB SWAP1 LOG1 JUMP JUMPDEST PUSH32 0xCF34EF537AC33EE1AC626CA1587A0A7E8E51561E5514F8CB36AFA1C5102B3BAB PUSH1 0x40 MLOAD PUSH2 0xC5 SWAP1 PUSH2 0x1C8 JUMP JUMPDEST PUSH1 0x40 MLOAD DUP1 SWAP2 SUB SWAP1 LOG1 JUMP JUMPDEST PUSH32 0xCF34EF537AC33EE1AC626CA1587A0A7E8E51561E5514F8CB36AFA1C5102B3BAB PUSH1 0x40 MLOAD PUSH2 0xFC SWAP1 PUSH2 0x230 JUMP JUMPDEST PUSH1 0x40 MLOAD DUP1 SWAP2 SUB SWAP1 LOG1 JUMP JUMPDEST PUSH0 DUP3 DUP3 MSTORE PUSH1 0x20 DUP3 ADD SWAP1 POP SWAP3 SWAP2 POP POP JUMP JUMPDEST PUSH32 0x5965796520796579652829000000000000000000000000000000000000000000 PUSH0 DUP3 ADD MSTORE POP JUMP JUMPDEST PUSH0 PUSH2 0x14A PUSH1 0xB DUP4 PUSH2 0x106 JUMP JUMPDEST SWAP2 POP PUSH2 0x155 DUP3 PUSH2 0x116 JUMP JUMPDEST PUSH1 0x20 DUP3 ADD SWAP1 POP SWAP2 SWAP1 POP JUMP JUMPDEST PUSH0 PUSH1 0x20 DUP3 ADD SWAP1 POP DUP2 DUP2 SUB PUSH0 DUP4 ADD MSTORE PUSH2 0x177 DUP2 PUSH2 0x13E JUMP JUMPDEST SWAP1 POP SWAP2 SWAP1 POP JUMP JUMPDEST PUSH32 0x5965796520686970282900000000000000000000000000000000000000000000 PUSH0 DUP3 ADD MSTORE POP JUMP JUMPDEST PUSH0 PUSH2 0x1B2 PUSH1 0xA DUP4 PUSH2 0x106 JUMP JUMPDEST SWAP2 POP PUSH2 0x1BD DUP3 PUSH2 0x17E JUMP JUMPDEST PUSH1 0x20 DUP3 ADD SWAP1 POP SWAP2 SWAP1 POP JUMP JUMPDEST PUSH0 PUSH1 0x20 DUP3 ADD SWAP1 POP DUP2 DUP2 SUB PUSH0 DUP4 ADD MSTORE PUSH2 0x1DF DUP2 PUSH2 0x1A6 JUMP JUMPDEST SWAP1 POP SWAP2 SWAP1 POP JUMP JUMPDEST PUSH32 0x5965796520706F70282900000000000000000000000000000000000000000000 PUSH0 DUP3 ADD MSTORE POP JUMP JUMPDEST PUSH0 PUSH2 0x21A PUSH1 0xA DUP4 PUSH2 0x106 JUMP JUMPDEST SWAP2 POP PUSH2 0x225 DUP3 PUSH2 0x1E6 JUMP JUMPDEST PUSH1 0x20 DUP3 ADD SWAP1 POP SWAP2 SWAP1 POP JUMP JUMPDEST PUSH0 PUSH1 0x20 DUP3 ADD SWAP1 POP DUP2 DUP2 SUB PUSH0 DUP4 ADD MSTORE PUSH2 0x247 DUP2 PUSH2 0x20E JUMP JUMPDEST SWAP1 POP SWAP2 SWAP1 POP JUMP INVALID LOG2 PUSH5 0x6970667358 0x22 SLT KECCAK256 0x2A EXTSTATICCALL SLT DUP5 EXTCALL 0xA5 RJUMP 0x759A DUP10 PUSH3 0xFBFC0E BYTE DUP11 0xBF BLOBHASH PUSH24 0x20D0D3F4A9DC03DBEA9C8703E864736F6C634300081E0033 "
				},
				"gasEstimates": {
					"creation": {
						"codeDepositCost": "128800",
						"executionCost": "175",
						"totalCost": "128975"
					},
					"external": {
						"hip()": "1940",
						"pop()": "1962",
						"yeye()": "1918"
					}
				},
				"methodIdentifiers": {
					"hip()": "370ea142",
					"pop()": "a4ece52c",
					"yeye()": "0ca21e9c"
				}
			},
			"storageLayout": {
				"storage": [],
				"types": null
			},
			"userdoc": {
				"kind": "user",
				"methods": {},
				"version": 1
			}
		}
	}
}