{
	"data": {
		"bytecode": {
			"linkReferences": {},
			"object": "6080604052348015600e575f5ffd5b5061020a8061001c5f395ff3fe608060405234801561000f575f5ffd5b5060043610610034575f3560e01c80634534a43814610038578063d2406c7814610069575b5f5ffd5b610052600480360381019061004d9190610116565b61009a565b604051610060929190610150565b60405180910390f35b610083600480360381019061007e9190610116565b6100b0565b604051610091929190610150565b60405180910390f35b5f5f826100a6846100b0565b9250925050915091565b5f5f5f6002846100c091906101a4565b90505f6003856100d091906101a4565b90508181935093505050915091565b5f5ffd5b5f819050919050565b6100f5816100e3565b81146100ff575f5ffd5b50565b5f81359050610110816100ec565b92915050565b5f6020828403121561012b5761012a6100df565b5b5f61013884828501610102565b91505092915050565b61014a816100e3565b82525050565b5f6040820190506101635f830185610141565b6101706020830184610141565b9392505050565b7f4e487b71000000000000000000000000000000000000000000000000000000005f52601260045260245ffd5b5f6101ae826100e3565b91506101b9836100e3565b9250826101c9576101c8610177565b5b82820490509291505056fea2646970667358221220adc53c8f80ada0a318a1880d3819041f597584053b1562e621a21c0d77e40d2e64736f6c634300081e0033",
			"opcodes": "PUSH1 0x80 PUSH1 0x40 MSTORE CALLVALUE DUP1 ISZERO PUSH1 0xE JUMPI PUSH0 PUSH0 REVERT JUMPDEST POP PUSH2 0x20A DUP1 PUSH2 0x1C PUSH0 CODECOPY PUSH0 RETURN INVALID PUSH1 0x80 PUSH1 0x40 MSTORE CALLVALUE DUP1 ISZERO PUSH2 0xF JUMPI PUSH0 PUSH0 REVERT JUMPDEST POP PUSH1 0x4 CALLDATASIZE LT PUSH2 0x34 JUMPI PUSH0 CALLDATALOAD PUSH1 0xE0 SHR DUP1 PUSH4 0x4534A438 EQ PUSH2 0x38 JUMPI DUP1 PUSH4 0xD2406C78 EQ PUSH2 0x69 JUMPI JUMPDEST PUSH0 PUSH0 REVERT JUMPDEST PUSH2 0x52 PUSH1 0x4 DUP1 CALLDATASIZE SUB DUP2 ADD SWAP1 PUSH2 0x4D SWAP2 SWAP1 PUSH2 0x116 JUMP JUMPDEST PUSH2 0x9A JUMP JUMPDEST PUSH1 0x40 MLOAD PUSH2 0x60 SWAP3 SWAP2 SWAP1 PUSH2 0x150 JUMP JUMPDEST PUSH1 0x40 MLOAD DUP1 SWAP2 SUB SWAP1 RETURN JUMPDEST PUSH2 0x83 PUSH1 0x4 DUP1 CALLDATASIZE SUB DUP2 ADD SWAP1 PUSH2 0x7E SWAP2 SWAP1 PUSH2 0x116 JUMP JUMPDEST PUSH2 0xB0 JUMP JUMPDEST PUSH1 0x40 MLOAD PUSH2 0x91 SWAP3 SWAP2 SWAP1 PUSH2 0x150 JUMP JUMPDEST PUSH1 0x40 MLOAD DUP1 SWAP2 SUB SWAP1 RETURN JUMPDEST PUSH0 PUSH0 DUP3 PUSH2 0xA6 DUP5 PUSH2 0xB0 JUMP JUMPDEST SWAP3 POP SWAP3 POP POP SWAP2 POP SWAP2 JUMP JUMPDEST PUSH0 PUSH0 PUSH0 PUSH1 0x2 DUP5 PUSH2 0xC0 SWAP2 SWAP1 PUSH2 0x1A4 JUMP JUMPDEST SWAP1 POP PUSH0 PUSH1 0x3 DUP6 PUSH2 0xD0 SWAP2 SWAP1 PUSH2 0x1A4 JUMP JUMPDEST SWAP1 POP DUP2 DUP2 SWAP4 POP SWAP4 POP POP POP SWAP2 POP SWAP2 JUMP JUMPDEST PUSH0 PUSH0 REVERT JUMPDEST PUSH0 DUP2 SWAP1 POP SWAP2 SWAP1 POP JUMP JUMPDEST PUSH2 0xF5 DUP2 PUSH2 0xE3 JUMP JUMPDEST DUP2 EQ PUSH2 0xFF JUMPI PUSH0 PUSH0 REVERT JUMPDEST POP JUMP JUMPDEST PUSH0 DUP2 CALLDATALOAD SWAP1 POP PUSH2 0x110 DUP2 PUSH2 0xEC JUMP JUMPDEST SWAP3 SWAP2 POP POP JUMP JUMPDEST PUSH0 PUSH1 0x20 DUP3 DUP5 SUB SLT ISZERO PUSH2 0x12B JUMPI PUSH2 0x12A PUSH2 0xDF JUMP JUMPDEST JUMPDEST PUSH0 PUSH2 0x138 DUP5 DUP3 DUP6 ADD PUSH2 0x102 JUMP JUMPDEST SWAP2 POP POP SWAP3 SWAP2 POP POP JUMP JUMPDEST PUSH2 0x14A DUP2 PUSH2 0xE3 JUMP JUMPDEST DUP3 MSTORE POP POP JUMP JUMPDEST PUSH0 PUSH1 0x40 DUP3 ADD SWAP1 POP PUSH2 0x163 PUSH0 DUP4 ADD DUP6 PUSH2 0x141 JUMP JUMPDEST PUSH2 0x170 PUSH1 0x20 DUP4 ADD DUP5 PUSH2 0x141 JUMP JUMPDEST SWAP4 SWAP3 POP POP POP JUMP JUMPDEST PUSH32 0x4E487B7100000000000000000000000000000000000000000000000000000000 PUSH0 MSTORE PUSH1 0x12 PUSH1 0x4 MSTORE PUSH1 0x24 PUSH0 REVERT JUMPDEST PUSH0 PUSH2 0x1AE DUP3 PUSH2 0xE3 JUMP JUMPDEST SWAP2 POP PUSH2 0x1B9 DUP4 PUSH2 0xE3 JUMP JUMPDEST SWAP3 POP DUP3 PUSH2 0x1C9 JUMPI PUSH2 0x1C8 PUSH2 0x177 JUMP JUMPDEST JUMPDEST DUP3 DUP3 DIV SWAP1 POP SWAP3 SWAP2 POP POP JUMP INVALID LOG2 PUSH5 0x6970667358 0x22 SLT KECCAK256 0xAD 0xC5 EXTCODECOPY DUP16 DUP1 0xAD LOG0 LOG3 XOR LOG1 DUP9 0xD CODESIZE NOT DIV 0x1F MSIZE PUSH22 0x84053B1562E621A21C0D77E40D2E64736F6C63430008 0x1E STOP CALLER "
		},
		"gasEstimates": {
			"creation": {
				"codeDepositCost": "104400",
				"executionCost": "151",
				"totalCost": "104551"
			},
			"external": {
				"getExactDividedBy2And3(uint256)": "infinite",
				"getExactDividedBy2And3WithoutModifier(uint256)": "infinite"
			}
		},
		"methodIdentifiers": {
			"getExactDividedBy2And3(uint256)": "4534a438",
			"getExactDividedBy2And3WithoutModifier(uint256)": "d2406c78"
		}
	},
	"abi": [
		{
			"inputs": [
				{
					"internalType": "uint256",
					"name": "_dividend",
					"type": "uint256"
				}
			],
			"name": "getExactDividedBy2And3",
			"outputs": [
				{
					"internalType": "uint256",
					"name": "",
					"type": "uint256"
				},
				{
					"internalType": "uint256",
					"name": "",
					"type": "uint256"
				}
			],
			"stateMutability": "pure",
			"type": "function"
		},
		{
			"inputs": [
				{
					"internalType": "uint256",
					"name": "_dividend",
					"type": "uint256"
				}
			],
			"name": "getExactDividedBy2And3WithoutModifier",
			"outputs": [
				{
					"internalType": "uint256",
					"name": "",
					"type": "uint256"
				},
				{
					"internalType": "uint256",
					"name": "",
					"type": "uint256"
				}
			],
			"stateMutability": "pure",
			"type": "function"
		}
	]
}